:100000000C9434000C9451000C9451000C94510049
:100010000C9451000C9451000C9451000C9451001C
:100020000C9451000C9451000C9451000C9451000C
:100030000C9451000C9451000C9451000C945100FC
:100040000C9451000C9451000C9451000C945100EC
:100050000C9451000C9451000C9451000C945100DC
:100060000C9451000C94510011241FBECFEFD8E026
:10007000DEBFCDBF11E0A0E0B1E0E8E8FCE002C0E7
:1000800005900D92A238B107D9F721E0A2E8B1E0BE
:1000900001C01D92AF3AB207E1F70E9481050C94AE
:1000A00042060C9400009C0181E090E0611571050E
:1000B00059F0AC01429FC001439F900D529F900D9B
:1000C000112461507109F2CF08950E94D60287E58C
:1000D00091E00E94C0022FE78AE196E02150804023
:1000E0009040E1F700C000000895803629E09207B3
:1000F0008CF420919D0130919E01F901EE0FFF1FBC
:10010000E757FE4F918380832F5F3F4F30939E01CF
:1001100020939D01089520E030E040919D01509191
:100120009E0124173507ACF4281739077CF0F90134
:100130003196EE0FFF1FE757FE4F40815181F901C5
:10014000EE0FFF1FE757FE4F518340832F5F3F4F56
:10015000E4CF0895CF92DF92EF92FF920F931F9317
:10016000CF93DF9380919D0190919E01892B09F49B
:100170004EC00F2EF2E8CF2EF1E0DF2EF02D0F2E25
:10018000F3E8EF2EF1E0FF2EF02D04E811E025E872
:1001900031E046E851E067E871E088E891E00E94CC
:1001A0006A04C0E0D0E080919D0190919E018C177F
:1001B0009D076CF1FE01EE0FFF1FE757FE4F2081F8
:1001C0003181C90164E670E00E94E50580918401F7
:1001D00090E068177907C9F4C90164E670E00E94ED
:1001E000E5052091830130E08217930771F40E94A6
:1001F0006500CE010E948B0080919D0190919E012F
:10020000019790939E0180939D012196CCCFDF9121
:10021000CF911F910F91FF90EF90DF90CF900895B5
:10022000CF93DF93EC0121E030E0E0E0F0E0C21793
:10023000D3076CF0C90183709927892B19F4E2590F
:10024000FE4F02C0E359FE4F2F5F3F4FF0CF20E03B
:1002500030E0DB0111972A173B073CF591E0DE0106
:10026000A370BB27AB2B09F090E0992391F091E0AC
:100270002130310509F090E0992359F0D901AA0FF6
:10028000BB1FA050BF4F8D919C91E80FF91F319675
:1002900009C0D901AA0FBB1FA050BF4F8D919C91DF
:1002A000E80FF91F2F5F3F4FD4CF4E0F5F1FCA01DA
:1002B000059667E070E00E94E505DF91CF91089513
:1002C0006F927F928F929F92AF92BF92CF92DF9266
:1002D000EF92FF920F931F93CF93DF93EC018880EF
:1002E0009980AA80BB806C807D80A301B501C40188
:1002F0000E9410010E811F81E884F984CA84DB8486
:10030000940121503109C1E02236310508F0C0E0E6
:1003100021E01A141B040CF020E061E09DE0A91616
:10032000B1040CF060E071E0161417040CF070E0FA
:1003300051E090E2691671040CF050E0312F3095D5
:10034000331F3327331F41E0083111050CF040E023
:10035000AF2DA095AA1FAA27AA1FB1E09CE3E9161A
:10036000F1040CF0B0E09D2D9095E92FEE1FEE27E3
:10037000EE1FF1E09CE3C916D1040CF0F0E02C2351
:10038000622367235623952F932349234A23942FCF
:100390009B239E2341F0FF2331F0282F462D6A2D09
:1003A000882D0E942904DF91CF911F910F91FF901A
:1003B000EF90DF90CF90BF90AF909F908F907F9005
:1003C0006F900895CF92DF92EF92FF920F931F9359
:1003D000CF93DF93CDB7DEB76E970FB6F894DEBF3D
:1003E0000FBECDBF0F2EF2E8CF2EF1E0DF2EF02DA5
:1003F0000F2EF3E8EF2EF1E0FF2EF02D04E811E0D0
:1004000025E831E046E851E067E871E088E891E0EE
:100410000E946A04809182014AE0BE016F5F7F4FB3
:1004200090E00E940D06809183014AE0BE01655F65
:100430007F4F90E00E940D06809184014AE0BE014A
:100440006B5E7F4F90E00E940D0680E090E00E947E
:10045000E302CE0145960E94C0028EE591E00E9423
:10046000C002CE010B960E94C0028EE591E00E9470
:10047000C002CE0101960E94C0026E960FB6F8949B
:10048000DEBF0FBECDBFDF91CF911F910F91FF90C7
:10049000EF90DF90CF90089595B19F70282F207F27
:1004A000922B95B995B19E7F95B995B1926095B90A
:1004B000000095B19D7F95B932E43A95F1F700C0FF
:1004C00025B130E1839FC0011124922F9F70892BA9
:1004D00085B985B1826085B9000085B18D7F85B908
:1004E00083EF91E00197F1F700C00000089595B106
:1004F0009F70282F207F922B95B995B1916095B967
:1005000095B1926095B9000095B19D7F95B932E49F
:100510003A95F1F700C025B130E1839FC001112465
:10052000922F9F70892B85B985B1826085B90000B3
:1005300085B18D7F85B983EF91E00197F1F700C018
:10054000000008958FEF84B987E893E10197F1F7F0
:1005500000C0000082E00E944C0288E20E944C022F
:100560008CE00E944C0286E00E944C0281E00E94D6
:100570004C0283EF91E00197F1F700C0000008956D
:100580000F931F93CF93DF938C01C0E0D0E0F8016D
:10059000EC0FFD1F8081882321F00E9477022196B5
:1005A000F6CFDF91CF911F910F91089581E00E94C6
:1005B0004C0283EF91E00197F1F700C0000080E862
:1005C0000E944C020895892B21F480E80E944C027D
:1005D000089580EC0E944C0208950F931F93CF93CF
:1005E000DF93C82F8B0180E090E00E94E30290ED42
:1005F0009C0F81E09A3008F080E091E00230110514
:1006000009F090E08823D1F19923C1F180E090E0D6
:100610000E94E302D0E0E0976091360170913701CB
:100620008AE090E00E9453009C01C29FC001C39FDA
:10063000900DD29F900D11242091AD013091AE010B
:10064000820F931F9093AE018093AD014AE061EA5F
:1006500071E00E940D0681EA91E00E94C002809143
:1006600036019091370101979093370180933601BD
:1006700087EA91E60197F1F700C000000330110509
:1006800079F58091AD019091AE010E94750080E0F6
:1006900090E00E94E30280E691E00E94C00281E0C7
:1006A00090E00E94E30281EA91E00E94C002109271
:1006B000AE011092AD011092AC011092AB0183E03B
:1006C00090E090933701809336019FE926E831E06E
:1006D000915020403040E1F700C000000E94D60257
:1006E000DF91CF911F910F9108951F93CF93DF93C7
:1006F000182FEB0180E090E00E94E30281E0C1301E
:10070000D10509F080E091E0183309F090E09923D9
:1007100091F0882381F020919F013091A0012F5FFB
:100720003F4F3093A00120939F01E3ECF9E0319714
:10073000F1F700C0000091E0123309F090E0992336
:1007400089F0882379F080919F019091A001019711
:100750009093A00180939F0183EC99E00197F1F7BA
:1007600000C0000080919F019091A001039724F0A8
:100770001092A00110929F0180919F019091A00181
:10078000992334F482E090E09093A00180939F013C
:10079000C130D105F9F480E090E00E94E30280E7E7
:1007A00091E00E94C00280919F019091A00163E0BE
:1007B00070E00E94E5059C01220F331F880F991FEE
:1007C000880F991F880F991F820F931F885E9E4F75
:1007D0000E94C00281E020919F013091A001232B53
:1007E00009F080E0882359F081E0C230D1050CF493
:1007F00080E0882321F0BE01812F0E94ED02DF916D
:10080000CF911F9108959DEC899F912D112496956C
:1008100096959695292F220F920F292F220F820F3E
:100820000895282F30E035952795359527953595EE
:10083000279535952795922F990F290F922F990F6C
:10084000891B08950E94C20483E08A95F1F7000095
:100850000895CF92EF92FF920F931F93CF93DF9360
:10086000C82FD62F142FF22E80ED0E94EE0480E0C8
:100870000E9420058C2D0E9403040E9420058E2DCD
:100880000E9403040E942005802F0E9403040E94FE
:1008900020058F2D0E9403040E942005812F0E94B5
:1008A00003040E9420058D2F0E9403040E9420054E
:1008B0008C2F0E9403040E94200580E00E942005E6
:1008C0000E941805DF91CF911F910F91FF90EF903B
:1008D000CF9008956F927F928F929F92AF92BF9226
:1008E000CF92DF92EF92FF920F931F93CF93DF93FC
:1008F000EC013B015A01490180ED0E94EE0480E0C9
:100900000E9420050E94180581ED0E9415050E9495
:1009100032058F770E941104F60180830E94320510
:100920000E941104F70180830E9432050E94110485
:10093000F80180830E9432050E941104F401808333
:100940000E9432050E941104F50180830E94320545
:100950000E941104F30180830E943C050E9411044F
:1009600088830E941805DF91CF911F910F91FF900E
:10097000EF90DF90CF90BF90AF909F908F907F903F
:100980006F9008951092B9008DEF8093B80008958C
:1009900094EA9093BC009091BC009923E4F7909165
:1009A000B900987F983011F0903191F48093BB009A
:1009B00084E88093BC008091BC008823E4F7809198
:1009C000B900887F883131F0803431F480E00895B7
:1009D00081E0089580E0089581E0089594EA90937D
:1009E000BC009091BC009923E4F79091B900987FE6
:1009F000983011F0903191F78093BB0094E8909378
:100A0000BC009091BC009923E4F79091B900987FC5
:100A1000903211F0983541F494E99093BC00909194
:100A2000BC0094FDFCCFDACF08950E94C80408955D
:100A300084E98093BC008091BC0084FDFCCF0895C4
:100A40008093BB0084E88093BC008091BC00882325
:100A5000E4F78091B900887F883211F081E0089531
:100A600080E0089584EC8093BC008091BC008823D2
:100A7000E4F78091BB00089584E88093BC008091E6
:100A8000BC008823E4F78091BB0008958FE087B90C
:100A900060E070E06430710594F581E090E0FB0166
:100AA000E55CFE4F008002C0880F991F0A94E2F7B0
:100AB00088B980E090E083309105F4F449B150E0CA
:100AC00021E030E0FC01E85CFE4F008002C0220F14
:100AD000331F0A94E2F74217530761F49B01220F78
:100AE000331F620F731F615C7E4FFB01E80FF91F1C
:100AF000808108950196DFCF6F5F7F4FCBCF86E275
:100B00000895CF93DF93CDB7DEB72C970FB6F89447
:100B1000DEBF0FBECDBF0E94A20283E791E00E941C
:100B2000C0022FE38DE093E0215080409040E1F738
:100B300000C000000E94D6020E9422048CE0EBE478
:100B4000F1E0DE01119601900D928A95E1F7CE0158
:100B500001960E94600189EB94E00E94750000E01C
:100B600010E00E94AA000E944605F82E011511050A
:100B700011F40E94E2012AE2F2120DC08FE798E31D
:100B800021E0815090402040E1F700C000000F5F5D
:100B90001F4F0E94D6021016110624F4B8018F2DA3
:100BA0000E9475030330110511F400E010E083E2A8
:100BB000F812D7CF87EA91E60197F1F700C000005D
:100BC000015011090E94D602CCCF97FB072E16F4D4
:100BD000009407D077FD09D00E94F90507FC05D0E5
:100BE0003EF4909581959F4F0895709561957F4F44
:100BF0000895AA1BBB1B51E107C0AA1FBB1FA61764
:100C0000B70710F0A61BB70B881F991F5A95A9F7B5
:100C100080959095BC01CD010895BB274A3031F4F1
:100C2000992322F4BDE2909581959F4F0C9419066B
:100C3000BB27FB015527AA27880F991FAA1FA417B6
:100C400010F0A41B83955051B9F7A05DAA3308F0AA
:100C5000A95DA193009779F7B111B1931192CB01DE
:100C60000C943206DC01FC01672F71917723E1F7C8
:100C7000329704C07C916D9370836291AE17BF0769
:080C8000C8F30895F894FFCFBA
:100C88001F001C001F001E001F001E001F001F0069
:100C98001E001F001E001F0053455420414C4152A6
:100CA8004D005345542054494D4520005345542088
:100CB800544F4E452000030004050600010203318D
:100CC80032333435363738392A30231500050004D5
:100CD800000C000800230052494E472121003A0029
:100CE800414C41524D2049532053455420544F0004
:100CF8003E3E0020202057454C434F4D45212121A1
:020D08000000E9
:00000001FF
