S0170000416C61726D20436C6F636B204156522E737265630B
S11300000C9404080C94960B0C9421080C9421086D
S11300100C9421080C9421080C9421080C942108B8
S11300200C9421080C9421080C9421080C942108A8
S11300300C9421080C9421080C9421080C94210898
S11300400C9421080C9421080C9421080C94210888
S11300500C9421080C9421080C9421080C94210878
S11300600C9421080C942108520008005200080046
S1130070A500080052000800520008009300080080
S113008052000800520008008300080052000800D3
S113009052000800750008005200080052000800D1
S11300A07B0008008300080052000800520008008A
S11300B0A500080052000800520008009300080040
S11300C05200080052000800830008005200080093
S11300D0520008007500FEFF52000800520008009C
S11300E0A500080052000800520008009300080010
S11300F05200080052000800830008005200080063
S11301005200080075000800520008005200080060
S11301107B00080083000800520008005200080019
S1130120A5000800520008005200080093000800CF
S11301305200080052000800830008005200080022
S1130140520008007500FEFF52000800520008002B
S1130150A50008005200080052000800930008009F
S113016052000800520008008300080052000800F2
S113017052000800750008005200080052000800F0
S11301807B000800830008005200080052000800A9
S1130190A50008005200080052000800930008005F
S11301A052000800520008008300080052000800B2
S11301B0520008007500FEFF5200080052000800BB
S11301C0A50008005200080052000800930008002F
S11301D05200080052000800830008005200080082
S11301E05200080075000800520008005200080080
S11301F07B00080083000800520008005200080039
S1130200A5000800520008005200080093000800EE
S11302105200080052000800B900F0FF9300F0FFFC
S11302207B00F0FFDC00F0FFB900F0FF7B00F0FF83
S11302309300F0FFB900F0FFDC00F0FFB900F0FF1D
S11302409300F0FF7B00F0FF0000000000000000BE
S1130250000000000000000000000000000000009A
S1130260000000000000000000000000000000008A
S1130270000000000000000000000000000000007A
S1130280000000000000000000000000000000006A
S1130290000000000000000000000000000000005A
S11302A0000000000000000000000000000000004A
S11302B0000000000000000000000000000000003A
S11302C0000000000000000000000000000000002A
S11302D0000000000000000000000000000000001A
S11302E0000000000000000000000000000000000A
S11302F000000000000000000000000000000000FA
S113030000000000000000000000000000000000E9
S113031000000000000000000000000000000000D9
S113032000000000000000000000000000000000C9
S113033000000000000000000000000000000000B9
S113034000000000000000000000000000000000A9
S11303500000000000000000000000000000000099
S11303600000000000000000000000000000000089
S11303700000000000000000000000000000000079
S11303800000000000000000B8010400B8010400EF
S1130390B80104005D01F8FF0B021000B80104006D
S11303A05D01F8FF0B021000B80102009302040083
S11303B09302040093020400BA02F8FF0B02100037
S11303C0B80104005D01F8FF0B021000B80102003F
S11303D070030400B801F8FFB801100070030400B2
S11303E03F03F8FF100310006E0210004B021000D0
S11303F06E02080000000800B80108006E02040044
S11304004B02F8FF2A0210000B021000EE0110004C
S11304100B021000000008005D0108009F010400A9
S11304205D01F8FFB801F0FF0B020400B801F8FF0A
S11304300B0210009302020070030400B801F8FFDD
S1130440B8011000700304003F03F8FF100310000C
S11304506E0210004B0210006E020800000008003B
S1130460B80108006E0204004B02F8FF2A021000D3
S11304700B021000EE0110000B0210000000080037
S11304805D0108009F0104005D01F8FFB801F0FF61
S1130490B80104005D01F8FF0B021000B80102006E
S11304A00000000000000000000000000000000048
S11304B00000000000000000000000000000000038
S11304C00000000000000000000000000000000028
S11304D00000000000000000000000000000000018
S11304E00000000000000000000000000000000008
S11304F000000000000000000000000000000000F8
S113050000000000000000000000000000000000E7
S113051000000000000000000000000000000000D7
S113052000000000000000000000000000000000C7
S113053000000000000000000000000000000000B7
S113054000000000000000000000000000000000A7
S11305500000000000000000000000000000000097
S11305600000000000000000000000000000000087
S11305700000000000000000000000000000000077
S11305800000000000000000000000000000000067
S11305900000000000000000000000000000000057
S11305A00000000000000000000000000000000047
S11305B00000000000000000000000000000000037
S11305C00000000000000000000000000000000027
S11305D00000000000000000000000000000000017
S11305E00000000000000000000000000000000007
S11305F000000000000000000000000000000000F7
S113060000000000000000000000000000000000E6
S113061000000000000000000000000000000000D6
S113062000000000000000000000000000000000C6
S113063000000000000000000000000000000000B6
S113064000000000000000000000000000000000A6
S11306500000000000000000000000000000000096
S11306600000000000000000000000000000000086
S11306700000000000000000000000000000000076
S11306800000000000000000000000000000000066
S11306900000000000000000000000000000000056
S11306A000000000000000008801080006010800A6
S11306B0370110005D0110008801080006010800E0
S11306C0370110005D0110008801080006010800D0
S11306D0370110005D0110008801080006010800C0
S11306E0370110005D0110008801080006010800B0
S11306F04A0110005D01100088010800060108008D
S11307004A0110005D01100088010800060108007C
S11307104A0110005D01100088010800060108006C
S11307204A0110005D0110008801FCFF0601FCFF76
S1130730370110005D011000880104000601040067
S1130740370110005D0110002601FFFF5D01FCFF71
S1130750E900FCFF37011000260110005D010400D0
S1130760E900FCFF37011000260110000601FFFF1D
S11307708801FCFF0601FCFF370110005D01100039
S11307808801040006010400370110005D01100017
S11307902601FFFF5D01FCFFE900FCFF37011000AB
S11307A0260110005D010400E900FCFF3701100080
S11307B0260110000601FFFF8801FCFF0601FCFF73
S11307C0370110005D0110008801040006010400D7
S11307D0370110005D0110002601FEFF5D01FCFFE2
S11307E0E900FCFF2601F8FF3701F8FF2601F8FFB6
S11307F0E900F8FF0601FFFF0B02FEFFD201FEFF36
S11308000601FEFF8801FEFF3701FEFF3701FCFFF2
S11308105D01FCFF8801FFFF0B02FEFFD201FEFF1A
S11308200601FEFF8801FEFF3701FEFF3701FCFFD2
S11308302601FCFF0B020800880108009F0110003C
S1130840D20110000B020800880108009F0110006B
S1130850D20110000B020800880108009F0110005B
S1130860D20110000B020800880108009F0110004B
S1130870D2011000000004003F031000A403100084
S113088017040800100308003F031000A40310001D
S113089017040800100310003F031000A403100005
S11308A017040800100308003F031000A4031000FD
S11308B00000000000000000000000000000000034
S11308C00000000000000000000000000000000024
S11308D00000000000000000000000000000000014
S11308E00000000000000000000000000000000004
S11308F000000000000000000000000000000000F4
S113090000000000000000000000000000000000E3
S113091000000000000000000000000000000000D3
S113092000000000000000000000000000000000C3
S113093000000000000000000000000000000000B3
S113094000000000000000000000000000000000A3
S11309500000000000000000000000000000000093
S11309600000000000000000000000000000000083
S11309700000000000000000000000000000000073
S11309800000000000000000000000000000000063
S11309900000000000000000000000000000000053
S11309A00000000000000000000000000000000043
S11309B00000000000000000000000000000000033
S11309C000000000000000004A01FCFF00000800D5
S11309D0720108008801FCFF0000080037010800CC
S11309E04A01F8FF720108008801F8FF0B020800B1
S11309F0EE01F8FF4A0108008801F8FFEE01080043
S1130A00D2010200B801F0FF8801F0FF4A01F0FFB3
S1130A102601F0FF4A010200000004000000080063
S1130A20370104004A01FCFF0000080072010800BD
S1130A308801FCFF00000800370108004A01F8FFA4
S1130A40720108008801F8FF0B020800EE01F8FFAC
S1130A5088010800EE01F8FF930208006E0201000D
S1130A604B020200000004000000080037010800E7
S1130A704A01FCFF00000800720108008801FCFF25
S1130A8000000800370108004A01F8FF720108005D
S1130A908801F8FF0B020800EE01F8FF4A01080084
S1130AA08801F8FFEE010800D2010200B801F0FF4E
S1130AB08801F0FF4A01F0FF2601F0FF4A01FCFF24
S1130AC000000400000004009302F8FF4B02080039
S1130AD0EE01F8FFB80108008801F8FF4A01F8FFA9
S1130AE0D2011000B801F8FFD2011000B801F8FFDC
S1130AF0D2011000B801F8FFD2011000B801F8FFCC
S1130B008801F0FF4A01F0FF2601F0FF4A011000BE
S1130B104A0110004A010200000000000000000029
S1130B2000000000000000000000000000000000C1
S1130B3000000000000000000000000000000000B1
S1130B4000000000000000000000000000000000A1
S1130B500000000000000000000000000000000091
S1130B600000000000000000000000000000000081
S1130B700000000000000000000000000000000071
S1130B800000000000000000000000000000000061
S1130B900000000000000000000000000000000051
S1130BA00000000000000000000000000000000041
S1130BB00000000000000000000000000000000031
S1130BC00000000000000000000000000000000021
S1130BD00000000000000000000000000000000011
S1130BE00000000000000000000000000000000001
S1130BF000000000000000000000000000000000F1
S1130C0000000000000000000000000000000000E0
S1130C1000000000000000000000000000000000D0
S1130C2000000000000000000000000000000000C0
S1130C3000000000000000000000000000000000B0
S1130C4000000000000000000000000000000000A0
S1130C500000000000000000000000000000000090
S1130C600000000000000000000000000000000080
S1130C700000000000000000000000000000000070
S1130C800000000000000000000000000000000060
S1130C900000000000000000000000000000000050
S1130CA00000000000000000000000000000000040
S1130CB00000000000000000000000000000000030
S1130CC00000000000000000000000000000000020
S1130CD00000000000000000000000000000000010
S1130CE000000000000000000000040000000800F4
S1130CF000000800000008004A010800B8010800CC
S1130D000B020800EE010800B80108000B020800FD
S1130D10B8010800EE010800B80108005D010800F0
S1130D20880108004A0102004A010800B8010800CD
S1130D300B020800EE010800B80108000B020800CD
S1130D40B80108000B020800B80108004A010800B5
S1130D503701080026010200260108005D01080091
S1130D609F010800EE010200260108005D01080051
S1130D709F010800B80102000601080006010800EE
S1130D80880108005D0108004A0108008801080084
S1130D905D0108005D0108004A0108004A010800DD
S1130DA09F010800B801020000000800B801080013
S1130DB0B80108009F01080088010200EE01080044
S1130DC0B80108005D0108004A0102004A01080058
S1130DD0880108004A0108002601020026010800D3
S1130DE0260108005D010800370108004A010200DD
S1130DF0000008004A010800B80108000B020800BE
S1130E00EE010800B80108000B020800B801080050
S1130E10EE010800B80108005D010800880108001F
S1130E204A0102004A010800B80108000B02080048
S1130E30EE010800B80108000B020800B801080020
S1130E400B020800B80108004A0108003701080035
S1130E5026010200260108005D0108009F01080028
S1130E60EE010200260108005D0108009F01080050
S1130E70B801020006010800060108008801080004
S1130E805D0108004A010800880108005D010800AE
S1130E905D0108004A0108004A0108009F0108009A
S1130EA0B801020000000800B8010800B8010800F9
S1130EB09F01080088010200EE010800B801080043
S1130EC05D0108004A0102004A0108008801080087
S1130ED04A01080026010200260108002601080034
S1130EE05D010800370108004A010200000000000B
S1130EF000000000000000000000000000000000EE
S1130F0000000000000000000000000000000000DD
S1130F1000000000000000000000000000000000CD
S1130F2000000000000000000000000000000000BD
S1130F3000000000000000000000000000000000AD
S1130F40000000000000000000000000000000009D
S1130F50000000000000000000000000000000008D
S1130F60000000000000000000000000000000007D
S1130F70000000000000000000000000000000006D
S1130F80000000000000000000000000000000005D
S1130F90000000000000000000000000000000004D
S1130FA0000000000000000000000000000000003D
S1130FB0000000000000000000000000000000002D
S1130FC0000000000000000000000000000000001D
S1130FD0000000000000000000000000000000000D
S1130FE000000000000000000000000000000000FD
S1130FF000000000000000000000000000000000ED
S1131000000000000000000011241FBECFEFD8E054
S1131010DEBFCDBF11E0A0E0B1E0E2EDF8E202C036
S113102005900D92A23EB107D9F722E0A2EEB1E0FD
S113103001C01D92AF32B207E1F70E94C8110C94AF
S113104067140C9400009C0181E090E06115710527
S113105059F0AC01429FC001439F900D529F900DE7
S1131060112461507109F2CF08950E94420D8BE85A
S113107091E00E942C0D80E090E00E94BF0B089547
S1131080803629E092078CF42091FD013091FE0115
S1131090F901EE0FFF1FE751FE4F918380832F5F0D
S11310A03F4F3093FE012093FD01089520E030E08E
S11310B04091FD015091FE0124173507ACF4281727
S11310C039077CF0F9013196EE0FFF1FE751FE4F0F
S11310D040815181F901EE0FFF1FE751FE4F51830B
S11310E040832F5F3F4FE4CF0895CF92DF92EF927A
S11310F0FF920F931F93CF93DF938091FD01909103
S1131100FE01892B09F44EC00F2EF2EECF2EF1E032
S1131110DF2EF02D0F2EF3EEEF2EF1E0FF2EF02D4B
S113112004EE11E025EE31E046EE51E067EE71E0A9
S113113088EE91E00E94B110C0E0D0E08091FD0102
S11311409091FE018C179D076CF1FE01EE0FFF1FBD
S1131150E751FE4F20813181C90164E670E00E94AD
S11311600A148091E40190E068177907C9F4C90171
S113117064E670E00E940A142091E30130E08217D3
S1131180930771F40E943508CE010E94560880919D
S1131190FD019091FE0101979093FE018093FD0162
S11311A02196CCCFDF91CF911F910F91FF90EF90BB
S11311B0DF90CF900895CF93DF93EC0121E030E0EE
S11311C0E0E0F0E0C217D3076CF0C90183709927FF
S11311D0892B19F4E259FE4F02C0E359FE4F2F5FE9
S11311E03F4FF0CF20E030E0DB0111972A173B0797
S11311F03CF591E0DE01A370BB27AB2B09F090E036
S1131200992391F091E02130310509F090E0992380
S113121059F0D901AA0FBB1FA050BF4F8D919C91CB
S1131220E80FF91F319609C0D901AA0FBB1FA050BE
S1131230BF4F8D919C91E80FF91F2F5F3F4FD4CF83
S11312404E0F5F1FCA01059667E070E00E940A1402
S1131250DF91CF9108956F927F928F929F92AF9278
S1131260BF92CF92DF92EF92FF920F931F93CF938F
S1131270DF93EC0188809980AA80BB806C807D809C
S1131280A301B501C4010E94DB080E811F81E8841B
S1131290F984CA84DB84940121503109C1E02236E7
S11312A0310508F0C0E021E01A141B040CF020E022
S11312B061E09DE0A916B1040CF060E071E0161441
S11312C017040CF070E051E090E2691671040CF020
S11312D050E0312F3095331F3327331F41E008315D
S11312E011050CF040E0AF2DA095AA1FAA27AA1F54
S11312F0B1E09CE3E916F1040CF0B0E09D2D90956B
S1131300E92FEE1FEE27EE1FF1E09CE3C916D1048E
S11313100CF0F0E02C23622367235623952F9323AC
S113132049234A23942F9B239E2341F0FF2331F02A
S1131330282F462D6A2D882D0E947010DF91CF91A1
S11313401F910F91FF90EF90DF90CF90BF90AF90DF
S11313509F908F907F906F9008958A3020F484EA54
S113136091E00E942C0D0895CF92DF92EF92FF92AC
S11313700F931F93CF93DF93CDB7DEB7EC970FB6E0
S1131380F894DEBF0FBECDBF0F2EF2EECF2EF1E0EC
S1131390DF2EF02D0F2EF3EEEF2EF1E0FF2EF02DC9
S11313A004EE11E025EE31E046EE51E067EE71E027
S11313B088EE91E00E94B1108091E2014AE0BE0102
S11313C06F5F7F4F90E00E9432148091E3014AE006
S11313D0BE01655F7F4F90E00E9432148091E4016A
S11313E04AE0BE016B5E7F4F90E00E943214809110
S11313F0E8014AE0BE01615E7F4F90E00E94321432
S11314008091E7014AE0BE01675D7F4F90E00E9452
S113141032148091E6014AE0BE016D5C7F4F90E09A
S11314200E94321480E090E00E944F0D82E991E026
S11314300E942C0D8091E8010E94AD09CE014F96C7
S11314400E942C0D88E991E00E942C0D8091E70107
S11314500E94AD09CE0189960E942C0D88E991E085
S11314600E942C0D8091E6010E94AD09CE01C39625
S11314700E942C0D81E090E00E944F0D8AE991E0DA
S11314800E942C0D8091E4010E94AD09CE01459685
S11314900E942C0D8FE991E00E942C0D8091E301B4
S11314A00E94AD09CE010B960E942C0D8FE991E0AC
S11314B00E942C0D8091E2010E94AD09CE0101969B
S11314C00E942C0DEC960FB6F894DEBF0FBECDBF74
S11314D0DF91CF911F910F91FF90EF90DF90CF900C
S11314E0089584B1846084B9E9E6F0E08081836082
S11314F080838DB381608DBB789408954F925F9201
S11315006F927F928F929F92AF92BF92CF92DF920F
S1131510EF92FF92CF93DF9300D000D0CDB7DEB728
S11315206B017C0149015A0120E030E0A9010E94CD
S11315303912882309F4ADC0A701960160E070E078
S113154080E89FE30E943E1220E030E04AE754E442
S11315500E949D136B017C019B01AC01C501B40188
S11315600E943E120E94B0122B013C0120E030E0A8
S113157040E05FE3C701B6010E949D1369837A834B
S11315808B839C83812C912C540184149504A60490
S1131590B7040CF0B8C020E030E04AE753E46981B6
S11315A07A818B819C810E949D136B017C0120E0D8
S11315B030E040E85FE30E94391288232CF120E0F8
S11315C03FEF4FE757E4C701B6010E94981318167E
S11315D0B4F420E030E040E251E469817A818B8107
S11315E09C810E949D130E94B7126115710589F0B8
S11315F089E190E00197F1F761507109F6CFC701D5
S1131600B6010E94B71202C061E070E0CB010197FD
S1131610F1F785B1846085B920E030E040E85FE30C
S1131620C701B6010E94391288232CF120E03FEF54
S11316304FE757E4C701B6010E9498131816B4F493
S113164020E030E040E251E469817A818B819C8121
S11316500E949D130E94B7126115710589F089E1FA
S113166090E00197F1F761507109F6CFC701B60117
S11316700E94B71202C061E070E0CB010197F1F75C
S113168085B18B7F85B98FEF881A980AA80AB80AA2
S11316907CCF20E030E04AE753E4C501B4010E9466
S11316A09D136B017C0120E030E040E85FE30E9481
S11316B0391288231CF120E03FEF4FE757E4C701BC
S11316C0B6010E9498131816A4F420E030E040E21A
S11316D051E4C501B4010E949D130E94B712611523
S11316E0710589F089E190E00197F1F76150710982
S11316F0F6CFC701B6010E94B71202C061E070E0E4
S1131700CB010197F1F70F900F900F900F90DF919D
S1131710CF91FF90EF90DF90CF90BF90AF909F90CC
S11317208F907F906F905F904F9008951F920F92CB
S11317300FB60F9211248F939F9310921901109258
S1131740180188EA91E60197F1F79F918F910F9024
S11317500FBE0F901F901895009741F081309105AE
S113176041F0029749F485E590E0089581EE90E018
S1131770089588E790E0089588E790E008952F920F
S11317803F924F925F926F927F928F929F92AF920D
S1131790BF92CF92DF92EF92FF920F931F93CF935A
S11317A0DF9300D000D0CDB7DEB71C010E94AC0B94
S11317B0BC01990F880B990B0E94E8129B01AC01A4
S11317C060E07CE782E198E40E943E120E94B0123D
S11317D07A8369831C821B82E12CF12C8B819C818E
S11317E0803991400CF0ADC080911801909119019D
S11317F0019709F0A2C080E293E0289E8001299E0F
S1131800100D389E100D112408591F4FCB80DC8019
S1131810F6013196EE0FFF1FE00FF11F65917491F1
S11318201616170634F489819A810E940A147B01E2
S11318301CC07723BCF489819A810E940A14072E64
S1131840000C880B990B0E94E81220E030E040EC79
S11318505FE30E949D130E94B012EE24FF24E61A57
S1131860F70A03C0672B09F46CC0B7010F2C000CF6
S1131870880B990B0E94E8122B013C0126E636E600
S113188046E65FE30E949D134B015C01F601EE0FF7
S1131890FF1FE00FF11F6591749180E090E00E94BA
S11318A0E612A50194010E947E0A20E030E040E0A7
S11318B05FE3C301B2010E949D132B013C0120E0B0
S11318C030E04AE753E40E949D134B015C0120E0A1
S11318D030E040E85FE30E94391288231CF120E0E5
S11318E03FEF4FE757E4C501B4010E94981318165F
S11318F0A4F420E030E040E251E4C301B2010E94CC
S11319009D130E94B7126115710589F089E190E079
S11319100197F1F761507109F6CFC501B4010E9436
S1131920B71202C061E070E0CB010197F1F78B813F
S11319309C8102969C838B8351CF10921901109243
S113194018010F900F900F900F90DF91CF911F917E
S11319500F91FF90EF90DF90CF90BF90AF909F904A
S11319608F907F906F905F904F903F902F9008954D
S113197095B19F70282F207F922B95B995B19E7FAA
S113198095B995B1926095B9000095B19D7F95B9CF
S113199032E43A95F1F700C025B130E1839FC001EC
S11319A01124922F9F70892B85B985B1826085B9E6
S11319B0000085B18D7F85B983EF91E00197F1F740
S11319C000C00000089595B19F70282F207F922BAE
S11319D095B995B1916095B995B1926095B90000AA
S11319E095B19D7F95B932E43A95F1F700C025B1E0
S11319F030E1839FC0011124922F9F70892B85B9F8
S1131A0085B1826085B9000085B18D7F85B983EF8A
S1131A1091E00197F1F700C0000008958FEF84B9B9
S1131A2087E893E10197F1F700C0000082E00E948B
S1131A30B80C88E20E94B80C8CE00E94B80C86E0D6
S1131A400E94B80C81E00E94B80C83EF91E00197EA
S1131A50F1F700C0000008950F931F93CF93DF9315
S1131A608C01C0E0D0E0F801EC0FFD1F80818823D9
S1131A7021F00E94E30C2196F6CFDF91CF911F91C4
S1131A800F91089581E00E94B80C83EF91E00197D3
S1131A90F1F700C0000080E80E94B80C0895892B7B
S1131AA021F480E80E94B80C089580EC0E94B80CE0
S1131AB0089520912D0230912E02232B91F40E943F
S1131AC02C0D81E090E090932E0280932D022FE95B
S1131AD086E891E0215080409040E1F700C000008A
S1131AE008958DE991E00E942C0D10922E0210921F
S1131AF02D022FE986E891E0215080409040E1F7E3
S1131B0000C000000895EF92FF920F931F93CF93AC
S1131B10DF9300D000D0CDB7DEB78B016AE070E070
S1131B200E940A149B017C014AE0BE016F5F7F4F53
S1131B30C9010E9432144AE0BE016D5F7F4FC701A4
S1131B400E9432140115110541F4CE0101960E9440
S1131B50590DCE0103960E942C0D0130110541F45C
S1131B60CE0101960E942C0DCE0103960E94590DC0
S1131B700F900F900F900F90DF91CF911F910F91C5
S1131B80FF90EF9008950F931F93CF93DF93C82F87
S1131B908B0180E090E00E944F0D80912B02909188
S1131BA02C02892B21F481EA91E00E942C0D21E082
S1131BB090ED9C0F9A3008F020E081E0023011058E
S1131BC009F080E091E040916A0150916B014F3F30
S1131BD05F4F09F490E08223E9F19923D9F180E081
S1131BE090E00E944F0DD0E0E09760916A017091FF
S1131BF06B018AE090E00E9423089C01C29FC0010F
S1131C00C39F900DD29F900D112420912B023091EF
S1131C102C02820F931F90932C0280932B024AE094
S1131C206FE172E00E9432148FE192E00E942C0D69
S1131C3080916A0190916B01019790936B0180935D
S1131C406A013FEF80E792E0315080409040E1F735
S1131C5000C000000330110579F580912B029091AA
S1131C602C020E94400880E090E00E944F0D86EA1A
S1131C7091E00E942C0D81E090E00E944F0D8FE1D5
S1131C8092E00E942C0D10922C0210922B021092C2
S1131C902A021092290283E090E090936B018093D2
S1131CA06A012FE73AE186E0215030408040E1F7B5
S1131CB000C000000E94420DDF91CF911F910F914F
S1131CC008950F931F93CF93DF93EC018B0180E072
S1131CD090E00E944F0D86EB91E00E942C0D61E094
S1131CE070E08DE290E00E94830D9E012053310943
S1131CF081E02A30310508F080E091E002301105DE
S1131D0009F090E0882309F45CC0992309F459C0D0
S1131D10E09780910D0290910E028C0F9D1F90937D
S1131D200E0280930D024AE063E072E00E943214D6
S1131D3083E092E00E942C0D2FEF80E792E0215087
S1131D4080409040E1F700C0000080910F02909124
S1131D501002892BD1F480910D0290910E029C0106
S1131D60220F331F880F991F880F991F880F991FFF
S1131D70820F931F90930E0280930D0281E090E0F6
S1131D809093100280930F021CC0809111029091D5
S1131D901202FC01EE0FFF1FED5EFD4F20910D02BC
S1131DA030910E0231832083019690931202809326
S1131DB0110210920E0210920D0210921002109253
S1131DC00F0281E020911102309112022630310578
S1131DD009F080E0882311F181E00330110509F056
S1131DE080E08823D9F083E192E00E942B091092CD
S1131DF012021092110280E090E00E944F0D88EBD5
S1131E0091E00E942C0D2FE78AE196E0215080405A
S1131E109040E1F700C000000E94420DDF91CF9195
S1131E201F910F9108951F93CF93DF93182FEB0108
S1131E3080E090E00E944F0D81E0C230D10509F0AE
S1131E4080E091E0183309F090E09923A9F0882309
S1131E5099F020910102309102022F5F3F4F30939D
S1131E600202209301022FEF30E792E0215030402C
S1131E709040E1F700C0000091E0123309F090E0D7
S1131E809923A1F0882391F080910102909102029C
S1131E90019790930202809301022FEF30E782E0D2
S1131EA0215030408040E1F700C0000080910102E1
S1131EB090910202059724F01092020210920102FE
S1131EC08091010290910202992334F484E090E01D
S1131ED090930202809301022297F9F480E090E04B
S1131EE00E944F0D80ED91E00E942C0D8091010223
S1131EF09091020265E070E00E940A149C01220F96
S1131F00331F880F991F880F991F880F991F820FFD
S1131F10931F885C9E4F0E942C0DDF91CF911F91DF
S1131F2008950F931F93CF93DF93182FEB0180E055
S1131F3090E00E944F0D81E0C130D10509F080E0AE
S1131F4091E0183309F090E09923A9F0882399F0DF
S1131F502091FF01309100022F5F3F4F3093000228
S1131F602093FF012FEF30E792E021503040904062
S1131F70E1F700C0000091E0123309F090E09923EA
S1131F80A1F0882391F08091FF01909100020197C4
S1131F90909300028093FF012FEF30E782E02150FD
S1131FA030408040E1F700C000008091FF01909133
S1131FB00002039724F0109200021092FF01809116
S1131FC0FF0190910002992334F482E090E0909311
S1131FD000028093FF01C130D105F9F480E090E064
S1131FE00E944F0D80ED91E00E942C0D8091FF0125
S1131FF09091000263E070E00E940A149C01220F99
S1132000331F880F991F880F991F880F991F820FFC
S1132010931F865E9E4F0E942C0D01E0C230D105B5
S11320200CF400E081E02091FF0130910002232BA9
S113203009F080E0882331F0002321F0BE01812FD4
S11320400E94C30D81E02091FF01309100022130F4
S1132050310509F080E0882339F0002329F0BE011E
S1132060812F90E00E94610E81E02091FF01309168
S113207000022230310509F080E0882331F000238A
S113208021F0BE01812F0E94130FDF91CF911F9188
S11320900F9108959DEC899F912D11249695969505
S11320A09695292F220F920F292F220F820F089520
S11320B0282F30E035952795359527953595279523
S11320C035952795922F990F290F922F990F891BD8
S11320D008950E94091183E08A95F1F7000008959C
S11320E0CF92EF92FF920F931F93CF93DF93C82F5A
S11320F0D62F142FF22E80ED0E94351180E00E941D
S113210067118C2D0E944A100E9467118E2D0E9427
S11321104A100E946711802F0E944A100E94671182
S11321208F2D0E944A100E946711812F0E944A102D
S11321300E9467118D2F0E944A100E9467118C2FF4
S11321400E944A100E94671180E00E9467110E9459
S11321505F11DF91CF911F910F91FF90EF90CF907E
S113216008956F927F928F929F92AF92BF92CF9277
S1132170DF92EF92FF920F931F93CF93DF93EC01C3
S11321803B015A01490180ED0E94351180E00E9413
S113219067110E945F1181ED0E945C110E94791108
S11321A08F770E945810F60180830E9479110E9453
S11321B05810F70180830E9479110E945810F80189
S11321C080830E9479110E945810F40180830E9438
S11321D079110E945810F50180830E9479110E94A0
S11321E05810F30180830E9483110E945810888341
S11321F00E945F11DF91CF911F910F91FF90EF909B
S1132200DF90CF90BF90AF909F908F907F906F9012
S113221008951092B9008DEF8093B800089594EA60
S11322209093BC009091BC009923E4F79091B9007D
S1132230987F983011F0903191F48093BB0084E83A
S11322408093BC008091BC008823E4F78091B9009E
S1132250887F883131F0803431F480E0089581E062
S1132260089580E0089581E0089594EA9093BC0075
S11322709091BC009923E4F79091B900987F98302D
S113228011F0903191F78093BB0094E89093BC00D7
S11322909091BC009923E4F79091B900987F903213
S11322A011F0983541F494E99093BC009091BC00EE
S11322B094FDFCCFDACF08950E940F11089584E9AC
S11322C08093BC008091BC0084FDFCCF0895809372
S11322D0BB0084E88093BC008091BC008823E4F7B1
S11322E08091B900887F883211F081E0089580E000
S11322F0089584EC8093BC008091BC008823E4F7AB
S11323008091BB00089584E88093BC008091BC0058
S11323108823E4F78091BB0008958FE087B960E0DB
S113232070E06430710594F581E090E0FB01E159BF
S1132330FE4F008002C0880F991F0A94E2F788B903
S113234080E090E083309105F4F449B150E021E05D
S113235030E0FC01E459FE4F008002C0220F331F1D
S11323600A94E2F74217530761F49B01220F331FCB
S1132370620F731F6D587E4FFB01E80FF91F8081B8
S113238008950196DFCF6F5F7F4FCBCF86E208952C
S1132390CF93DF93CDB7DEB72C970FB6F894DEBF9B
S11323A00FBECDBF0E94710A0E940E0D83ED91E015
S11323B00E942C0D2FE38DE093E02150804090404B
S11323C0E1F700C000000E94420D0E9469108CE0F9
S11323D0EFE7F1E0DE01119601900D928A95E1F7A5
S11323E0CE0101960E942B0900E010E00E947508BE
S11323F00E948D11F82E0115110511F40E94B409E3
S11324002AE2F2120DC08FE798E321E08150904058
S11324102040E1F700C000000F5F1F4F0E94420DF3
S11324201016110624F4B8018F2D0E94910F81E03B
S11324300330110509F080E0811108C081E00F3FED
S11324409FEF190709F080E0882311F000E010E005
S113245023E2F212CBCF8FE798E321E08150904042
S11324602040E1F700C00000015011090E94420D14
S1132470BDCF0E94231308F481E008950E945212F4
S11324800C945E130E94571358F00E94501340F0AE
S113249029F45F3F29F00C94471351110C949213C3
S11324A00C944D130E946F1368F39923B1F35523D1
S11324B091F3951B550BBB27AA2762177307840753
S11324C038F09F5F5F4F220F331F441FAA1FA9F3E9
S11324D035D00E2E3AF0E0E832D091505040E695D7
S11324E0001CCAF72BD0FE2F29D0660F771F881F38
S11324F0BB1F261737074807AB07B0E809F0BB0B2B
S1132500802DBF01FF2793585F4F3AF09E3F51053E
S113251078F00C9447130C9492135F3FE4F3983EC5
S1132520D4F3869577956795B795F7959F5FC9F727
S1132530880F911D9695879597F90895E1E0660FA8
S1132540771F881FBB1F621773078407BA0720F021
S1132550621B730B840BBA0BEE1F88F7E09508958A
S11325600E94B7126894B1110C94921308950E94BA
S1132570771388F09F5798F0B92F9927B751B0F087
S1132580E1F0660F771F881F991F1AF0BA95C9F7F3
S113259014C0B13091F00E949113B1E008950C94ED
S11325A09113672F782F8827B85F39F0B93FCCF3A0
S11325B0869577956795B395D9F73EF49095809570
S11325C0709561957F4F8F4F9F4F0895E89409C090
S11325D097FB3EF490958095709561957F4F8F4F52
S11325E09F4F9923A9F0F92F96E9BB279395F69568
S11325F0879577956795B795F111F8CFFAF4BB0FE6
S113260011F460FF1BC06F5F7F4F8F4F9F4F16C049
S1132610882311F096E911C0772321F09EE8872FD3
S1132620762F05C0662371F096E8862F70E060E08F
S11326302AF09A95660F771F881FDAF7880F969508
S1132640879597F90895990F0008550FAA0BE0E8AC
S1132650FEEF16161706E807F907C0F01216130660
S1132660E407F50798F0621B730B840B950B39F4A0
S11326700A2661F0232B242B252B21F408950A2606
S113268009F4A140A6958FEF811D811D089597F946
S11326909F6780E870E060E008959FEF80EC089504
S11326A000240A941616170618060906089500242D
S11326B00A9412161306140605060895092E0394A7
S11326C0000C11F4882352F0BB0F40F4BF2B11F41B
S11326D060FF04C06F5F7F4F8F4F9F4F089557FD7A
S11326E09058440F551F59F05F3F71F04795880F7C
S11326F097FB991F61F09F3F79F087950895121613
S113270013061406551FF2CF4695F1DF08C01616BE
S113271017061806991FF1CF86957105610508946F
S11327200895E894BB2766277727CB0197F9089586
S11327300E94231308F48FEF08950E94B0130C94A1
S11327405E130E94501338F00E94571320F0952313
S113275011F00C9447130C944D1311240C94921300
S11327600E946F1370F3959FC1F3950F50E0551FAE
S1132770629FF001729FBB27F00DB11D639FAA27D2
S1132780F00DB11DAA1F649F6627B00DA11D661F21
S1132790829F2227B00DA11D621F739FB00DA11D42
S11327A0621F839FA00D611D221F749F3327A00DFC
S11327B0611D231F849F600D211D822F762F6A2F98
S11327C011249F5750409AF0F1F088234AF0EE0FFD
S11327D0FF1FBB1F661F771F881F91505040A9F72A
S11327E09E3F510580F00C9447130C9492135F3F65
S11327F0E4F3983ED4F3869577956795B795F79566
S1132800E7959F5FC1F7FE2B880F911D96958795DD
S113281097F9089597FB072E16F4009407D077FDD7
S113282009D00E941E1407FC05D03EF490958195B2
S11328309F4F0895709561957F4F0895AA1BBB1B08
S113284051E107C0AA1FBB1FA617B70710F0A61BAC
S1132850B70B881F991F5A95A9F780959095BC01CD
S1132860CD010895BB274A3031F4992322F4BDE207
S1132870909581959F4F0C943E14BB27FB015527DF
S1132880AA27880F991FAA1FA41710F0A41B8395C9
S11328905051B9F7A05DAA3308F0A95DA193009740
S11328A079F7B111B1931192CB010C945714DC0157
S11328B0FC01672F71917723E1F7329704C07C9173
S11328C06D9370836291AE17BF07C8F30895F894AF
S10528D0FFCF34
S11328D21F001C001F001E001F001E001F001F00FF
S11328E21E001F001E001F00010053455420414CCE
S11328F241524D005345542054494D4520005345FF
S11329025420544F4E452000474F5420202020206D
S113291220005354415220574152530050494E4BC8
S1132922202020202000544F4E4534202020200017
S1132932544F4E4535202020200003000405060094
S11329420102033132333435363738392A3023150C
S113295200050004000C000800230052494E4721E0
S113296221002020203230002D0020202020003A97
S1132972003030303000414C41524D2049532053F5
S1132982455420544F0032004441544520414E44A2
S11329922054494D452049532053455420544F0057
S11329A23E3E0020202057454C434F4D45212121D6
S10529B200001F
S9030000FC
