:100000000C9404080C9421080C94670C0C9421089F
:100010000C9421080C9421080C9421080C942108BC
:100020000C9421080C9421080C9421080C942108AC
:100030000C9421080C9421080C9421080C9421089C
:100040000C9421080C9421080C9421080C9421088C
:100050000C9421080C9421080C9421080C9421087C
:100060000C9421080C94210852000800520008004A
:10007000A500080052000800520008009300080084
:1000800052000800520008008300080052000800D7
:1000900052000800750008005200080052000800D5
:1000A0007B0008008300080052000800520008008E
:1000B000A500080052000800520008009300080044
:1000C0005200080052000800830008005200080097
:1000D000520008007500FEFF5200080052000800A0
:1000E000A500080052000800520008009300080014
:1000F0005200080052000800830008005200080067
:100100005200080075000800520008005200080064
:100110007B0008008300080052000800520008001D
:10012000A5000800520008005200080093000800D3
:100130005200080052000800830008005200080026
:10014000520008007500FEFF52000800520008002F
:10015000A5000800520008005200080093000800A3
:1001600052000800520008008300080052000800F6
:1001700052000800750008005200080052000800F4
:100180007B000800830008005200080052000800AD
:10019000A500080052000800520008009300080063
:1001A00052000800520008008300080052000800B6
:1001B000520008007500FEFF5200080052000800BF
:1001C000A500080052000800520008009300080033
:1001D0005200080052000800830008005200080086
:1001E0005200080075000800520008005200080084
:1001F0007B0008008300080052000800520008003D
:10020000A5000800520008005200080093000800F2
:100210005200080052000800B900F0FF9300F0FF00
:100220007B00F0FFDC00F0FFB900F0FF7B00F0FF87
:100230009300F0FFB900F0FFDC00F0FFB900F0FF21
:100240009300F0FF7B00F0FF0000000000000000C2
:10025000000000000000000000000000000000009E
:10026000000000000000000000000000000000008E
:10027000000000000000000000000000000000007E
:10028000000000000000000000000000000000006E
:10029000000000000000000000000000000000005E
:1002A000000000000000000000000000000000004E
:1002B000000000000000000000000000000000003E
:1002C000000000000000000000000000000000002E
:1002D000000000000000000000000000000000001E
:1002E000000000000000000000000000000000000E
:1002F00000000000000000000000000000000000FE
:1003000000000000000000000000000000000000ED
:1003100000000000000000000000000000000000DD
:1003200000000000000000000000000000000000CD
:1003300000000000000000000000000000000000BD
:1003400000000000000000000000000000000000AD
:10035000000000000000000000000000000000009D
:10036000000000000000000000000000000000008D
:10037000000000000000000000000000000000007D
:100380000000000000000000B8010400B8010400F3
:10039000B80104005D01F8FF0B021000B801040071
:1003A0005D01F8FF0B021000B80102009302040087
:1003B0009302040093020400BA02F8FF0B0210003B
:1003C000B80104005D01F8FF0B021000B801020043
:1003D00070030400B801F8FFB801100070030400B6
:1003E0003F03F8FF100310006E0210004B021000D4
:1003F0006E02080000000800B80108006E02040048
:100400004B02F8FF2A0210000B021000EE01100050
:100410000B021000000008005D0108009F010400AD
:100420005D01F8FFB801F0FF0B020400B801F8FF0E
:100430000B0210009302020070030400B801F8FFE1
:10044000B8011000700304003F03F8FF1003100010
:100450006E0210004B0210006E020800000008003F
:10046000B80108006E0204004B02F8FF2A021000D7
:100470000B021000EE0110000B021000000008003B
:100480005D0108009F0104005D01F8FFB801F0FF65
:10049000B80104005D01F8FF0B021000B801020072
:1004A000000000000000000000000000000000004C
:1004B000000000000000000000000000000000003C
:1004C000000000000000000000000000000000002C
:1004D000000000000000000000000000000000001C
:1004E000000000000000000000000000000000000C
:1004F00000000000000000000000000000000000FC
:1005000000000000000000000000000000000000EB
:1005100000000000000000000000000000000000DB
:1005200000000000000000000000000000000000CB
:1005300000000000000000000000000000000000BB
:1005400000000000000000000000000000000000AB
:10055000000000000000000000000000000000009B
:10056000000000000000000000000000000000008B
:10057000000000000000000000000000000000007B
:10058000000000000000000000000000000000006B
:10059000000000000000000000000000000000005B
:1005A000000000000000000000000000000000004B
:1005B000000000000000000000000000000000003B
:1005C000000000000000000000000000000000002B
:1005D000000000000000000000000000000000001B
:1005E000000000000000000000000000000000000B
:1005F00000000000000000000000000000000000FB
:1006000000000000000000000000000000000000EA
:1006100000000000000000000000000000000000DA
:1006200000000000000000000000000000000000CA
:1006300000000000000000000000000000000000BA
:1006400000000000000000000000000000000000AA
:10065000000000000000000000000000000000009A
:10066000000000000000000000000000000000008A
:10067000000000000000000000000000000000007A
:10068000000000000000000000000000000000006A
:10069000000000000000000000000000000000005A
:1006A00000000000000000008801080006010800AA
:1006B000370110005D0110008801080006010800E4
:1006C000370110005D0110008801080006010800D4
:1006D000370110005D0110008801080006010800C4
:1006E000370110005D0110008801080006010800B4
:1006F0004A0110005D011000880108000601080091
:100700004A0110005D011000880108000601080080
:100710004A0110005D011000880108000601080070
:100720004A0110005D0110008801FCFF0601FCFF7A
:10073000370110005D01100088010400060104006B
:10074000370110005D0110002601FFFF5D01FCFF75
:10075000E900FCFF37011000260110005D010400D4
:10076000E900FCFF37011000260110000601FFFF21
:100770008801FCFF0601FCFF370110005D0110003D
:100780008801040006010400370110005D0110001B
:100790002601FFFF5D01FCFFE900FCFF37011000AF
:1007A000260110005D010400E900FCFF3701100084
:1007B000260110000601FFFF8801FCFF0601FCFF77
:1007C000370110005D0110008801040006010400DB
:1007D000370110005D0110002601FEFF5D01FCFFE6
:1007E000E900FCFF2601F8FF3701F8FF2601F8FFBA
:1007F000E900F8FF0601FFFF0B02FEFFD201FEFF3A
:100800000601FEFF8801FEFF3701FEFF3701FCFFF6
:100810005D01FCFF8801FFFF0B02FEFFD201FEFF1E
:100820000601FEFF8801FEFF3701FEFF3701FCFFD6
:100830002601FCFF0B020800880108009F01100040
:10084000D20110000B020800880108009F0110006F
:10085000D20110000B020800880108009F0110005F
:10086000D20110000B020800880108009F0110004F
:10087000D2011000000004003F031000A403100088
:1008800017040800100308003F031000A403100021
:1008900017040800100310003F031000A403100009
:1008A00017040800100308003F031000A403100001
:1008B0000000000000000000000000000000000038
:1008C0000000000000000000000000000000000028
:1008D0000000000000000000000000000000000018
:1008E0000000000000000000000000000000000008
:1008F00000000000000000000000000000000000F8
:1009000000000000000000000000000000000000E7
:1009100000000000000000000000000000000000D7
:1009200000000000000000000000000000000000C7
:1009300000000000000000000000000000000000B7
:1009400000000000000000000000000000000000A7
:100950000000000000000000000000000000000097
:100960000000000000000000000000000000000087
:100970000000000000000000000000000000000077
:100980000000000000000000000000000000000067
:100990000000000000000000000000000000000057
:1009A0000000000000000000000000000000000047
:1009B0000000000000000000000000000000000037
:1009C00000000000000000004A01FCFF00000800D9
:1009D000720108008801FCFF0000080037010800D0
:1009E0004A01F8FF720108008801F8FF0B020800B5
:1009F000EE01F8FF4A0108008801F8FFEE01080047
:100A0000D2010200B801F0FF8801F0FF4A01F0FFB7
:100A10002601F0FF4A010200000004000000080067
:100A2000370104004A01FCFF0000080072010800C1
:100A30008801FCFF00000800370108004A01F8FFA8
:100A4000720108008801F8FF0B020800EE01F8FFB0
:100A500088010800EE01F8FF930208006E02010011
:100A60004B020200000004000000080037010800EB
:100A70004A01FCFF00000800720108008801FCFF29
:100A800000000800370108004A01F8FF7201080061
:100A90008801F8FF0B020800EE01F8FF4A01080088
:100AA0008801F8FFEE010800D2010200B801F0FF52
:100AB0008801F0FF4A01F0FF2601F0FF4A01FCFF28
:100AC00000000400000004009302F8FF4B0208003D
:100AD000EE01F8FFB80108008801F8FF4A01F8FFAD
:100AE000D2011000B801F8FFD2011000B801F8FFE0
:100AF000D2011000B801F8FFD2011000B801F8FFD0
:100B00008801F0FF4A01F0FF2601F0FF4A011000C2
:100B10004A0110004A01020000000000000000002D
:100B200000000000000000000000000000000000C5
:100B300000000000000000000000000000000000B5
:100B400000000000000000000000000000000000A5
:100B50000000000000000000000000000000000095
:100B60000000000000000000000000000000000085
:100B70000000000000000000000000000000000075
:100B80000000000000000000000000000000000065
:100B90000000000000000000000000000000000055
:100BA0000000000000000000000000000000000045
:100BB0000000000000000000000000000000000035
:100BC0000000000000000000000000000000000025
:100BD0000000000000000000000000000000000015
:100BE0000000000000000000000000000000000005
:100BF00000000000000000000000000000000000F5
:100C000000000000000000000000000000000000E4
:100C100000000000000000000000000000000000D4
:100C200000000000000000000000000000000000C4
:100C300000000000000000000000000000000000B4
:100C400000000000000000000000000000000000A4
:100C50000000000000000000000000000000000094
:100C60000000000000000000000000000000000084
:100C70000000000000000000000000000000000074
:100C80000000000000000000000000000000000064
:100C90000000000000000000000000000000000054
:100CA0000000000000000000000000000000000044
:100CB0000000000000000000000000000000000034
:100CC0000000000000000000000000000000000024
:100CD0000000000000000000000000000000000014
:100CE00000000000000000000000040000000800F8
:100CF00000000800000008004A010800B8010800D0
:100D00000B020800EE010800B80108000B02080001
:100D1000B8010800EE010800B80108005D010800F4
:100D2000880108004A0102004A010800B8010800D1
:100D30000B020800EE010800B80108000B020800D1
:100D4000B80108000B020800B80108004A010800B9
:100D50003701080026010200260108005D01080095
:100D60009F010800EE010200260108005D01080055
:100D70009F010800B80102000601080006010800F2
:100D8000880108005D0108004A0108008801080088
:100D90005D0108005D0108004A0108004A010800E1
:100DA0009F010800B801020000000800B801080017
:100DB000B80108009F01080088010200EE01080048
:100DC000B80108005D0108004A0102004A0108005C
:100DD000880108004A0108002601020026010800D7
:100DE000260108005D010800370108004A010200E1
:100DF000000008004A010800B80108000B020800C2
:100E0000EE010800B80108000B020800B801080054
:100E1000EE010800B80108005D0108008801080023
:100E20004A0102004A010800B80108000B0208004C
:100E3000EE010800B80108000B020800B801080024
:100E40000B020800B80108004A0108003701080039
:100E500026010200260108005D0108009F0108002C
:100E6000EE010200260108005D0108009F01080054
:100E7000B801020006010800060108008801080008
:100E80005D0108004A010800880108005D010800B2
:100E90005D0108004A0108004A0108009F0108009E
:100EA000B801020000000800B8010800B8010800FD
:100EB0009F01080088010200EE010800B801080047
:100EC0005D0108004A0102004A010800880108008B
:100ED0004A01080026010200260108002601080038
:100EE0005D010800370108004A010200000000000F
:100EF00000000000000000000000000000000000F2
:100F000000000000000000000000000000000000E1
:100F100000000000000000000000000000000000D1
:100F200000000000000000000000000000000000C1
:100F300000000000000000000000000000000000B1
:100F400000000000000000000000000000000000A1
:100F50000000000000000000000000000000000091
:100F60000000000000000000000000000000000081
:100F70000000000000000000000000000000000071
:100F80000000000000000000000000000000000061
:100F90000000000000000000000000000000000051
:100FA0000000000000000000000000000000000041
:100FB0000000000000000000000000000000000031
:100FC0000000000000000000000000000000000021
:100FD0000000000000000000000000000000000011
:100FE0000000000000000000000000000000000001
:100FF00000000000000000000000000000000000F1
:10100000000000000000000011241FBECFEFD8E058
:10101000DEBFCDBF11E0A0E0B1E0ECEAFCE202C02F
:1010200005900D92A83EB107D9F722E0A8EEB1E0F5
:1010300001C01D92A733B207E1F70E94A5130C94DB
:1010400054160C9400009C0181E090E0611571053C
:1010500059F0AC01429FC001439F900D529F900DEB
:10106000112461507109F2CF0895CF93DF93EC0101
:101070000E94130E8BE891E00E94FD0DCE010E94AC
:10108000900CDF91CF910895803629E092078CF47F
:101090002091190230911A02F901EE0FFF1FEB5F48
:1010A000FD4F918380832F5F3F4F30931A0220932F
:1010B00019020895E0911902F0911A02EE0FFF1F34
:1010C000EF50FE4F91838083089520E030E04091FF
:1010D000190250911A022417350714F528173907F9
:1010E000E4F0A9014F5F5F4F440F551FFA01EB5F1A
:1010F000FD4FA081B181B901660F771FFB01EB5F46
:10110000FD4FB183A083FA01EF50FE4F4081518122
:10111000FB01EF50FE4F518340832F5F3F4FD7CFEE
:101120000895CF92DF92EF92FF920F931F93CF9388
:10113000DF938091190290911A02892B09F455C00E
:101140000F2EFAEECF2EF1E0DF2EF02D0F2EFBEE5C
:10115000EF2EF1E0FF2EF02D0CEE11E02DEE31E040
:101160004EEE51E06FEE71E080EF91E00E948E1242
:10117000C0E0D0E08091190290911A028C179D076F
:10118000A4F1FE01EE0FFF1FEB5FFD4F20813181C7
:10119000C90164E670E00E94F7158091EC0190E0CF
:1011A0006817790701F5C90164E670E00E94F71538
:1011B0002091EB0130E082179307A9F4FE01EE0FB6
:1011C000FF1FEF50FE4F808191810E943508CE01B4
:1011D0000E9465088091190290911A0201979093DC
:1011E0001A02809319022196C5CFDF91CF911F91EA
:1011F0000F91FF90EF90DF90CF900895CF93DF9302
:10120000EC0121E030E0E0E0F0E0C217D3076CF041
:10121000C90183709927892B19F4E259FE4F02C046
:10122000E359FE4F2F5F3F4FF0CF20E030E0DB016E
:1012300011972A173B073CF591E0DE01A370BB270D
:10124000AB2B09F090E0992391F091E0213031052A
:1012500009F090E0992359F0D901AA0FBB1FA050C3
:10126000BF4F8D919C91E80FF91F319609C0D901AC
:10127000AA0FBB1FA050BF4F8D919C91E80FF91F83
:101280002F5F3F4FD4CF4E0F5F1FCA01059667E017
:1012900070E00E94F715DF91CF9108956F927F92D1
:1012A0008F929F92AF92BF92CF92DF92EF92FF9276
:1012B0000F931F93CF93DF93EC0188809980AA80CE
:1012C000BB806C807D80A301B501C4010E94FE0833
:1012D0000E811F81E884F984CA84DB849401215043
:1012E0003109C1E02236310508F0C0E021E01A14CE
:1012F0001B040CF020E061E09DE0A916B1040CF0A5
:1013000060E071E0161417040CF070E051E090E218
:10131000691671040CF050E0312F3095331F3327DC
:10132000331F41E0083111050CF040E0AF2DA095CE
:10133000AA1FAA27AA1FB1E09CE3E916F1040CF04A
:10134000B0E09D2D9095E92FEE1FEE27EE1FF1E006
:101350009CE3C916D1040CF0F0E02C236223672330
:101360005623952F932349234A23942F9B239E236F
:1013700041F0FF2331F0282F462D6A2D882D0E9441
:101380004D12DF91CF911F910F91FF90EF90DF9061
:10139000CF90BF90AF909F908F907F906F90089567
:1013A000CF93DF93CDB7DEB72A970FB6F894DEBFA1
:1013B0000FBECDBF4AE0BE016F5F7F4F0E941F1678
:1013C000CE0101960E94FD0D2A960FB6F894DEBF5D
:1013D0000FBECDBFDF91CF9108958A3020F486E90A
:1013E00091E00E94FD0D0895CF92DF92EF92FF925F
:1013F0000F931F930F2EFAEECF2EF1E0DF2EF02D7C
:101400000F2EFBEEEF2EF1E0FF2EF02D0CEE11E093
:101410002DEE31E04EEE51E06FEE71E080EF91E0A5
:101420000E948E1280E090E00E94200E82E991E0FE
:101430000E94FD0D8091F0010E94ED098091F00164
:1014400090E00E94D00988E991E00E94FD0D809112
:10145000EF010E94ED098091EF0190E00E94D00918
:1014600088E991E00E94FD0D8091EE010E94ED0956
:101470008091EE0190E00E94D00981E090E00E940E
:10148000200E8AE991E00E94FD0D8091EC010E94FE
:10149000ED098091EC0190E00E94D0098FE991E084
:1014A0000E94FD0D8091EB010E94ED098091EB01FE
:1014B00090E00E94D0098FE991E00E94FD0D80919B
:1014C000EA010E94ED098091EA0190E00E94D009B2
:1014D0001F910F91FF90EF90DF90CF9008951F9391
:1014E000CF93DF93182FEB0180E090E00E94200E55
:1014F00081E0C230D10509F080E091E0183309F0B5
:1015000090E09923A9F0882399F02091E801309187
:10151000E9012F5F3F4F3093E9012093E8012FEB62
:1015200034ED91E0215030409040E1F700C00000E0
:1015300091E0123309F090E09923A1F0882391F013
:101540008091E8019091E90101979093E9018093DE
:10155000E8012FEB34ED81E0215030408040E1F78D
:1015600000C000002091E8013091E901809119024A
:1015700090911A022817390724F01092E90110926D
:10158000E8012091E8013091E90133232CF401971F
:101590009093E9018093E801229709F06FC080E001
:1015A00090E00E94200E8091190290911A02892BDE
:1015B00029F481EA91E00E94FD0D60C08BEA91E080
:1015C0000E94FD0DE091E801F091E901EE0FFF1F8F
:1015D000EB5FFD4F80819181C4E6D0E0BE010E94A7
:1015E000F715CB010E94D0098FE991E00E94FD0D13
:1015F000E091E801F091E901EE0FFF1FEB5FFD4F75
:1016000080819181BE010E94F7150E94D00981E07E
:1016100090E00E94200E8091E8019091E9010196EE
:101620006091190270911A020E94F715FC01EE0FE9
:10163000FF1FEB5FFD4F80819181BE010E94F71576
:10164000CB010E94D0098FE991E00E94FD0D8091AD
:10165000E8019091E90101966091190270911A02D6
:101660000E94F715FC01EE0FFF1FEB5FFD4F80811D
:101670009181BE010E94F7150E94D009DF91CF91A0
:101680001F9108958AB184608AB9E9E6F0E080810B
:101690008C6080838DB382608DBB789408954F9267
:1016A0005F926F927F928F929F92AF92BF92CF92F2
:1016B000DF92EF92FF92CF93DF9300D000D0CDB7AF
:1016C000DEB76B017C0149015A0120E030E0A9013D
:1016D0000E942614882309F4ADC0A701960160E09A
:1016E00070E080E89FE30E942B1420E030E04AE79E
:1016F00054E40E948A156B017C019B01AC01C50179
:10170000B4010E942B140E949D142B013C0120E087
:1017100030E040E05FE3C701B6010E948A156983AB
:101720007A838B839C83812C912C5401841495049F
:10173000A604B7040CF0B8C020E030E04AE753E458
:1017400069817A818B819C810E948A156B017C0161
:1017500020E030E040E85FE30E94261488232CF16B
:1017600020E03FEF4FE757E4C701B6010E9485151F
:101770001816B4F420E030E040E251E469817A8147
:101780008B819C810E948A150E94A41461157105A9
:1017900089F089E190E00197F1F761507109F6CF86
:1017A000C701B6010E94A41402C061E070E0CB0141
:1017B0000197F1F78BB184608BB920E030E040E80D
:1017C0005FE3C701B6010E94261488232CF120E0B4
:1017D0003FEF4FE757E4C701B6010E948515181681
:1017E000B4F420E030E040E251E469817A818B81F9
:1017F0009C810E948A150E94A4146115710589F0CC
:1018000089E190E00197F1F761507109F6CFC701C6
:10181000B6010E94A41402C061E070E0CB01019700
:10182000F1F78BB18B7F8BB98FEF881A980AA80AD2
:10183000B80A7CCF20E030E04AE753E4C501B401A8
:101840000E948A156B017C0120E030E040E85FE3F4
:101850000E94261488231CF120E03FEF4FE757E455
:10186000C701B6010E9485151816A4F420E030E0E7
:1018700040E251E4C501B4010E948A150E94A414FB
:101880006115710589F089E190E00197F1F76150E8
:101890007109F6CFC701B6010E94A41402C061E02D
:1018A00070E0CB010197F1F70F900F900F900F9020
:1018B000DF91CF91FF90EF90DF90CF90BF90AF90EE
:1018C0009F908F907F906F905F904F9008951F92A0
:1018D0000F920FB60F9211248F939F9310921901BC
:1018E0001092180188EA91E60197F1F79F918F9184
:1018F0000F900FBE0F901F901895009741F0813008
:10190000910541F0029749F485E590E0089581EE54
:1019100090E0089588E790E0089588E790E00895C2
:101920002F923F924F925F926F927F928F929F92EF
:10193000AF92BF92CF92DF92EF92FF920F931F93DD
:10194000CF93DF9300D000D0CDB7DEB71C010E944B
:101950007D0CBC01990F880B990B0E94D5149B013B
:10196000AC0160E07CE782E198E40E942B140E94C5
:101970009D147A8369831C821B82E12CF12C8B815C
:101980009C81803991400CF0ADC0809118019091FC
:101990001901019709F0A2C080E293E0289E80011E
:1019A000299E100D389E100D112408591F4FCB8011
:1019B000DC80F6013196EE0FFF1FE00FF11F6591FD
:1019C00074911616170634F489819A810E94F715CE
:1019D0007B011CC07723BCF489819A810E94F71592
:1019E000072E000C880B990B0E94D51420E030E0E4
:1019F00040EC5FE30E948A150E949D14EE24FF24B0
:101A0000E61AF70A03C0672B09F46CC0B7010F2C64
:101A1000000C880B990B0E94D5142B013C0126E683
:101A200036E646E65FE30E948A154B015C01F6014B
:101A3000EE0FFF1FE00FF11F6591749180E090E0C1
:101A40000E94D314A50194010E944F0B20E030E0C6
:101A500040E05FE3C301B2010E948A152B013C0103
:101A600020E030E04AE753E40E948A154B015C0114
:101A700020E030E040E85FE30E94261488231CF158
:101A800020E03FEF4FE757E4C501B4010E94851500
:101A90001816A4F420E030E040E251E4C301B201A2
:101AA0000E948A150E94A4146115710589F089E1CC
:101AB00090E00197F1F761507109F6CFC501B401CB
:101AC0000E94A41402C061E070E0CB010197F1F71D
:101AD0008B819C8102969C838B8351CF109219013C
:101AE000109218010F900F900F900F90DF91CF91EF
:101AF0001F910F91FF90EF90DF90CF90BF90AF902C
:101B00009F908F907F906F905F904F903F902F901D
:101B100008959BB19F70282F207F922B9BB99BB17A
:101B20009E7F9BB99BB192609BB900009BB19D7F4A
:101B30009BB932E43A95F1F700C02BB130E1839FB5
:101B4000C0011124922F9F70892B8BB98BB18260B9
:101B50008BB900008BB18D7F8BB983EF91E001973A
:101B6000F1F700C0000008959BB19F70282F207FDF
:101B7000922B9BB99BB191609BB99BB192609BB931
:101B800000009BB19D7F9BB932E43A95F1F700C00C
:101B90002BB130E1839FC0011124922F9F70892BBC
:101BA0008BB98BB182608BB900008BB18D7F8BB903
:101BB00083EF91E00197F1F700C0000008958FEFE7
:101BC0008AB987E893E10197F1F700C0000082E04D
:101BD0000E94890D88E20E94890D8CE00E94890D87
:101BE00086E00E94890D81E00E94890D83EF91E0DB
:101BF0000197F1F700C0000008950F931F93CF9352
:101C0000DF938C01C0E0D0E0F801EC0FFD1F808174
:101C1000882321F00E94B40D2196F6CFDF91CF9159
:101C20001F910F91089581E00E94890D83EF91E04B
:101C30000197F1F700C0000080E80E94890D089527
:101C4000892B21F480E80E94890D089580EC0E9480
:101C5000890D08952091350230913602232B79F4B5
:101C60000E94FD0D81E090E0909336028093350252
:101C700087EA91E60197F1F700C0000008958DE929
:101C800091E00E94FD0D109236021092350287EA13
:101C900091E60197F1F700C000000895EF92FF92DE
:101CA0000F931F93CF93DF9300D000D0CDB7DEB753
:101CB0008B016AE070E00E94F7159B017C014AE00D
:101CC000BE016F5F7F4FC9010E941F164AE0BE012F
:101CD0006D5F7F4FC7010E941F160115110549F462
:101CE000CE0101960E942A0ECE0103960E94FD0DA0
:101CF00014C00130110549F4CE0101960E94FD0D7A
:101D0000CE0103960E942A0E08C0CE0101960E94C1
:101D1000FD0DCE0103960E94FD0D0F900F900F90C8
:101D20000F90DF91CF911F910F91FF90EF90089549
:101D3000EF92FF920F931F93CF93DF938C017B0160
:101D400080E090E00E94200E82E991E00E94FD0D6B
:101D5000C0E0D0E0C630D105F4F5C330D10541F480
:101D600081E090E00E94200E8AE991E00E94FD0D42
:101D700081E0C330D10509F480E0882351F081E08F
:101D8000209709F480E0882321F08FE991E00E94F8
:101D9000FD0D8091230290912402C817D90771F498
:101DA000FE01EE0FFF1FEB5DFD4F60912102709170
:101DB0002202808191810E944E0E0BC0FE01EE0F27
:101DC000FF1FEB5DFD4F63E070E0808191810E9419
:101DD0004E0E2196BFCF21E0C801C0970A9708F0A8
:101DE00020E081E092E0E916F10409F080E022238E
:101DF00009F45EC0882309F45BC000531109809187
:101E00001F0290912002080F191F109320020093C7
:101E10001F022FEB84ED91E0215080409040E1F7CC
:101E200000C000008091210290912202892B21F5AF
:101E300020911F0230912002C901880F991F220FA3
:101E4000331F220F331F220F331F820F931F9093D4
:101E5000200280931F0221E030E030932202209381
:101E60002102E0912302F0912402EE0FFF1FEB5DAF
:101E7000FD4F918380831CC08091230290912402A6
:101E8000FC01EE0FFF1FEB5DFD4F20911F02309113
:101E900020023183208301969093240280932302B1
:101EA0001092200210921F02109222021092210220
:101EB00081E020912302309124022630310509F07F
:101EC00080E0882329F181E023E0E216F10409F0A3
:101ED00080E08823E9F085E292E00E944E091092AA
:101EE00024021092230280E090E00E94200E0E94C3
:101EF000130E8EEA91E00E94FD0D8FE79AE126E035
:101F0000815090402040E1F700C000000E94130E75
:101F1000DF91CF911F910F91FF90EF9008951F9344
:101F2000CF93DF93182FEB0180E090E00E94200E0A
:101F300081E0C230D10509F080E091E0183309F06A
:101F400090E09923A9F0882399F020911D02309107
:101F50001E022F5F3F4F30931E0220931D022FEB76
:101F600034ED91E0215030409040E1F700C0000096
:101F700091E0123309F090E09923A1F0882391F0C9
:101F800080911D0290911E02019790931E028093F2
:101F90001D022FEB34ED81E0215030408040E1F70D
:101FA00000C0000080911D0290911E02059724F050
:101FB00010921E0210921D0280911D0290911E022D
:101FC000992334F484E090E090931E0280931D02E4
:101FD000C230D105F9F480E090E00E94200E8BEA37
:101FE00091E00E94FD0D80911D0290911E0265E01E
:101FF00070E00E94F7159C01220F331F880F991F74
:10200000880F991F880F991F820F931F885C9E4F1E
:102010000E94FD0D239731F480911D0290911E02C4
:102020000E945A08DF91CF911F910895EF92FF927D
:102030001F93CF93DF93182FEB0180916A0190914A
:102040006B01019691F180E090E00E94200E80915A
:102050006A0190916B0123E030E0281B390B8091DD
:102060003302909134020F2EF4E6EF2EF12CF02D76
:10207000B7010E94F715CB01B9010E944E0E8FE9FE
:1020800091E00E94FD0D80916A0190916B0121E029
:1020900030E0281B390B8091330290913402B70154
:1020A0000E94F715B9010E944E0E21E090ED910FAC
:1020B0009A3008F020E081E0C230D10509F080E0DC
:1020C00060916A0170916B0191E06F3F3FEF730780
:1020D00009F490E0822309F477C0992309F474C0CD
:1020E000E12EF12C80E3E81AF1088AE090E00E94EA
:1020F00023089C01E29EC001E39E900DF29E900D8C
:1021000011242091330230913402820F931F909357
:1021100034028093330280916A0190916B010197A0
:1021200090936B0180936A013FEB84ED91E0315015
:1021300080409040E1F700C0000080916A019091DA
:102140006B01019609F040C080E090E00E94200EF3
:1021500080913302909134020F2EF4E6EF2EF12C91
:10216000F02DB7010E94F715CB0163E070E00E94EB
:102170004E0E8FE991E00E94FD0D80913302909107
:102180003402B7010E94F71563E070E00E944E0E22
:102190003FE38DE093E0315080409040E1F700C094
:1021A000000080E090E00E94200E8AEB91E00E9407
:1021B000FD0D2FE73AE186E0215030408040E1F705
:1021C00000C000000E94130E80916A0190916B0183
:1021D000019621F4BE01812F0E948F0F239709F0F1
:1021E00048C080913302909134020E94440880E0FC
:1021F00090E00E94200E8AEC91E00E94FD0D81E0AB
:1022000090E00E94200E8091330290913402C4E647
:10221000D0E0BE010E94F715CB0163E070E00E94A0
:102220004E0E8FE991E00E94FD0D80913302909156
:102230003402BE010E94F71563E070E00E944E0E6A
:102240001092340210923302109232021092310234
:1022500083E090E090936B0180936A013FE78AE10D
:1022600096E0315080409040E1F700C000000E94AD
:10227000130EDF91CF911F91FF90EF900895109270
:102280001E0210921D02E5E2F2E01182108213821A
:102290001282158214821782168211861086138686
:1022A000128610922402109223021092220210929F
:1022B00021021092200210921F02109234021092FA
:1022C0003302109232021092310283E090E0909338
:1022D0006B0180936A0108950F931F93CF93DF934F
:1022E000182FEB0180E090E00E94200E81E0C130C9
:1022F000D10509F080E091E0183309F090E09923CE
:10230000A9F0882399F020911B0230911C022F5FC5
:102310003F4F30931C0220931B022FEB34ED91E0D2
:10232000215030409040E1F700C0000091E01233AE
:1023300009F090E09923A1F0882391F080911B028D
:1023400090911C02019790931C0280931B022FEB2B
:1023500034ED81E0215030408040E1F700C00000C2
:1023600080911B0290911C02039724F010921C0292
:1023700010921B0280911B0290911C02992334F44D
:1023800082E090E090931C0280931B02C130D10543
:1023900009F580E090E00E94200E8BEA91E00E9417
:1023A000FD0D80911B0290911C0263E070E00E9481
:1023B000F7159C01220F331F880F991F880F991F53
:1023C000880F991F820F931F865E9E4F0E94FD0DFE
:1023D0000E943F1101E0C230D1050CF400E081E021
:1023E00020911B0230911C02232B09F080E08823EE
:1023F00031F0002321F0BE01812F0E94161081E0F0
:1024000020911B0230911C022130310509F080E03F
:10241000882339F0002329F0BE01812F90E00E942B
:10242000980E81E020911B0230911C022230310570
:1024300009F080E0882331F0002321F0BE01812FD4
:102440000E946F0ADF91CF911F910F9108959DEC2B
:10245000899F912D1124969596959695292F220F57
:10246000920F292F220F820F0895282F30E03595E3
:102470002795359527953595279535952795922F4D
:10248000990F290F922F990F891B08950E94E61228
:1024900083E08A95F1F700000895CF92EF92FF92C2
:1024A0000F931F93CF93DF93C82FD62F142FF22EA5
:1024B00080ED0E94121380E00E9444138C2D0E9434
:1024C00027120E9444138E2D0E9427120E9444134B
:1024D000802F0E9427120E9444138F2D0E942712E2
:1024E0000E944413812F0E9427120E9444138D2FB3
:1024F0000E9427120E9444138C2F0E9427120E94D0
:10250000441380E00E9444130E943C13DF91CF915A
:102510001F910F91FF90EF90CF9008956F927F924F
:102520008F929F92AF92BF92CF92DF92EF92FF92E3
:102530000F931F93CF93DF93EC013B015A014901A5
:1025400080ED0E94121380E00E9444130E943C130D
:1025500081ED0E9439130E9456138F770E94351225
:10256000F60180830E9456130E943512F701808382
:102570000E9456130E943512F80180830E94561360
:102580000E943512F40180830E9456130E94351276
:10259000F50180830E9456130E943512F301808357
:1025A0000E9460130E94351288830E943C13DF91C1
:1025B000CF911F910F91FF90EF90DF90CF90BF9040
:1025C000AF909F908F907F906F9008951092B90078
:1025D0008DEF8093B800089594EA9093BC00909199
:1025E000BC009923E4F79091B900987F983011F0DE
:1025F000903191F48093BB0084E88093BC0080917B
:10260000BC008823E4F78091B900887F883131F0DD
:10261000803431F480E0089581E0089580E00895E9
:1026200081E0089594EA9093BC009091BC009923B6
:10263000E4F79091B900987F983011F0903191F7BC
:102640008093BB0094E89093BC009091BC009923C8
:10265000E4F79091B900987F903211F0983541F4E9
:1026600094E99093BC009091BC0094FDFCCFDACF2C
:1026700008950E94EC12089584E98093BC00809133
:10268000BC0084FDFCCF08958093BB0084E8809358
:10269000BC008091BC008823E4F78091B900887F5A
:1026A000883211F081E0089580E0089584EC8093F1
:1026B000BC008091BC008823E4F78091BB000895A2
:1026C00084E88093BC008091BC008823E4F780916B
:1026D000BB0008958FE087B960E070E06430710559
:1026E00094F581E090E0FB01E159FE4F008002C0CB
:1026F000880F991F0A94E2F788B980E090E0833050
:102700009105F4F443B150E021E030E0FC01E459DC
:10271000FE4F008002C0220F331F0A94E2F74217D7
:10272000530761F49B01220F331F620F731F6D5813
:102730007E4FFB01E80FF91F808108950196DFCFDE
:102740006F5F7F4FCBCF86E20895CF93DF93CDB7F6
:10275000DEB72C970FB6F894DEBF0FBECDBF0E9438
:10276000420B0E94DF0D8AED91E00E94FD0D2FE3E8
:102770008DE093E0215080409040E1F700C00000E0
:102780000E94130E0E9446128CE0EFE7F1E0DE019A
:10279000119601900D928A95E1F7CE0101960E9463
:1027A0004E0986EC94E00E94440881ED94E00E947A
:1027B00044088CED94E00E94440887EE94E00E9467
:1027C000440800E010E00E9491080E946A13F82E6D
:1027D0000115110511F40E94F4092AE2F2120DC04C
:1027E0008FEB94ED21E0815090402040E1F700C054
:1027F00000000F5F1F4F0E94130E1016110624F4E5
:10280000B8018F2D0E946C1181E00330110509F091
:1028100080E0811108C081E00F3F9FEF190709F0A8
:1028200080E0882311F000E010E023E2F212CBCF29
:102830008FEB94ED21E0815090402040E1F700C003
:102840000000015011090E94130EBDCF0E94101507
:1028500008F481E008950E943F140C944B150E94E7
:10286000441558F00E943D1540F029F45F3F29F0CF
:102870000C94341551110C947F150C943A150E9448
:102880005C1568F39923B1F3552391F3951B550B10
:10289000BB27AA2762177307840738F09F5F5F4F33
:1028A000220F331F441FAA1FA9F335D00E2E3AF072
:1028B000E0E832D091505040E695001CCAF72BD08A
:1028C000FE2F29D0660F771F881FBB1F26173707DB
:1028D0004807AB07B0E809F0BB0B802DBF01FF270D
:1028E00093585F4F3AF09E3F510578F00C943415A1
:1028F0000C947F155F3FE4F3983ED4F3869577956B
:102900006795B795F7959F5FC9F7880F911D9695C5
:10291000879597F90895E1E0660F771F881FBB1F21
:10292000621773078407BA0720F0621B730B840BCE
:10293000BA0BEE1F88F7E09508950E94A4146894DE
:10294000B1110C947F1508950E94641588F09F576B
:1029500098F0B92F9927B751B0F0E1F0660F771FC3
:10296000881F991F1AF0BA95C9F714C0B13091F0B9
:102970000E947E15B1E008950C947E15672F782F84
:102980008827B85F39F0B93FCCF38695779567957E
:10299000B395D9F73EF490958095709561957F4FEA
:1029A0008F4F9F4F0895E89409C097FB3EF4909590
:1029B0008095709561957F4F8F4F9F4F9923A9F018
:1029C000F92F96E9BB279395F695879577956795A7
:1029D000B795F111F8CFFAF4BB0F11F460FF1BC0EB
:1029E0006F5F7F4F8F4F9F4F16C0882311F096E97E
:1029F00011C0772321F09EE8872F762F05C066232C
:102A000071F096E8862F70E060E02AF09A95660FE4
:102A1000771F881FDAF7880F9695879597F908959D
:102A2000990F0008550FAA0BE0E8FEEF16161706DF
:102A3000E807F907C0F012161306E407F50798F047
:102A4000621B730B840B950B39F40A2661F0232B60
:102A5000242B252B21F408950A2609F4A140A695DC
:102A60008FEF811D811D089597F99F6780E870E0C1
:102A700060E008959FEF80EC089500240A941616F4
:102A8000170618060906089500240A94121613065C
:102A9000140605060895092E0394000C11F48823EA
:102AA00052F0BB0F40F4BF2B11F460FF04C06F5F06
:102AB0007F4F8F4F9F4F089557FD9058440F551FDC
:102AC00059F05F3F71F04795880F97FB991F61F0B0
:102AD0009F3F79F087950895121613061406551F27
:102AE000F2CF4695F1DF08C0161617061806991F93
:102AF000F1CF86957105610508940895E894BB2788
:102B000066277727CB0197F908950E94101508F4DE
:102B10008FEF08950E949D150C944B150E943D1552
:102B200038F00E94441520F0952311F00C943415D0
:102B30000C943A1511240C947F150E945C1570F3C7
:102B4000959FC1F3950F50E0551F629FF001729F52
:102B5000BB27F00DB11D639FAA27F00DB11DAA1F61
:102B6000649F6627B00DA11D661F829F2227B00DAE
:102B7000A11D621F739FB00DA11D621F839FA00D39
:102B8000611D221F749F3327A00D611D231F849F89
:102B9000600D211D822F762F6A2F11249F575040E0
:102BA0009AF0F1F088234AF0EE0FFF1FBB1F661F5B
:102BB000771F881F91505040A9F79E3F510580F024
:102BC0000C9434150C947F155F3FE4F3983ED4F3D6
:102BD000869577956795B795F795E7959F5FC1F7C8
:102BE000FE2B880F911D9695879597F9089597FB71
:102BF000072E16F4009407D077FD09D00E940B161B
:102C000007FC05D03EF4909581959F4F08957095EF
:102C100061957F4F0895AA1BBB1B51E107C0AA1FF6
:102C2000BB1FA617B70710F0A61BB70B881F991F6D
:102C30005A95A9F780959095BC01CD010895BB27C1
:102C40004A3031F4992322F4BDE2909581959F4F4B
:102C50000C942B16BB27FB015527AA27880F991F19
:102C6000AA1FA41710F0A41B83955051B9F7A05DBB
:102C7000AA3308F0A95DA193009779F7B111B19338
:102C80001192CB010C944416DC01FC01672F719169
:102C90007723E1F7329704C07C916D937083629142
:0C2CA000AE17BF07C8F30895F894FFCFEB
:102CAC001F001C001F001E001F001E001F001F0025
:102CBC001E001F001E001F00010053455420414CF4
:102CCC0041524D005345542054494D452000414C30
:102CDC0041524D5320202000444F4F4D20202020A6
:102CEC00200053544152205741525300474F542017
:102CFC0020202020200050414E54484552202000D6
:102D0C00474F44464154484552000300000102001D
:102D1C000102033132333435363738392A30231532
:102D2C0000050004000C000800230052494E472106
:102D3C0021002020203230002D0020202020003ABD
:102D4C00004E4F20414C41524D53003E3E0020203E
:102D5C0020202020444F4E45210053454C454354E0
:102D6C002054484520544F4E4500414C41524D2073
:102D7C0049532053455420544F0020202057454C94
:082D8C00434F4D4521212100B8
:00000001FF
