:100000000C9404080C9421080C94200E0C942108E4
:100010000C9421080C9421080C9421080C942108BC
:100020000C9421080C9421080C9421080C942108AC
:100030000C9421080C9421080C9421080C9421089C
:100040000C9421080C9421080C9421080C9421088C
:100050000C9421080C9421080C9421080C9421087C
:100060000C9421080C94210852000800520008004A
:10007000A500080052000800520008009300080084
:1000800052000800520008008300080052000800D7
:1000900052000800750008005200080052000800D5
:1000A0007B0008008300080052000800520008008E
:1000B000A500080052000800520008009300080044
:1000C0005200080052000800830008005200080097
:1000D000520008007500FEFF5200080052000800A0
:1000E000A500080052000800520008009300080014
:1000F0005200080052000800830008005200080067
:100100005200080075000800520008005200080064
:100110007B0008008300080052000800520008001D
:10012000A5000800520008005200080093000800D3
:100130005200080052000800830008005200080026
:10014000520008007500FEFF52000800520008002F
:10015000A5000800520008005200080093000800A3
:1001600052000800520008008300080052000800F6
:1001700052000800750008005200080052000800F4
:100180007B000800830008005200080052000800AD
:10019000A500080052000800520008009300080063
:1001A00052000800520008008300080052000800B6
:1001B000520008007500FEFF5200080052000800BF
:1001C000A500080052000800520008009300080033
:1001D0005200080052000800830008005200080086
:1001E0005200080075000800520008005200080084
:1001F0007B0008008300080052000800520008003D
:10020000A5000800520008005200080093000800F2
:100210005200080052000800B900F0FF9300F0FF00
:100220007B00F0FFDC00F0FFB900F0FF7B00F0FF87
:100230009300F0FFB900F0FFDC00F0FFB900F0FF21
:100240009300F0FF7B00F0FF0000000000000000C2
:10025000000000000000000000000000000000009E
:10026000000000000000000000000000000000008E
:10027000000000000000000000000000000000007E
:10028000000000000000000000000000000000006E
:10029000000000000000000000000000000000005E
:1002A000000000000000000000000000000000004E
:1002B000000000000000000000000000000000003E
:1002C000000000000000000000000000000000002E
:1002D000000000000000000000000000000000001E
:1002E000000000000000000000000000000000000E
:1002F00000000000000000000000000000000000FE
:1003000000000000000000000000000000000000ED
:1003100000000000000000000000000000000000DD
:1003200000000000000000000000000000000000CD
:1003300000000000000000000000000000000000BD
:1003400000000000000000000000000000000000AD
:10035000000000000000000000000000000000009D
:10036000000000000000000000000000000000008D
:10037000000000000000000000000000000000007D
:100380000000000000000000B8010400B8010400F3
:10039000B80104005D01F8FF0B021000B801040071
:1003A0005D01F8FF0B021000B80102009302040087
:1003B0009302040093020400BA02F8FF0B0210003B
:1003C000B80104005D01F8FF0B021000B801020043
:1003D00070030400B801F8FFB801100070030400B6
:1003E0003F03F8FF100310006E0210004B021000D4
:1003F0006E02080000000800B80108006E02040048
:100400004B02F8FF2A0210000B021000EE01100050
:100410000B021000000008005D0108009F010400AD
:100420005D01F8FFB801F0FF0B020400B801F8FF0E
:100430000B0210009302020070030400B801F8FFE1
:10044000B8011000700304003F03F8FF1003100010
:100450006E0210004B0210006E020800000008003F
:10046000B80108006E0204004B02F8FF2A021000D7
:100470000B021000EE0110000B021000000008003B
:100480005D0108009F0104005D01F8FFB801F0FF65
:10049000B80104005D01F8FF0B021000B801020072
:1004A000000000000000000000000000000000004C
:1004B000000000000000000000000000000000003C
:1004C000000000000000000000000000000000002C
:1004D000000000000000000000000000000000001C
:1004E000000000000000000000000000000000000C
:1004F00000000000000000000000000000000000FC
:1005000000000000000000000000000000000000EB
:1005100000000000000000000000000000000000DB
:1005200000000000000000000000000000000000CB
:1005300000000000000000000000000000000000BB
:1005400000000000000000000000000000000000AB
:10055000000000000000000000000000000000009B
:10056000000000000000000000000000000000008B
:10057000000000000000000000000000000000007B
:10058000000000000000000000000000000000006B
:10059000000000000000000000000000000000005B
:1005A000000000000000000000000000000000004B
:1005B000000000000000000000000000000000003B
:1005C000000000000000000000000000000000002B
:1005D000000000000000000000000000000000001B
:1005E000000000000000000000000000000000000B
:1005F00000000000000000000000000000000000FB
:1006000000000000000000000000000000000000EA
:1006100000000000000000000000000000000000DA
:1006200000000000000000000000000000000000CA
:1006300000000000000000000000000000000000BA
:1006400000000000000000000000000000000000AA
:10065000000000000000000000000000000000009A
:10066000000000000000000000000000000000008A
:10067000000000000000000000000000000000007A
:10068000000000000000000000000000000000006A
:10069000000000000000000000000000000000005A
:1006A00000000000000000008801080006010800AA
:1006B000370110005D0110008801080006010800E4
:1006C000370110005D0110008801080006010800D4
:1006D000370110005D0110008801080006010800C4
:1006E000370110005D0110008801080006010800B4
:1006F0004A0110005D011000880108000601080091
:100700004A0110005D011000880108000601080080
:100710004A0110005D011000880108000601080070
:100720004A0110005D0110008801FCFF0601FCFF7A
:10073000370110005D01100088010400060104006B
:10074000370110005D0110002601FFFF5D01FCFF75
:10075000E900FCFF37011000260110005D010400D4
:10076000E900FCFF37011000260110000601FFFF21
:100770008801FCFF0601FCFF370110005D0110003D
:100780008801040006010400370110005D0110001B
:100790002601FFFF5D01FCFFE900FCFF37011000AF
:1007A000260110005D010400E900FCFF3701100084
:1007B000260110000601FFFF8801FCFF0601FCFF77
:1007C000370110005D0110008801040006010400DB
:1007D000370110005D0110002601FEFF5D01FCFFE6
:1007E000E900FCFF2601F8FF3701F8FF2601F8FFBA
:1007F000E900F8FF0601FFFF0B02FEFFD201FEFF3A
:100800000601FEFF8801FEFF3701FEFF3701FCFFF6
:100810005D01FCFF8801FFFF0B02FEFFD201FEFF1E
:100820000601FEFF8801FEFF3701FEFF3701FCFFD6
:100830002601FCFF0B020800880108009F01100040
:10084000D20110000B020800880108009F0110006F
:10085000D20110000B020800880108009F0110005F
:10086000D20110000B020800880108009F0110004F
:10087000D2011000000004003F031000A403100088
:1008800017040800100308003F031000A403100021
:1008900017040800100310003F031000A403100009
:1008A00017040800100308003F031000A403100001
:1008B0000000000000000000000000000000000038
:1008C0000000000000000000000000000000000028
:1008D0000000000000000000000000000000000018
:1008E0000000000000000000000000000000000008
:1008F00000000000000000000000000000000000F8
:1009000000000000000000000000000000000000E7
:1009100000000000000000000000000000000000D7
:1009200000000000000000000000000000000000C7
:1009300000000000000000000000000000000000B7
:1009400000000000000000000000000000000000A7
:100950000000000000000000000000000000000097
:100960000000000000000000000000000000000087
:100970000000000000000000000000000000000077
:100980000000000000000000000000000000000067
:100990000000000000000000000000000000000057
:1009A0000000000000000000000000000000000047
:1009B0000000000000000000000000000000000037
:1009C00000000000000000004A01FCFF00000800D9
:1009D000720108008801FCFF0000080037010800D0
:1009E0004A01F8FF720108008801F8FF0B020800B5
:1009F000EE01F8FF4A0108008801F8FFEE01080047
:100A0000D2010200B801F0FF8801F0FF4A01F0FFB7
:100A10002601F0FF4A010200000004000000080067
:100A2000370104004A01FCFF0000080072010800C1
:100A30008801FCFF00000800370108004A01F8FFA8
:100A4000720108008801F8FF0B020800EE01F8FFB0
:100A500088010800EE01F8FF930208006E02010011
:100A60004B020200000004000000080037010800EB
:100A70004A01FCFF00000800720108008801FCFF29
:100A800000000800370108004A01F8FF7201080061
:100A90008801F8FF0B020800EE01F8FF4A01080088
:100AA0008801F8FFEE010800D2010200B801F0FF52
:100AB0008801F0FF4A01F0FF2601F0FF4A01FCFF28
:100AC00000000400000004009302F8FF4B0208003D
:100AD000EE01F8FFB80108008801F8FF4A01F8FFAD
:100AE000D2011000B801F8FFD2011000B801F8FFE0
:100AF000D2011000B801F8FFD2011000B801F8FFD0
:100B00008801F0FF4A01F0FF2601F0FF4A011000C2
:100B10004A0110004A01020000000000000000002D
:100B200000000000000000000000000000000000C5
:100B300000000000000000000000000000000000B5
:100B400000000000000000000000000000000000A5
:100B50000000000000000000000000000000000095
:100B60000000000000000000000000000000000085
:100B70000000000000000000000000000000000075
:100B80000000000000000000000000000000000065
:100B90000000000000000000000000000000000055
:100BA0000000000000000000000000000000000045
:100BB0000000000000000000000000000000000035
:100BC0000000000000000000000000000000000025
:100BD0000000000000000000000000000000000015
:100BE0000000000000000000000000000000000005
:100BF00000000000000000000000000000000000F5
:100C000000000000000000000000000000000000E4
:100C100000000000000000000000000000000000D4
:100C200000000000000000000000000000000000C4
:100C300000000000000000000000000000000000B4
:100C400000000000000000000000000000000000A4
:100C50000000000000000000000000000000000094
:100C60000000000000000000000000000000000084
:100C70000000000000000000000000000000000074
:100C80000000000000000000000000000000000064
:100C90000000000000000000000000000000000054
:100CA0000000000000000000000000000000000044
:100CB0000000000000000000000000000000000034
:100CC0000000000000000000000000000000000024
:100CD0000000000000000000000000000000000014
:100CE00000000000000000000000040000000800F8
:100CF00000000800000008004A010800B8010800D0
:100D00000B020800EE010800B80108000B02080001
:100D1000B8010800EE010800B80108005D010800F4
:100D2000880108004A0102004A010800B8010800D1
:100D30000B020800EE010800B80108000B020800D1
:100D4000B80108000B020800B80108004A010800B9
:100D50003701080026010200260108005D01080095
:100D60009F010800EE010200260108005D01080055
:100D70009F010800B80102000601080006010800F2
:100D8000880108005D0108004A0108008801080088
:100D90005D0108005D0108004A0108004A010800E1
:100DA0009F010800B801020000000800B801080017
:100DB000B80108009F01080088010200EE01080048
:100DC000B80108005D0108004A0102004A0108005C
:100DD000880108004A0108002601020026010800D7
:100DE000260108005D010800370108004A010200E1
:100DF000000008004A010800B80108000B020800C2
:100E0000EE010800B80108000B020800B801080054
:100E1000EE010800B80108005D0108008801080023
:100E20004A0102004A010800B80108000B0208004C
:100E3000EE010800B80108000B020800B801080024
:100E40000B020800B80108004A0108003701080039
:100E500026010200260108005D0108009F0108002C
:100E6000EE010200260108005D0108009F01080054
:100E7000B801020006010800060108008801080008
:100E80005D0108004A010800880108005D010800B2
:100E90005D0108004A0108004A0108009F0108009E
:100EA000B801020000000800B8010800B8010800FD
:100EB0009F01080088010200EE010800B801080047
:100EC0005D0108004A0102004A010800880108008B
:100ED0004A01080026010200260108002601080038
:100EE0005D010800370108004A010200000000000F
:100EF00000000000000000000000000000000000F2
:100F000000000000000000000000000000000000E1
:100F100000000000000000000000000000000000D1
:100F200000000000000000000000000000000000C1
:100F300000000000000000000000000000000000B1
:100F400000000000000000000000000000000000A1
:100F50000000000000000000000000000000000091
:100F60000000000000000000000000000000000081
:100F70000000000000000000000000000000000071
:100F80000000000000000000000000000000000061
:100F90000000000000000000000000000000000051
:100FA0000000000000000000000000000000000041
:100FB0000000000000000000000000000000000031
:100FC0000000000000000000000000000000000021
:100FD0000000000000000000000000000000000011
:100FE0000000000000000000000000000000000001
:100FF00000000000000000000000000000000000F1
:10100000000000000000000011241FBECFEFD8E058
:10101000DEBFCDBF12E0A0E0B1E0E0E0F0E302C04F
:1010200005900D92AA34B107D9F722E0AAE4B2E004
:1010300001C01D92A73AB207E1F70E947D150C94FA
:10104000FE170C9400009C0181E090E06115710591
:1010500059F0AC01429FC001439F900D529F900DEB
:10106000112461507109F2CF0895CF93DF93EC0101
:101070000E94CC0F8BE891E00E94B60FCE010E9437
:10108000490EDF91CF910895803629E092078CF4C4
:101090002091890230918A02F901EE0FFF1FEB586F
:1010A000FD4F918380832F5F3F4F30938A022093BF
:1010B00089020895E0918902F0918A02EE0FFF1FE4
:1010C000EF59FD4F91838083089520E030E04091F7
:1010D000890250918A022417350714F52817390719
:1010E000E4F0A9014F5F5F4F440F551FFA01EB5821
:1010F000FD4FA081B181B901660F771FFB01EB584D
:10110000FD4FB183A083FA01EF59FD4F408151811A
:10111000FB01EF59FD4F518340832F5F3F4FD7CFE6
:101120000895CF92DF92EF92FF920F931F93CF9388
:10113000DF938091890290918A02892B09F455C02E
:101140000F2EFAE5CF2EF2E0DF2EF02D0F2EFBE56D
:10115000EF2EF2E0FF2EF02D0CE512E02DE532E04F
:101160004EE552E06FE572E080E692E00E94661480
:10117000C0E0D0E08091890290918A028C179D078F
:10118000A4F1FE01EE0FFF1FEB58FD4F20813181CE
:10119000C90164E670E00E94A11780915C0290E0B2
:1011A0006817790701F5C90164E670E00E94A1178C
:1011B00020915B0230E082179307A9F4FE01EE0F45
:1011C000FF1FEF59FD4F808191810E943508CE01AC
:1011D0000E9465088091890290918A0201979093FC
:1011E0008A02809389022196C5CFDF91CF911F910A
:1011F0000F91FF90EF90DF90CF900895CF93DF9302
:10120000EC0121E030E0E0E0F0E0C217D3076CF041
:10121000C90183709927892B19F4E259FE4F02C046
:10122000E359FE4F2F5F3F4FF0CF20E030E0DB016E
:1012300011972A173B073CF591E0DE01A370BB270D
:10124000AB2B09F090E0992391F091E0213031052A
:1012500009F090E0992359F0D901AA0FBB1FAE5FA6
:10126000BE4F8D919C91E80FF91F319609C0D901AD
:10127000AA0FBB1FAE5FBE4F8D919C91E80FF91F67
:101280002F5F3F4FD4CF4E0F5F1FCA01059667E017
:1012900070E00E94A117DF91CF9108956F927F9225
:1012A0008F929F92AF92BF92CF92DF92EF92FF9276
:1012B0000F931F93CF93DF93EC0188809980AA80CE
:1012C000BB806C807D80A301B501C4010E94FE0833
:1012D0000E811F81E884F984CA84DB849401215043
:1012E0003109C1E02236310508F0C0E021E01A14CE
:1012F0001B040CF020E061E09DE0A916B1040CF0A5
:1013000060E071E0161417040CF070E051E090E218
:10131000691671040CF050E0312F3095331F3327DC
:10132000331F41E0083111050CF040E0AF2DA095CE
:10133000AA1FAA27AA1FB1E09CE3E916F1040CF04A
:10134000B0E09D2D9095E92FEE1FEE27EE1FF1E006
:101350009CE3C916D1040CF0F0E02C236223672330
:101360005623952F932349234A23942F9B239E236F
:1013700041F0FF2331F0282F462D6A2D882D0E9441
:101380002514DF91CF911F910F91FF90EF90DF9087
:10139000CF90BF90AF909F908F907F906F90089567
:1013A000CF93DF93CDB7DEB72A970FB6F894DEBFA1
:1013B0000FBECDBF4AE0BE016F5F7F4F0E94C917CD
:1013C000CE0101960E94B60F2A960FB6F894DEBFA2
:1013D0000FBECDBFDF91CF9108958A3020F486E90A
:1013E00091E00E94B60F0895CF92DF92EF92FF92A4
:1013F0000F931F930F2EFAE5CF2EF2E0DF2EF02D84
:101400000F2EFBE5EF2EF2E0FF2EF02D0CE512E0A3
:101410002DE532E04EE552E06FE572E080E692E0C5
:101420000E94661480E090E00E94D90F82E991E06A
:101430000E94B60F809160020E94ED0980916002C7
:1014400090E00E94D00988E991E00E94B60F809157
:101450005F020E94ED0980915F0290E00E94D00936
:1014600088E991E00E94B60F80915E020E94ED092A
:1014700080915E0290E00E94D00981E090E00E949D
:10148000D90F86E192E00E94B60F80915C020E9423
:10149000ED0980915C0290E00E94D0098AE991E018
:1014A0000E94B60F80915B020E94ED0980915B0261
:1014B00090E00E94D0098AE991E00E94B60F8091E5
:1014C0005A020E94ED0980915A0290E00E94D009D0
:1014D0001F910F91FF90EF90DF90CF9008950F93A1
:1014E0001F93CF93DF93C82F8B0180E090E00E9481
:1014F000D90F81E00230110509F080E091E0C83396
:1015000009F090E09923A9F0882399F020915802DE
:10151000309159022F5F3F4F309359022093580268
:101520002FE936E891E0215030409040E1F700C0CB
:10153000000091E0C23309F090E09923A1F08823E4
:1015400091F080915802909159020197909359021D
:10155000809358022FE936E881E0215030408040E6
:10156000E1F700C0000081E02091890230918A02F9
:10157000232B09F480E0882309F461C081E0C5339E
:1015800009F080E0882309F45AC00E94CC0FE09152
:101590005802F0915902EE0FFF1FEB58FD4F80816A
:1015A0009181C4E6D0E0BE010E94A117CB0163E0A7
:1015B00070E00E9407108AE991E00E94B60FE09166
:1015C0005802F0915902EE0FFF1FEB58FD4F80813A
:1015D0009181BE010E94A11763E070E00E94071094
:1015E0008CE991E00E94B60F81E090E00E94D90F53
:1015F00085EA91E00E94B60F9FEB27E239E0915017
:1016000020403040E1F700C000000E94CC0F8091E4
:101610005802909159020E94650880918902909128
:101620008A02019790938A02809389028FE996E853
:1016300021E0815090402040E1F700C0000020915F
:101640005802309159028091890290918A0228179C
:10165000390724F010925902109258022091580232
:101660003091590233232CF40197909359028093BF
:1016700058020230110509F04CC080E090E00E9451
:10168000D90F8091890290918A02892B69F482EBAB
:1016900091E00E94B60F81E090E00E94D90F8FEB9D
:1016A00091E00E94B60F35C08BEC91E00E94B60F1E
:1016B00081E090E00E94D90F8AED91E00E94B60F80
:1016C000E0915802F0915902EE0FFF1FEB58FD4FC9
:1016D00080819181C4E6D0E0BE010E94A117CB01B8
:1016E00063E070E00E9407108AE991E00E94B60F63
:1016F000E0915802F0915902EE0FFF1FEB58FD4F99
:1017000080819181BE010E94A11763E070E00E9478
:101710000710DF91CF911F910F910895CF92DF9223
:10172000EF92FF920F931F930F2EFAE5CF2EF2E068
:10173000DF2EF02D0F2EFBE5EF2EF2E0FF2EF02D29
:101740000CE512E02DE532E04EE552E06FE572E087
:1017500080E692E00E94661480915A0290E0209107
:101760000001309101018217930761F0E2E5F2E098
:1017700024813581215031093583248390930101DF
:101780008093000180915602909157020196F9F4DE
:101790008091540290915502009781F480915202F9
:1017A00090915302009799F0E2E5F2E02BE330E0EC
:1017B0003383228301979183808309C0E2E5F2E0BD
:1017C0002BE330E0358324830197938382831F9139
:1017D0000F91FF90EF90DF90CF900895FF920F93BD
:1017E0001F93CF93DF93F82E8B018091500290913D
:1017F0005102039709F03FC080E090E00E94D90FAA
:101800008DED91E00E94B60F25E3F21206C081E053
:1018100090E090934B0280934A0280914A0290910B
:101820004B02019711F40E948E0BE2E5F2E0448135
:1018300055812281338191E0452B09F090E081E0D0
:10184000232B09F080E0892320915202309153022A
:1018500091E0232B09F090E08823A9F0992399F0D7
:1018600010924B0210924A020E94CC0F8EEE91E031
:101870000E94B60F08C080E090E00E94D90F8AEF66
:1018800091E00E94B60F81E090E00E94D90FC0E085
:10189000D0E0C330D1059CF581E0C330D10509F417
:1018A00080E0882351F081E0209709F480E08823CC
:1018B00021F08AE991E00E94B60F80915002909148
:1018C0005102C817D90771F4FE01EE0FFF1FEE5A3F
:1018D000FD4F60914E0270914F02808191810E9474
:1018E00007100BC0FE01EE0FFF1FEE5AFD4F63E025
:1018F00070E0808191810E9407102196CACF21E07B
:1019000090ED9F0D9A3008F020E081E00230110543
:1019100009F080E091E04091500250915102433033
:10192000510509F490E0822309F45FC0992309F47A
:101930005CC08F2D90E0C09720914C0230914D02F9
:10194000820F931F90934D0280934C028FE996E88B
:1019500021E0815090402040E1F700C000008091DC
:101960004E0290914F02892B21F520914C0230912B
:101970004D02C901880F991F220F331F220F331FF9
:10198000220F331F820F931F90934D0280934C02BE
:1019900021E030E030934F0220934E02E09150025C
:1019A000F0915102EE0FFF1FEE5AFD4F918380839D
:1019B0001CC08091500290915102FC01EE0FFF1F5C
:1019C000EE5AFD4F20914C0230914D02318320831D
:1019D0000196909351028093500210924D02109202
:1019E0004C0210924F0210924E02DF91CF911F9144
:1019F0000F91FF9008958AB184608AB9E9E6F0E01A
:101A000080818C6080838DB382608DBB78940895D3
:101A10004F925F926F927F928F929F92AF92BF92FE
:101A2000CF92DF92EF92FF92CF93DF9300D000D05E
:101A3000CDB7DEB76B017C0149015A0120E030E0EF
:101A4000A9010E94D015882309F4ADC0A701960111
:101A500060E070E080E89FE30E94D51520E030E070
:101A60004AE754E40E9434176B017C019B01AC01EE
:101A7000C501B4010E94D5150E9447162B013C01F7
:101A800020E030E040E05FE3C701B6010E94341778
:101A900069837A838B839C83812C912C54018414D9
:101AA0009504A604B7040CF0B8C020E030E04AE783
:101AB00053E469817A818B819C810E9434176B0188
:101AC0007C0120E030E040E85FE30E94D0158823ED
:101AD0002CF120E03FEF4FE757E4C701B6010E9429
:101AE0002F171816B4F420E030E040E251E4698189
:101AF0007A818B819C810E9434170E944E16611559
:101B0000710589F089E190E00197F1F76150710961
:101B1000F6CFC701B6010E944E1602C061E070E028
:101B2000CB010197F1F78BB184608BB920E030E0F5
:101B300040E85FE3C701B6010E94D01588232CF16D
:101B400020E03FEF4FE757E4C701B6010E942F178F
:101B50001816B4F420E030E040E251E469817A8163
:101B60008B819C810E9434170E944E16611571056D
:101B700089F089E190E00197F1F761507109F6CFA2
:101B8000C701B6010E944E1602C061E070E0CB01B1
:101B90000197F1F78BB18B7F8BB98FEF881A980A79
:101BA000A80AB80A7CCF20E030E04AE753E4C50138
:101BB000B4010E9434176B017C0120E030E040E862
:101BC0005FE30E94D01588231CF120E03FEF4FE730
:101BD00057E4C701B6010E942F171816A4F420E09D
:101BE00030E040E251E4C501B4010E9434170E9484
:101BF0004E166115710589F089E190E00197F1F7C2
:101C000061507109F6CFC701B6010E944E1602C09D
:101C100061E070E0CB010197F1F70F900F900F900A
:101C20000F90DF91CF91FF90EF90DF90CF90BF901A
:101C3000AF909F908F907F906F905F904F9008959E
:101C40001F920F920FB60F9211248F939F931092B1
:101C50001B0110921A0188EA91E60197F1F79F9112
:101C60008F910F900FBE0F901F901895009741F025
:101C70008130910541F0029749F485E590E008959F
:101C800081EE90E0089588E790E0089588E790E07D
:101C900008952F923F924F925F926F927F928F9210
:101CA0009F92AF92BF92CF92DF92EF92FF920F93EB
:101CB0001F93CF93DF9300D000D0CDB7DEB71C01C8
:101CC0000E94360EBC01990F880B990B0E947F165B
:101CD0009B01AC0160E07CE782E198E40E94D515AD
:101CE0000E9447167A8369831C821B82E12CF12CA7
:101CF0008B819C81803991400CF0ADC080911A019C
:101D000090911B01019709F0A2C080E293E0289E08
:101D10008001299E100D389E100D112408591F4F67
:101D2000CB80DC80F6013196EE0FFF1FE00FF11F34
:101D3000659174911616170634F489819A810E9470
:101D4000A1177B011CC07723BCF489819A810E9472
:101D5000A117072E000C880B990B0E947F1620E01C
:101D600030E040EC5FE30E9434170E944716EE24F7
:101D7000FF24E61AF70A03C0672B09F46CC0B70109
:101D80000F2C000C880B990B0E947F162B013C0135
:101D900026E636E646E65FE30E9434174B015C0117
:101DA000F601EE0FFF1FE00FF11F6591749180E0C7
:101DB00090E00E947D16A50194010E94080D20E08C
:101DC00030E040E05FE3C301B2010E9434172B0111
:101DD0003C0120E030E04AE753E40E9434174B0115
:101DE0005C0120E030E040E85FE30E94D0158823EA
:101DF0001CF120E03FEF4FE757E4C501B4010E941A
:101E00002F171816A4F420E030E040E251E4C3019B
:101E1000B2010E9434170E944E166115710589F0B7
:101E200089E190E00197F1F761507109F6CFC501A2
:101E3000B4010E944E1602C061E070E0CB01019730
:101E4000F1F78B819C8102969C838B8351CF1092FA
:101E50001B0110921A010F900F900F900F90DF91BD
:101E6000CF911F910F91FF90EF90DF90CF90BF9097
:101E7000AF909F908F907F906F905F904F903F902A
:101E80002F9008959BB19F70282F207F922B9BB994
:101E90009BB19E7F9BB99BB192609BB900009BB1A7
:101EA0009D7F9BB932E43A95F1F700C02BB130E148
:101EB000839FC0011124922F9F70892B8BB98BB106
:101EC00082608BB900008BB18D7F8BB983EF91E07D
:101ED0000197F1F700C0000008959BB19F70282F73
:101EE000207F922B9BB99BB191609BB99BB1926073
:101EF0009BB900009BB19D7F9BB932E43A95F1F705
:101F000000C02BB130E1839FC0011124922F9F703C
:101F1000892B8BB98BB182608BB900008BB18D7F1F
:101F20008BB983EF91E00197F1F700C000000895AD
:101F30008FEF8AB987E893E10197F1F700C00000BD
:101F400082E00E94420F88E20E94420F8CE00E94D1
:101F5000420F86E00E94420F81E00E94420F83EF11
:101F600091E00197F1F700C0000008950F931F93CF
:101F7000CF93DF938C01C0E0D0E0F801EC0FFD1FA0
:101F80008081882321F00E946D0F2196F6CFDF918A
:101F9000CF911F910F91089581E00E94420F83EF2E
:101FA00091E00197F1F700C0000080E80E94420F25
:101FB0000895892B21F480E80E94420F089580EC57
:101FC0000E94420F08952091A5023091A602232B72
:101FD00079F40E94B60F81E090E09093A60280937E
:101FE000A50287EA91E60197F1F700C00000089585
:101FF00089E192E00E94B60F1092A6021092A5020B
:1020000087EA91E60197F1F700C000000895EF928A
:10201000FF920F931F93CF93DF9300D000D0CDB7E3
:10202000DEB78B016AE070E00E94A1179B017C0182
:102030004AE0BE016F5F7F4FC9010E94C9174AE0A5
:10204000BE016D5F7F4FC7010E94C91701151105C1
:1020500049F4CE0101960E94E30FCE0103960E943F
:10206000B60F14C00130110549F4CE0101960E944B
:10207000B60FCE0103960E94E30F08C0CE01019671
:102080000E94B60FCE0103960E94B60F0F900F90DC
:102090000F900F90DF91CF911F910F91FF90EF90D4
:1020A0000895EF92FF920F931F93CF93DF938C01CC
:1020B0007B0180E090E00E94D90F82E991E00E94CC
:1020C000B60FC0E0D0E0C630D105F4F5C330D1057D
:1020D00041F481E090E00E94D90F86E192E00E94F5
:1020E000B60F81E0C330D10509F480E0882351F0B8
:1020F00081E0209709F480E0882321F08AE991E0CB
:102100000E94B60F8091930290919402C817D9074C
:1021100071F4FE01EE0FFF1FEB56FD4F609191022F
:1021200070919202808191810E9407100BC0FE0184
:10213000EE0FFF1FEB56FD4F63E070E08081918151
:102140000E9407102196BFCF21E0C801C0970A97CF
:1021500008F020E081E092E0E916F10409F080E067
:10216000222309F45EC0882309F45BC000531109DF
:1021700080918F0290919002080F191F1093900286
:1021800000938F022FE986E891E021508040904033
:10219000E1F700C000008091910290919202892B9A
:1021A00021F520918F0230919002C901880F991F6B
:1021B000220F331F220F331F220F331F820F931F53
:1021C0009093900280938F0221E030E0309392024E
:1021D00020939102E0919302F0919402EE0FFF1F81
:1021E000EB56FD4F918380831CC0809193029091A8
:1021F0009402FC01EE0FFF1FEB56FD4F20918F0262
:1022000030919002318320830196909394028093C1
:1022100093021092900210928F02109292021092EA
:10222000910281E020919302309194022630310591
:1022300009F080E0882329F181E023E0E216F1042F
:1022400009F080E08823E9F085E992E00E944E09D8
:10225000109294021092930280E090E00E94D90FB5
:102260000E94CC0F89E092E00E94B60F8FE79AE1BE
:1022700026E0815090402040E1F700C000000E941D
:10228000CC0FDF91CF911F910F91FF90EF900895A8
:102290001F93CF93DF93182FEB0180E090E00E9413
:1022A000D90F81E0C230D10509F080E091E0183308
:1022B00009F090E09923A9F0882399F020918D02EC
:1022C00030918E022F5F3F4F30938E0220938D020C
:1022D0002FE936E891E0215030409040E1F700C00E
:1022E000000091E0123309F090E09923A1F08823D7
:1022F00091F080918D0290918E02019790938E02C1
:1023000080938D022FE936E881E0215030408040F3
:10231000E1F700C0000080918D0290918E02059738
:1023200024F010928E0210928D0280918D02909175
:102330008E02992334F484E090E090938E0280938F
:102340008D02C230D105F9F480E090E00E94D90FEF
:102350008AED91E00E94B60F80918D0290918E02DD
:1023600065E070E00E94A1179C01220F331F880FC7
:10237000991F880F991F880F991F820F931F8C5BDD
:102380009E4F0E94B60F239731F480918D02909159
:102390008E020E945A08DF91CF911F910895EF920B
:1023A000FF921F93CF93DF93182FEB01809176015B
:1023B000909177010196B1F180E090E00E94D90FF1
:1023C00085E192E00E94B60F8091760190917701AD
:1023D00023E030E0281B390B8091A3029091A402E6
:1023E0000F2EF4E6EF2EF12CF02DB7010E94A1176D
:1023F000CB01B9010E9407108AE991E00E94B60F53
:10240000809176019091770121E030E0281B390B13
:102410008091A3029091A402B7010E94A117B90173
:102420000E94071021E090ED910F9A3008F020E013
:1024300081E0C230D10509F080E0609176017091B1
:10244000770191E06F3F3FEF730709F490E082233B
:1024500009F47BC0992309F478C0E12EF12C80E3C4
:10246000E81AF1088AE090E00E9423089C01E29EAD
:10247000C001E39E900DF29E900D11242091A302C5
:102480003091A402820F931F9093A4028093A30221
:1024900080917601909177010197909377018093D5
:1024A00076013FE986E891E0315080409040E1F7C5
:1024B00000C000008091760190917701019609F0AB
:1024C00044C080E090E00E94D90F85E192E00E9434
:1024D000B60F8091A3029091A4020F2EF4E6EF2E86
:1024E000F12CF02DB7010E94A117CB0163E070E041
:1024F0000E9407108AE991E00E94B60F8091A30222
:102500009091A402B7010E94A11763E070E00E94BD
:1025100007103FE38DE093E0315080409040E1F7B9
:1025200000C0000080E090E00E94D90F8BE192E0B3
:102530000E94B60F2FE73AE186E0215030408040FC
:10254000E1F700C000000E94CC0F809176019091CD
:102550007701019621F4BE01812F0E944811239733
:1025600009F048C08091A3029091A4020E944408FF
:1025700080E090E00E94D90F8BE292E00E94B60FBB
:1025800081E090E00E94D90F8091A3029091A40273
:10259000C4E6D0E0BE010E94A117CB0163E070E069
:1025A0000E9407108AE991E00E94B60F8091A30271
:1025B0009091A402BE010E94A11763E070E00E9406
:1025C00007101092A4021092A3021092A20210927D
:1025D000A10283E090E090937701809376013FE73A
:1025E0008AE196E0315080409040E1F700C0000061
:1025F0000E94CC0FDF91CF911F91FF90EF90089533
:1026000010928E0210928D02E5E9F2E011821082A2
:102610001382128215821482178216821186108606
:1026200013861286109294021092930210929202D4
:10263000109291021092900210928F021092A402B6
:102640001092A3021092A2021092A10283E090E0E5
:10265000909377018093760108950F931F93CF9302
:10266000DF93182FEB0180E090E00E94D90F81E00A
:10267000C130D10509F080E091E0183309F090E015
:102680009923A9F0882399F020918B0230918C0234
:102690002F5F3F4F30938C0220938B022FE936E857
:1026A00091E0215030409040E1F700C0000091E0FF
:1026B000123309F090E09923A1F0882391F08091E2
:1026C0008B0290918C02019790938C0280938B02E5
:1026D0002FE936E881E0215030408040E1F700C02A
:1026E000000080918B0290918C02049724F010924C
:1026F0008C0210928B0280918B0290918C02992314
:1027000034F483E090E090938C0280938B02C1308C
:10271000D10539F580E090E00E94D90F8AED91E073
:102720000E94B60F20918B0230918C02237030787A
:10273000332334F4215031092C6F3F6F2F5F3F4F0B
:10274000C901880F991F220F331F220F331F220F39
:10275000331F820F931F845E9E4F0E94B60F0E940C
:10276000001301E0C230D1050CF400E081E02091BB
:102770008B0230918C02232B09F080E0882331F00A
:10278000002321F0BE01812F0E94CF1181E0209112
:102790008B0230918C022130310509F080E08823D2
:1027A00039F0002329F0BE01812F90E00E945110E2
:1027B00081E020918B0230918C022230310509F0AA
:1027C00080E0882331F0002321F0BE01812F0E9498
:1027D0006F0A81E020918B0230918C022330310509
:1027E00009F080E0882331F0002321F0BE01812F21
:1027F0000E94EE0BDF91CF911F910F9108959DECF8
:10280000899F912D1124969596959695292F220FA3
:10281000920F292F220F820F0895282F30E035952F
:102820002795359527953595279535952795922F99
:10283000990F290F922F990F891B08950E94BE149A
:1028400083E08A95F1F700000895CF92EF92FF920E
:102850000F931F93CF93DF93C82FD62F142FF22EF1
:1028600080ED0E94EA1480E00E941C158C2D0E94CD
:10287000FF130E941C158E2D0E94FF130E941C1531
:10288000802F0E94FF130E941C158F2D0E94FF13A2
:102890000E941C15812F0E94FF130E941C158D2F72
:1028A0000E94FF130E941C158C2F0E94FF130E9490
:1028B0001C1580E00E941C150E941415DF91CF9119
:1028C0001F910F91FF90EF90CF9008956F927F929C
:1028D0008F929F92AF92BF92CF92DF92EF92FF9230
:1028E0000F931F93CF93DF93EC013B015A014901F2
:1028F00080ED0E94EA1480E00E941C150E941415CD
:1029000081ED0E9411150E942E158F770E940D14E3
:10291000F60180830E942E150E940D14F70180831A
:102920000E942E150E940D14F80180830E942E151E
:102930000E940D14F40180830E942E150E940D1434
:10294000F50180830E942E150E940D14F3018083EF
:102950000E9438150E940D1488830E941415DF917F
:10296000CF911F910F91FF90EF90DF90CF90BF908C
:10297000AF909F908F907F906F9008951092B900C4
:102980008DEF8093B800089594EA9093BC009091E5
:10299000BC009923E4F79091B900987F983011F02A
:1029A000903191F48093BB0084E88093BC008091C7
:1029B000BC008823E4F78091B900887F883131F02A
:1029C000803431F480E0089581E0089580E0089536
:1029D00081E0089594EA9093BC009091BC00992303
:1029E000E4F79091B900987F983011F0903191F709
:1029F0008093BB0094E89093BC009091BC00992315
:102A0000E4F79091B900987F903211F0983541F435
:102A100094E99093BC009091BC0094FDFCCFDACF78
:102A200008950E94C414089584E98093BC008091A5
:102A3000BC0084FDFCCF08958093BB0084E88093A4
:102A4000BC008091BC008823E4F78091B900887FA6
:102A5000883211F081E0089580E0089584EC80933D
:102A6000BC008091BC008823E4F78091BB000895EE
:102A700084E88093BC008091BC008823E4F78091B7
:102A8000BB0008958FE087B960E070E064307105A5
:102A900094F581E090E0FB01E558FE4F008002C014
:102AA000880F991F0A94E2F788B980E090E083309C
:102AB0009105F4F443B150E021E030E0FC01E85826
:102AC000FE4F008002C0220F331F0A94E2F7421724
:102AD000530761F49B01220F331F620F731F61586C
:102AE0007E4FFB01E80FF91F808108950196DFCF2B
:102AF0006F5F7F4FCBCF86E208950E94FB0C0E9450
:102B0000980F8BE392E00E94B60F2FEB87E299E0DB
:102B1000215080409040E1F700C000000E941E1448
:102B2000C0E0D0E00E9491080E944215182F209723
:102B300011F40E94F4091A3261F42FE986E891E059
:102B4000215080409040E1F700C0000021960E9493
:102B5000CC0F1C161D0624F4BE01812F0E942D13DC
:102B600081E0C330D10509F080E0811108C081E027
:102B7000CF3F2FEFD20709F080E0882311F0C0E0AB
:102B8000D0E0133279F68FE996E821E08150904049
:102B90002040E1F700C0000021970E94CC0FC2CF77
:102BA0000E94BA1608F481E008950E94E9150C9479
:102BB000F5160E94EE1658F00E94E71640F029F430
:102BC0005F3F29F00C94DE1651110C9429170C94D8
:102BD000E4160E94061768F39923B1F3552391F385
:102BE000951B550BBB27AA2762177307840738F07C
:102BF0009F5F5F4F220F331F441FAA1FA9F335D0D9
:102C00000E2E3AF0E0E832D091505040E695001C8C
:102C1000CAF72BD0FE2F29D0660F771F881FBB1F46
:102C2000261737074807AB07B0E809F0BB0B802D24
:102C3000BF01FF2793585F4F3AF09E3F510578F050
:102C40000C94DE160C9429175F3FE4F3983ED4F3FE
:102C5000869577956795B795F7959F5FC9F7880F24
:102C6000911D9695879597F90895E1E0660F771F76
:102C7000881FBB1F621773078407BA0720F0621B07
:102C8000730B840BBA0BEE1F88F7E09508950E9432
:102C90004E166894B1110C94291708950E940E17CE
:102CA00088F09F5798F0B92F9927B751B0F0E1F00D
:102CB000660F771F881F991F1AF0BA95C9F714C0BD
:102CC000B13091F00E942817B1E008950C942817B4
:102CD000672F782F8827B85F39F0B93FCCF38695F6
:102CE00077956795B395D9F73EF490958095709553
:102CF00061957F4F8F4F9F4F0895E89409C097FBD0
:102D00003EF490958095709561957F4F8F4F9F4FC2
:102D10009923A9F0F92F96E9BB279395F695879506
:102D200077956795B795F111F8CFFAF4BB0F11F4C9
:102D300060FF1BC06F5F7F4F8F4F9F4F16C0882370
:102D400011F096E911C0772321F09EE8872F762FA6
:102D500005C0662371F096E8862F70E060E02AF0E7
:102D60009A95660F771F881FDAF7880F96958795D3
:102D700097F90895990F0008550FAA0BE0E8FEEFA8
:102D800016161706E807F907C0F012161306E4072F
:102D9000F50798F0621B730B840B950B39F40A2628
:102DA00061F0232B242B252B21F408950A2609F406
:102DB000A140A6958FEF811D811D089597F99F670A
:102DC00080E870E060E008959FEF80EC08950024B3
:102DD0000A941616170618060906089500240A9480
:102DE00012161306140605060895092E0394000C06
:102DF00011F4882352F0BB0F40F4BF2B11F460FF95
:102E000004C06F5F7F4F8F4F9F4F089557FD9058BD
:102E1000440F551F59F05F3F71F04795880F97FB9E
:102E2000991F61F09F3F79F0879508951216130658
:102E30001406551FF2CF4695F1DF08C01616170687
:102E40001806991FF1CF86957105610508940895BC
:102E5000E894BB2766277727CB0197F908950E944E
:102E6000BA1608F48FEF08950E9447170C94F516D0
:102E70000E94E71638F00E94EE1620F0952311F01C
:102E80000C94DE160C94E41611240C9429170E945D
:102E9000061770F3959FC1F3950F50E0551F629F81
:102EA000F001729FBB27F00DB11D639FAA27F00DA3
:102EB000B11DAA1F649F6627B00DA11D661F829FCA
:102EC0002227B00DA11D621F739FB00DA11D621FAF
:102ED000839FA00D611D221F749F3327A00D611DCC
:102EE000231F849F600D211D822F762F6A2F1124AE
:102EF0009F5750409AF0F1F088234AF0EE0FFF1FE1
:102F0000BB1F661F771F881F91505040A9F79E3F37
:102F1000510580F00C94DE160C9429175F3FE4F302
:102F2000983ED4F3869577956795B795F795E7958D
:102F30009F5FC1F7FE2B880F911D9695879597F996
:102F4000089597FB072E16F4009407D077FD09D05B
:102F50000E94B51707FC05D03EF4909581959F4FD0
:102F60000895709561957F4F0895AA1BBB1B51E191
:102F700007C0AA1FBB1FA617B70710F0A61BB70BE9
:102F8000881F991F5A95A9F780959095BC01CD018E
:102F90000895BB274A3031F4992322F4BDE290957D
:102FA00081959F4F0C94D517BB27FB015527AA2766
:102FB000880F991FAA1FA41710F0A41B83955051C6
:102FC000B9F7A05DAA3308F0A95DA193009779F73E
:102FD000B111B1931192CB010C94EE17DC01FC01FD
:102FE000672F71917723E1F7329704C07C916D933D
:102FF00070836291AE17BF07C8F30895F894FFCFAE
:103000003C001F001C001F001E001F001E001F00B0
:103010001F001E001F001E001F000100534554200A
:10302000414C41524D005345542054494D452000D8
:10303000414C41524D532020200054494D455220CF
:1030400020202000444F4F4D2020202020005354AA
:103050004152205741525300474F542020202020F6
:10306000200050414E54484552202000474F4446CE
:10307000415448455200030000010200010203319F
:1030800032333435363738392A302352494E4721C6
:1030900021002020203230002D003A002044454CF1
:1030A00045544544005355434345535346554C4CB2
:1030B00059002020204E4F20414C41524D530020BA
:1030C000202020415245205345540050524553532F
:1030D000203520544F2044454C003E3E0050524580
:1030E0005353203520746F20535441525400544997
:1030F0004D455320555021212100454E5445522025
:103100005448452054494D4500202020202020448B
:103110004F4E45210020202020200053454C4543A0
:10312000542054484520544F4E4500414C41524D87
:103130002049532053455420544F00202020574508
:0A3140004C434F4D452121210000B2
:040000050080024A2B
:00000001FF
