S0170000416C61726D20436C6F636B204156522E737265630B
S11300000C9404080C949F0B0C9421080C94210864
S11300100C9421080C9421080C9421080C942108B8
S11300200C9421080C9421080C9421080C942108A8
S11300300C9421080C9421080C9421080C94210898
S11300400C9421080C9421080C9421080C94210888
S11300500C9421080C9421080C9421080C94210878
S11300600C9421080C942108520008005200080046
S1130070A500080052000800520008009300080080
S113008052000800520008008300080052000800D3
S113009052000800750008005200080052000800D1
S11300A07B0008008300080052000800520008008A
S11300B0A500080052000800520008009300080040
S11300C05200080052000800830008005200080093
S11300D0520008007500FEFF52000800520008009C
S11300E0A500080052000800520008009300080010
S11300F05200080052000800830008005200080063
S11301005200080075000800520008005200080060
S11301107B00080083000800520008005200080019
S1130120A5000800520008005200080093000800CF
S11301305200080052000800830008005200080022
S1130140520008007500FEFF52000800520008002B
S1130150A50008005200080052000800930008009F
S113016052000800520008008300080052000800F2
S113017052000800750008005200080052000800F0
S11301807B000800830008005200080052000800A9
S1130190A50008005200080052000800930008005F
S11301A052000800520008008300080052000800B2
S11301B0520008007500FEFF5200080052000800BB
S11301C0A50008005200080052000800930008002F
S11301D05200080052000800830008005200080082
S11301E05200080075000800520008005200080080
S11301F07B00080083000800520008005200080039
S1130200A5000800520008005200080093000800EE
S11302105200080052000800B900F0FF9300F0FFFC
S11302207B00F0FFDC00F0FFB900F0FF7B00F0FF83
S11302309300F0FFB900F0FFDC00F0FFB900F0FF1D
S11302409300F0FF7B00F0FF0000000000000000BE
S1130250000000000000000000000000000000009A
S1130260000000000000000000000000000000008A
S1130270000000000000000000000000000000007A
S1130280000000000000000000000000000000006A
S1130290000000000000000000000000000000005A
S11302A0000000000000000000000000000000004A
S11302B0000000000000000000000000000000003A
S11302C0000000000000000000000000000000002A
S11302D0000000000000000000000000000000001A
S11302E0000000000000000000000000000000000A
S11302F000000000000000000000000000000000FA
S113030000000000000000000000000000000000E9
S113031000000000000000000000000000000000D9
S113032000000000000000000000000000000000C9
S113033000000000000000000000000000000000B9
S113034000000000000000000000000000000000A9
S11303500000000000000000000000000000000099
S11303600000000000000000000000000000000089
S11303700000000000000000000000000000000079
S11303800000000000000000B8010400B8010400EF
S1130390B80104005D01F8FF0B021000B80104006D
S11303A05D01F8FF0B021000B80102009302040083
S11303B09302040093020400BA02F8FF0B02100037
S11303C0B80104005D01F8FF0B021000B80102003F
S11303D070030400B801F8FFB801100070030400B2
S11303E03F03F8FF100310006E0210004B021000D0
S11303F06E02080000000800B80108006E02040044
S11304004B02F8FF2A0210000B021000EE0110004C
S11304100B021000000008005D0108009F010400A9
S11304205D01F8FFB801F0FF0B020400B801F8FF0A
S11304300B0210009302020070030400B801F8FFDD
S1130440B8011000700304003F03F8FF100310000C
S11304506E0210004B0210006E020800000008003B
S1130460B80108006E0204004B02F8FF2A021000D3
S11304700B021000EE0110000B0210000000080037
S11304805D0108009F0104005D01F8FFB801F0FF61
S1130490B80104005D01F8FF0B021000B80102006E
S11304A00000000000000000000000000000000048
S11304B00000000000000000000000000000000038
S11304C00000000000000000000000000000000028
S11304D00000000000000000000000000000000018
S11304E00000000000000000000000000000000008
S11304F000000000000000000000000000000000F8
S113050000000000000000000000000000000000E7
S113051000000000000000000000000000000000D7
S113052000000000000000000000000000000000C7
S113053000000000000000000000000000000000B7
S113054000000000000000000000000000000000A7
S11305500000000000000000000000000000000097
S11305600000000000000000000000000000000087
S11305700000000000000000000000000000000077
S11305800000000000000000000000000000000067
S11305900000000000000000000000000000000057
S11305A00000000000000000000000000000000047
S11305B00000000000000000000000000000000037
S11305C00000000000000000000000000000000027
S11305D00000000000000000000000000000000017
S11305E00000000000000000000000000000000007
S11305F000000000000000000000000000000000F7
S113060000000000000000000000000000000000E6
S113061000000000000000000000000000000000D6
S113062000000000000000000000000000000000C6
S113063000000000000000000000000000000000B6
S113064000000000000000000000000000000000A6
S11306500000000000000000000000000000000096
S11306600000000000000000000000000000000086
S11306700000000000000000000000000000000076
S11306800000000000000000000000000000000066
S11306900000000000000000000000000000000056
S11306A000000000000000008801080006010800A6
S11306B0370110005D0110008801080006010800E0
S11306C0370110005D0110008801080006010800D0
S11306D0370110005D0110008801080006010800C0
S11306E0370110005D0110008801080006010800B0
S11306F04A0110005D01100088010800060108008D
S11307004A0110005D01100088010800060108007C
S11307104A0110005D01100088010800060108006C
S11307204A0110005D0110008801FCFF0601FCFF76
S1130730370110005D011000880104000601040067
S1130740370110005D0110002601FFFF5D01FCFF71
S1130750E900FCFF37011000260110005D010400D0
S1130760E900FCFF37011000260110000601FFFF1D
S11307708801FCFF0601FCFF370110005D01100039
S11307808801040006010400370110005D01100017
S11307902601FFFF5D01FCFFE900FCFF37011000AB
S11307A0260110005D010400E900FCFF3701100080
S11307B0260110000601FFFF8801FCFF0601FCFF73
S11307C0370110005D0110008801040006010400D7
S11307D0370110005D0110002601FEFF5D01FCFFE2
S11307E0E900FCFF2601F8FF3701F8FF2601F8FFB6
S11307F0E900F8FF0601FFFF0B02FEFFD201FEFF36
S11308000601FEFF8801FEFF3701FEFF3701FCFFF2
S11308105D01FCFF8801FFFF0B02FEFFD201FEFF1A
S11308200601FEFF8801FEFF3701FEFF3701FCFFD2
S11308302601FCFF0B020800880108009F0110003C
S1130840D20110000B020800880108009F0110006B
S1130850D20110000B020800880108009F0110005B
S1130860D20110000B020800880108009F0110004B
S1130870D2011000000004003F031000A403100084
S113088017040800100308003F031000A40310001D
S113089017040800100310003F031000A403100005
S11308A017040800100308003F031000A4031000FD
S11308B00000000000000000000000000000000034
S11308C00000000000000000000000000000000024
S11308D00000000000000000000000000000000014
S11308E00000000000000000000000000000000004
S11308F000000000000000000000000000000000F4
S113090000000000000000000000000000000000E3
S113091000000000000000000000000000000000D3
S113092000000000000000000000000000000000C3
S113093000000000000000000000000000000000B3
S113094000000000000000000000000000000000A3
S11309500000000000000000000000000000000093
S11309600000000000000000000000000000000083
S11309700000000000000000000000000000000073
S11309800000000000000000000000000000000063
S11309900000000000000000000000000000000053
S11309A00000000000000000000000000000000043
S11309B00000000000000000000000000000000033
S11309C000000000000000004A01FCFF00000800D5
S11309D0720108008801FCFF0000080037010800CC
S11309E04A01F8FF720108008801F8FF0B020800B1
S11309F0EE01F8FF4A0108008801F8FFEE01080043
S1130A00D2010200B801F0FF8801F0FF4A01F0FFB3
S1130A102601F0FF4A010200000004000000080063
S1130A20370104004A01FCFF0000080072010800BD
S1130A308801FCFF00000800370108004A01F8FFA4
S1130A40720108008801F8FF0B020800EE01F8FFAC
S1130A5088010800EE01F8FF930208006E0201000D
S1130A604B020200000004000000080037010800E7
S1130A704A01FCFF00000800720108008801FCFF25
S1130A8000000800370108004A01F8FF720108005D
S1130A908801F8FF0B020800EE01F8FF4A01080084
S1130AA08801F8FFEE010800D2010200B801F0FF4E
S1130AB08801F0FF4A01F0FF2601F0FF4A01FCFF24
S1130AC000000400000004009302F8FF4B02080039
S1130AD0EE01F8FFB80108008801F8FF4A01F8FFA9
S1130AE0D2011000B801F8FFD2011000B801F8FFDC
S1130AF0D2011000B801F8FFD2011000B801F8FFCC
S1130B008801F0FF4A01F0FF2601F0FF4A011000BE
S1130B104A0110004A010200000000000000000029
S1130B2000000000000000000000000000000000C1
S1130B3000000000000000000000000000000000B1
S1130B4000000000000000000000000000000000A1
S1130B500000000000000000000000000000000091
S1130B600000000000000000000000000000000081
S1130B700000000000000000000000000000000071
S1130B800000000000000000000000000000000061
S1130B900000000000000000000000000000000051
S1130BA00000000000000000000000000000000041
S1130BB00000000000000000000000000000000031
S1130BC00000000000000000000000000000000021
S1130BD00000000000000000000000000000000011
S1130BE00000000000000000000000000000000001
S1130BF000000000000000000000000000000000F1
S1130C0000000000000000000000000000000000E0
S1130C1000000000000000000000000000000000D0
S1130C2000000000000000000000000000000000C0
S1130C3000000000000000000000000000000000B0
S1130C4000000000000000000000000000000000A0
S1130C500000000000000000000000000000000090
S1130C600000000000000000000000000000000080
S1130C700000000000000000000000000000000070
S1130C800000000000000000000000000000000060
S1130C900000000000000000000000000000000050
S1130CA00000000000000000000000000000000040
S1130CB00000000000000000000000000000000030
S1130CC00000000000000000000000000000000020
S1130CD00000000000000000000000000000000010
S1130CE000000000000000000000040000000800F4
S1130CF000000800000008004A010800B8010800CC
S1130D000B020800EE010800B80108000B020800FD
S1130D10B8010800EE010800B80108005D010800F0
S1130D20880108004A0102004A010800B8010800CD
S1130D300B020800EE010800B80108000B020800CD
S1130D40B80108000B020800B80108004A010800B5
S1130D503701080026010200260108005D01080091
S1130D609F010800EE010200260108005D01080051
S1130D709F010800B80102000601080006010800EE
S1130D80880108005D0108004A0108008801080084
S1130D905D0108005D0108004A0108004A010800DD
S1130DA09F010800B801020000000800B801080013
S1130DB0B80108009F01080088010200EE01080044
S1130DC0B80108005D0108004A0102004A01080058
S1130DD0880108004A0108002601020026010800D3
S1130DE0260108005D010800370108004A010200DD
S1130DF0000008004A010800B80108000B020800BE
S1130E00EE010800B80108000B020800B801080050
S1130E10EE010800B80108005D010800880108001F
S1130E204A0102004A010800B80108000B02080048
S1130E30EE010800B80108000B020800B801080020
S1130E400B020800B80108004A0108003701080035
S1130E5026010200260108005D0108009F01080028
S1130E60EE010200260108005D0108009F01080050
S1130E70B801020006010800060108008801080004
S1130E805D0108004A010800880108005D010800AE
S1130E905D0108004A0108004A0108009F0108009A
S1130EA0B801020000000800B8010800B8010800F9
S1130EB09F01080088010200EE010800B801080043
S1130EC05D0108004A0102004A0108008801080087
S1130ED04A01080026010200260108002601080034
S1130EE05D010800370108004A010200000000000B
S1130EF000000000000000000000000000000000EE
S1130F0000000000000000000000000000000000DD
S1130F1000000000000000000000000000000000CD
S1130F2000000000000000000000000000000000BD
S1130F3000000000000000000000000000000000AD
S1130F40000000000000000000000000000000009D
S1130F50000000000000000000000000000000008D
S1130F60000000000000000000000000000000007D
S1130F70000000000000000000000000000000006D
S1130F80000000000000000000000000000000005D
S1130F90000000000000000000000000000000004D
S1130FA0000000000000000000000000000000003D
S1130FB0000000000000000000000000000000002D
S1130FC0000000000000000000000000000000001D
S1130FD0000000000000000000000000000000000D
S1130FE000000000000000000000000000000000FD
S1130FF000000000000000000000000000000000ED
S1131000000000000000000011241FBECFEFD8E054
S1131010DEBFCDBF11E0A0E0B1E0E8E2F5E202C03E
S113102005900D92A039B107D9F721E0A0E9B1E00C
S113103001C01D92AD3BB207E1F70E94FF0F0C9473
S113104092120C9400009C0181E090E061157105FE
S113105059F0AC01429FC001439F900D529F900DE7
S1131060112461507109F2CF08950E944B0D89E556
S113107091E00E94350D80E090E00E94C80B2FE7BC
S11310808AE196E0215080409040E1F700C00000E2
S11310900895803629E092078CF42091AB013091B9
S11310A0AC01F901EE0FFF1FE956FE4F91838083D7
S11310B02F5F3F4F3093AC012093AB01089520E0A4
S11310C030E04091AB015091AC0124173507ACF4EA
S11310D0281739077CF0F9013196EE0FFF1FE95606
S11310E0FE4F40815181F901EE0FFF1FE956FE4F7B
S11310F0518340832F5F3F4FE4CF0895CF92DF9217
S1131100EF92FF920F931F93CF93DF938091AB01E4
S11311109091AC01892B09F44EC00F2EF0E9CF2E2B
S1131120F1E0DF2EF02D0F2EF1E9EF2EF1E0FF2E8E
S1131130F02D02E911E023E931E044E951E065E9E9
S113114071E086E991E00E94E80EC0E0D0E0809171
S1131150AB019091AC018C179D076CF1FE01EE0F71
S1131160FF1FE956FE4F20813181C90164E670E01A
S11311700E9435128091920190E068177907C9F4B2
S1131180C90164E670E00E9435122091910130E0BB
S11311908217930771F40E943508CE010E945F08FC
S11311A08091AB019091AC0101979093AC01809335
S11311B0AB012196CCCFDF91CF911F910F91FF907E
S11311C0EF90DF90CF900895CF93DF93EC0121E06F
S11311D030E0E0E0F0E0C217D3076CF0C90183709F
S11311E09927892B19F4E259FE4F02C0E359FE4FA7
S11311F02F5F3F4FF0CF20E030E0DB0111972A173B
S11312003B073CF591E0DE01A370BB27AB2B09F053
S113121090E0992391F091E02130310509F090E0BC
S1131220992359F0D901AA0FBB1FA050BF4F8D912C
S11312309C91E80FF91F319609C0D901AA0FBB1F71
S1131240A050BF4F8D919C91E80FF91F2F5F3F4F26
S1131250D4CF4E0F5F1FCA01059667E070E00E946D
S11312603512DF91CF9108956F927F928F929F9262
S1131270AF92BF92CF92DF92EF92FF920F931F93A0
S1131280CF93DF93EC0188809980AA80BB806C8027
S11312907D80A301B501C4010E94E4080E811F8171
S11312A0E884F984CA84DB84940121503109C1E0C3
S11312B02236310508F0C0E021E01A141B040CF0BA
S11312C020E061E09DE0A916B1040CF060E071E05B
S11312D0161417040CF070E051E090E269167104E2
S11312E00CF050E0312F3095331F3327331F41E08A
S11312F0083111050CF040E0AF2DA095AA1FAA27D4
S1131300AA1FB1E09CE3E916F1040CF0B0E09D2DB6
S11313109095E92FEE1FEE27EE1FF1E09CE3C9162E
S1131320D1040CF0F0E02C23622367235623952F7D
S1131330932349234A23942F9B239E2341F0FF2385
S113134031F0282F462D6A2D882D0E94A70EDF919B
S1131350CF911F910F91FF90EF90DF90CF90BF90AE
S1131360AF909F908F907F906F9008958A3020F473
S113137084E691E00E94350D0895CF92DF92EF92BA
S1131380FF920F931F93CF93DF93CDB7DEB7EC9704
S11313900FB6F894DEBF0FBECDBF0F2EF0E9CF2EEF
S11313A0F1E0DF2EF02D0F2EF1E9EF2EF1E0FF2E0C
S11313B0F02D02E911E023E931E044E951E065E967
S11313C071E086E991E00E94E80E809190014AE084
S11313D0BE016F5F7F4F90E00E945D12809191018A
S11313E04AE0BE01655F7F4F90E00E945D128091EC
S11313F092014AE0BE016B5E7F4F90E00E945D1255
S1131400809196014AE0BE01615E7F4F90E00E94A8
S11314105D12809195014AE0BE01675D7F4F90E0C7
S11314200E945D12809194014AE0BE016D5C7F4F81
S113143090E00E945D1280E090E00E94580D80E6EA
S113144091E00E94350D809196010E94B609CE016B
S11314504F960E94350D86E691E00E94350D8091ED
S113146095010E94B609CE0189960E94350D86E643
S113147091E00E94350D809194010E94B609CE013D
S1131480C3960E94350D81E090E00E94580D88E6D5
S113149091E00E94350D809192010E94B609CE011F
S11314A045960E94350D8DE691E00E94350D8091A0
S11314B091010E94B609CE010B960E94350D8DE66E
S11314C091E00E94350D809190010E94B609CE01F1
S11314D001960E94350DEC960FB6F894DEBF0FBE50
S11314E0CDBFDF91CF911F910F91FF90EF90DF90CF
S11314F0CF90089584B1846084B9E9E6F0E08081F6
S1131500836080838DB381608DBB789408954F92FE
S11315105F926F927F928F929F92AF92BF92CF927F
S1131520DF92EF92FF92CF93DF9300D000D0CDB73C
S1131530DEB76B017C0149015A0120E030E0A901CA
S11315400E946410882309F4ADC0A701960160E0ED
S113155070E080E89FE30E94691020E030E04AE7F1
S113156054E40E94C8116B017C019B01AC01C501CC
S1131570B4010E9469100E94DB102B013C0120E0A1
S113158030E040E05FE3C701B6010E94C8116983FF
S11315907A838B839C83812C912C5401841495042D
S11315A0A604B7040CF0B8C020E030E04AE753E4E6
S11315B069817A818B819C810E94C8116B017C01B5
S11315C020E030E040E85FE30E94641088232CF1BF
S11315D020E03FEF4FE757E4C701B6010E94C31173
S11315E01816B4F420E030E040E251E469817A81D5
S11315F08B819C810E94C8110E94E21061157105C3
S113160089F089E190E00197F1F761507109F6CF13
S1131610C701B6010E94E21002C061E070E0CB0194
S11316200197F1F785B1846085B920E030E040E8A6
S11316305FE3C701B6010E94641088232CF120E007
S11316403FEF4FE757E4C701B6010E94C3111816D4
S1131650B4F420E030E040E251E469817A818B8186
S11316609C810E94C8110E94E2106115710589F0E5
S113167089E190E00197F1F761507109F6CFC70154
S1131680B6010E94E21002C061E070E0CB01019754
S1131690F1F785B18B7F85B98FEF881A980AA80A6C
S11316A0B80A7CCF20E030E04AE753E4C501B40136
S11316B00E94C8116B017C0120E030E040E85FE348
S11316C00E94641088231CF120E03FEF4FE757E4A9
S11316D0C701B6010E94C3111816A4F420E030E03B
S11316E040E251E4C501B4010E94C8110E94E21015
S11316F06115710589F089E190E00197F1F7615076
S11317007109F6CFC701B6010E94E21002C061E080
S113171070E0CB010197F1F70F900F900F900F90AD
S1131720DF91CF91FF90EF90DF90CF90BF90AF907B
S11317309F908F907F906F905F904F9008951F922D
S11317400F920FB60F9211248F939F931092190149
S11317501092180188EA91E60197F1F79F918F9111
S11317600F900FBE0F901F901895009741F0813095
S1131770910541F0029749F485E590E0089581EEE2
S113178090E0089588E790E0089588E790E0089550
S11317902F923F924F925F926F927F928F929F927D
S11317A0AF92BF92CF92DF92EF92FF920F931F936B
S11317B0CF93DF9300D000D0CDB7DEB71C010E94D9
S11317C0B50BBC01990F880B990B0E9413119B0157
S11317D0AC0160E07CE782E198E40E9469100E9419
S11317E0DB107A8369831C821B82E12CF12C8B81B0
S11317F09C81803991400CF0ADC08091180190918A
S11318001901019709F0A2C080E293E0289E8001AB
S1131810299E100D389E100D112408591F4FCB809E
S1131820DC80F6013196EE0FFF1FE00FF11F65918A
S113183074911616170634F489819A810E94351220
S11318407B011CC07723BCF489819A810E943512E4
S1131850072E000C880B990B0E94131120E030E036
S113186040EC5FE30E94C8110E94DB10EE24FF24C9
S1131870E61AF70A03C0672B09F46CC0B7010F2CF2
S1131880000C880B990B0E9413112B013C0126E6D6
S113189036E646E65FE30E94C8114B015C01F6019F
S11318A0EE0FFF1FE00FF11F6591749180E090E04F
S11318B00E941111A50194010E94870A20E030E0E2
S11318C040E05FE3C301B2010E94C8112B013C0157
S11318D020E030E04AE753E40E94C8114B015C0168
S11318E020E030E040E85FE30E94641088231CF1AC
S11318F020E03FEF4FE757E4C501B4010E94C31154
S11319001816A4F420E030E040E251E4C301B2012F
S11319100E94C8110E94E2106115710589F089E1E5
S113192090E00197F1F761507109F6CFC501B40158
S11319300E94E21002C061E070E0CB010197F1F770
S11319408B819C8102969C838B8351CF10921901C9
S1131950109218010F900F900F900F90DF91CF917C
S11319601F910F91FF90EF90DF90CF90BF90AF90B9
S11319709F908F907F906F905F904F903F902F90AB
S1131980089595B19F70282F207F922B95B995B11A
S11319909E7F95B995B1926095B9000095B19D7FF0
S11319A095B932E43A95F1F700C025B130E1839F4F
S11319B0C0011124922F9F70892B85B985B1826053
S11319C085B9000085B18D7F85B983EF91E00197DA
S11319D0F1F700C00000089595B19F70282F207F73
S11319E0922B95B995B1916095B995B1926095B9DD
S11319F0000095B19D7F95B932E43A95F1F700C0A6
S1131A0025B130E1839FC0011124922F9F70892B4F
S1131A1085B985B1826085B9000085B18D7F85B9AE
S1131A2083EF91E00197F1F700C0000008958FEF74
S1131A3084B987E893E10197F1F700C0000082E0E0
S1131A400E94C10C88E20E94C10C8CE00E94C10C6F
S1131A5086E00E94C10C81E00E94C10C83EF91E0FA
S1131A600197F1F700C0000008950F931F93CF93DF
S1131A70DF938C01C0E0D0E0F801EC0FFD1F808102
S1131A80882321F00E94EC0C2196F6CFDF91CF91B0
S1131A901F910F91089581E00E94C10C83EF91E0A2
S1131AA00197F1F700C0000080E80E94C10C08957E
S1131AB0892B21F480E80E94C10C089580EC0E94D7
S1131AC0C10C08950F931F93CF93DF93C82F8B01FD
S1131AD080E090E00E94580D90ED9C0F81E09A30D8
S1131AE008F080E091E00230110509F090E08823CD
S1131AF0E9F19923D9F180E090E00E94580DD0E0FB
S1131B00E09760913801709139018AE090E00E9479
S1131B1023089C01C29FC001C39F900DD29F900DCA
S1131B2011242091BB013091BC01820F931F90932B
S1131B30BC018093BB014AE06FEA71E00E945D1230
S1131B408FEA91E00E94350D80913801909139011E
S1131B50019790933901809338013FEF80E792E039
S1131B60315080409040E1F700C00000033011057F
S1131B7079F58091BB019091BC010E94490880E0F5
S1131B8090E00E94580D8FE691E00E94350D81E0AF
S1131B9090E00E94580D8FEA91E00E94350D10925A
S1131BA0BC011092BB011092BA011092B90183E0FA
S1131BB090E090933901809338012FE73AE186E071
S1131BC0215030408040E1F700C000000E944B0DDE
S1131BD0DF91CF911F910F9108951F93CF93DF93BE
S1131BE0182FEB0180E090E00E94580D81E0C13095
S1131BF0D10509F080E091E0183309F090E09923D1
S1131C00A9F0882399F02091AD013091AE012F5FA6
S1131C103F4F3093AE012093AD012FE738E391E0BD
S1131C20215030409040E1F700C0000091E01233B1
S1131C3009F090E09923A1F0882391F08091AD01FF
S1131C409091AE0101979093AE018093AD012FE77F
S1131C5038E381E0215030408040E1F700C00000CB
S1131C608091AD019091AE01039724F01092AE01E2
S1131C701092AD018091AD019091AE01992334F49D
S1131C8082E090E09093AE018093AD01C130D10524
S1131C90F9F480E090E00E94580D8FE791E00E94F3
S1131CA0350D8091AD019091AE0163E070E00E942A
S1131CB035129C01220F331F880F991F880F991F1B
S1131CC0880F991F820F931F865E9E4F0E94350DC9
S1131CD081E02091AD013091AE01232B09F080E029
S1131CE0882359F081E0C230D1050CF480E08823C8
S1131CF021F0BE01812F0E94620DDF91CF911F91CF
S1131D0008959DEC899F912D11249695969596950D
S1131D10292F220F920F292F220F820F0895282F87
S1131D2030E0359527953595279535952795359543
S1131D302795922F990F290F922F990F891B089598
S1131D400E94400F83E08A95F1F700000895CF9236
S1131D50EF92FF920F931F93CF93DF93C82FD62F49
S1131D60142FF22E80ED0E946C0F80E00E949E0FD3
S1131D708C2D0E94810E0E949E0F8E2D0E94810E3A
S1131D800E949E0F802F0E94810E0E949E0F8F2D15
S1131D900E94810E0E949E0F812F0E94810E0E943C
S1131DA09E0F8D2F0E94810E0E949E0F8C2F0E94E9
S1131DB0810E0E949E0F80E00E949E0F0E94960F4B
S1131DC0DF91CF911F910F91FF90EF90CF900895E5
S1131DD06F927F928F929F92AF92BF92CF92DF9237
S1131DE0EF92FF920F931F93CF93DF93EC013B018C
S1131DF05A01490180ED0E946C0F80E00E949E0F01
S1131E000E94960F81ED0E94930F0E94B00F8F776E
S1131E100E948F0EF60180830E94B00F0E948F0EE5
S1131E20F70180830E94B00F0E948F0EF801808317
S1131E300E94B00F0E948F0EF40180830E94B00FA5
S1131E400E948F0EF50180830E94B00F0E948F0EB6
S1131E50F30180830E94BA0F0E948F0E88830E9430
S1131E60960FDF91CF911F910F91FF90EF90DF902C
S1131E70CF90BF90AF909F908F907F906F90089578
S1131E801092B9008DEF8093B800089594EA90936E
S1131E90BC009091BC009923E4F79091B900987F1D
S1131EA0983011F0903191F48093BB0084E88093D2
S1131EB0BC008091BC008823E4F78091B900887F3E
S1131EC0883131F0803431F480E0089581E0089560
S1131ED080E0089581E0089594EA9093BC00909185
S1131EE0BC009923E4F79091B900987F983011F0E1
S1131EF0903191F78093BB0094E89093BC0090914B
S1131F00BC009923E4F79091B900987F903211F0C6
S1131F10983541F494E99093BC009091BC0094FDF1
S1131F20FCCFDACF08950E94460F089584E9809388
S1131F30BC008091BC0084FDFCCF08958093BB005D
S1131F4084E88093BC008091BC008823E4F78091EE
S1131F50B900887F883211F081E0089580E0089507
S1131F6084EC8093BC008091BC008823E4F78091CA
S1131F70BB00089584E88093BC008091BC00882352
S1131F80E4F78091BB0008958FE087B960E070E0CA
S1131F906430710594F581E090E0FB01E35CFE4F51
S1131FA0008002C0880F991F0A94E2F788B980E084
S1131FB090E083309105F4F449B150E021E030E041
S1131FC0FC01E65CFE4F008002C0220F331F0A941E
S1131FD0E2F74217530761F49B01220F331F620F8C
S1131FE0731F6F5B7E4FFB01E80FF91F808108951B
S1131FF00196DFCF6F5F7F4FCBCF86E20895CF93FB
S1132000DF93CDB7DEB72C970FB6F894DEBF0FBEC3
S1132010CDBF0E947A0A0E94170D82E891E00E94C7
S1132020350D2FE38DE093E0215080409040E1F79F
S113203000C000000E944B0D0E94A00E8CE0EDE455
S1132040F1E0DE01119601900D928A95E1F7CE013F
S113205001960E94340900E010E00E947E080E946C
S1132060C40FF82E0115110511F40E94BD092AE2CE
S1132070F2120DC08FE798E321E081509040204098
S1132080E1F700C000000F5F1F4F0E944B0D1016B8
S1132090110624F4B8018F2D0E94ED0D03301105B3
S11320A011F400E010E083E2F812D7CF9FE728E3B1
S11320B081E0915020408040E1F700C000000150D1
S11320C011090E944B0DC9CF0E944E1108F481E002
S11320D008950E947D100C9489110E94821158F079
S11320E00E947B1140F029F45F3F29F00C94721197
S11320F051110C94BD110C9478110E949A1168F33B
S11321009923B1F3552391F3951B550BBB27AA27AC
S113211062177307840738F09F5F5F4F220F331FE6
S1132120441FAA1FA9F335D00E2E3AF0E0E832D0AE
S113213091505040E695001CCAF72BD0FE2F29D0B1
S1132140660F771F881FBB1F261737074807AB0783
S1132150B0E809F0BB0B802DBF01FF2793585F4FF8
S11321603AF09E3F510578F00C9472110C94BD1115
S11321705F3FE4F3983ED4F3869577956795B795DA
S1132180F7959F5FC9F7880F911D9695879597F9E5
S11321900895E1E0660F771F881FBB1F621773075E
S11321A08407BA0720F0621B730B840BBA0BEE1F73
S11321B088F7E09508950E94E2106894B1110C9498
S11321C0BD1108950E94A21188F09F5798F0B92F6D
S11321D09927B751B0F0E1F0660F771F881F991F58
S11321E01AF0BA95C9F714C0B13091F00E94BC112D
S11321F0B1E008950C94BC11672F782F8827B85F3D
S113220039F0B93FCCF3869577956795B395D9F7AF
S11322103EF490958095709561957F4F8F4F9F4FB9
S11322200895E89409C097FB3EF4909580957095C5
S113223061957F4F8F4F9F4F9923A9F0F92F96E90E
S1132240BB279395F695879577956795B795F11183
S1132250F8CFFAF4BB0F11F460FF1BC06F5F7F4F20
S11322608F4F9F4F16C0882311F096E911C0772332
S113227021F09EE8872F762F05C0662371F096E83B
S1132280862F70E060E02AF09A95660F771F881F0A
S1132290DAF7880F9695879597F90895990F0008AE
S11322A0550FAA0BE0E8FEEF16161706E807F90724
S11322B0C0F012161306E407F50798F0621B730BBF
S11322C0840B950B39F40A2661F0232B242B252B40
S11322D021F408950A2609F4A140A6958FEF811DE3
S11322E0811D089597F99F6780E870E060E0089584
S11322F09FEF80EC089500240A941616170618061A
S11323000906089500240A941216130614060506F5
S11323100895092E0394000C11F4882352F0BB0F86
S113232040F4BF2B11F460FF04C06F5F7F4F8F4FE9
S11323309F4F089557FD9058440F551F59F05F3F24
S113234071F04795880F97FB991F61F09F3F79F0D3
S113235087950895121613061406551FF2CF469555
S1132360F1DF08C0161617061806991FF1CF8695D7
S11323707105610508940895E894BB2766277727BB
S1132380CB0197F908950E944E1108F48FEF089538
S11323900E94DB110C9489110E947B1138F00E9479
S11323A0821120F0952311F00C9472110C94781181
S11323B011240C94BD110E949A1170F3959FC1F3DE
S11323C0950F50E0551F629FF001729FBB27F00DDF
S11323D0B11D639FAA27F00DB11DAA1F649F662734
S11323E0B00DA11D661F829F2227B00DA11D621F83
S11323F0739FB00DA11D621F839FA00D611D221F3D
S1132400749F3327A00D611D231F849F600D211D20
S1132410822F762F6A2F11249F5750409AF0F1F0A3
S113242088234AF0EE0FFF1FBB1F661F771F881F0C
S113243091505040A9F79E3F510580F00C947211C1
S11324400C94BD115F3FE4F3983ED4F386957795E1
S11324506795B795F795E7959F5FC1F7FE2B880FB2
S1132460911D9695879597F9089597FB072E16F475
S1132470009407D077FD09D00E94491207FC05D0CB
S11324803EF4909581959F4F0895709561957F4F87
S11324900895AA1BBB1B51E107C0AA1FBB1FA617A7
S11324A0B70710F0A61BB70B881F991F5A95A9F7F9
S11324B080959095BC01CD010895BB274A3031F435
S11324C0992322F4BDE2909581959F4F0C94691253
S11324D0BB27FB015527AA27880F991FAA1FA417FA
S11324E010F0A41B83955051B9F7A05DAA3308F0EE
S11324F0A95DA193009779F7B111B1931192CB0122
S11325000C948212DC01FC01672F71917723E1F7AF
S1132510329704C07C916D9370836291AE17BF07AC
S10B2520C8F30895F894FFCFFD
S11325281F001C001F001E001F001E001F001F00AC
S11325381E001F001E001F00010053455420414C7B
S113254841524D005345542054494D4520005345AC
S11325585420544F4E452000030004050600010290
S1132568033132333435363738392A3023150005E8
S11325780004000C000800230052494E47212100A2
S11325882020203230002D0020202020003A004155
S11325984C41524D2049532053455420544F003E3A
S11325A83E0020202057454C434F4D452121210012
S9030000FC
