:100000000C9404080C9421080C94550E0C942108AF
:100010000C9421080C9421080C9421080C942108BC
:100020000C9421080C9421080C9421080C942108AC
:100030000C9421080C9421080C9421080C9421089C
:100040000C9421080C9421080C9421080C9421088C
:100050000C9421080C9421080C9421080C9421087C
:100060000C9421080C94210852000800520008004A
:10007000A500080052000800520008009300080084
:1000800052000800520008008300080052000800D7
:1000900052000800750008005200080052000800D5
:1000A0007B0008008300080052000800520008008E
:1000B000A500080052000800520008009300080044
:1000C0005200080052000800830008005200080097
:1000D000520008007500FEFF5200080052000800A0
:1000E000A500080052000800520008009300080014
:1000F0005200080052000800830008005200080067
:100100005200080075000800520008005200080064
:100110007B0008008300080052000800520008001D
:10012000A5000800520008005200080093000800D3
:100130005200080052000800830008005200080026
:10014000520008007500FEFF52000800520008002F
:10015000A5000800520008005200080093000800A3
:1001600052000800520008008300080052000800F6
:1001700052000800750008005200080052000800F4
:100180007B000800830008005200080052000800AD
:10019000A500080052000800520008009300080063
:1001A00052000800520008008300080052000800B6
:1001B000520008007500FEFF5200080052000800BF
:1001C000A500080052000800520008009300080033
:1001D0005200080052000800830008005200080086
:1001E0005200080075000800520008005200080084
:1001F0007B0008008300080052000800520008003D
:10020000A5000800520008005200080093000800F2
:100210005200080052000800B900F0FF9300F0FF00
:100220007B00F0FFDC00F0FFB900F0FF7B00F0FF87
:100230009300F0FFB900F0FFDC00F0FFB900F0FF21
:100240009300F0FF7B00F0FF0000000000000000C2
:10025000000000000000000000000000000000009E
:10026000000000000000000000000000000000008E
:10027000000000000000000000000000000000007E
:10028000000000000000000000000000000000006E
:10029000000000000000000000000000000000005E
:1002A000000000000000000000000000000000004E
:1002B000000000000000000000000000000000003E
:1002C000000000000000000000000000000000002E
:1002D000000000000000000000000000000000001E
:1002E000000000000000000000000000000000000E
:1002F00000000000000000000000000000000000FE
:1003000000000000000000000000000000000000ED
:1003100000000000000000000000000000000000DD
:1003200000000000000000000000000000000000CD
:1003300000000000000000000000000000000000BD
:1003400000000000000000000000000000000000AD
:10035000000000000000000000000000000000009D
:10036000000000000000000000000000000000008D
:10037000000000000000000000000000000000007D
:100380000000000000000000B8010400B8010400F3
:10039000B80104005D01F8FF0B021000B801040071
:1003A0005D01F8FF0B021000B80102009302040087
:1003B0009302040093020400BA02F8FF0B0210003B
:1003C000B80104005D01F8FF0B021000B801020043
:1003D00070030400B801F8FFB801100070030400B6
:1003E0003F03F8FF100310006E0210004B021000D4
:1003F0006E02080000000800B80108006E02040048
:100400004B02F8FF2A0210000B021000EE01100050
:100410000B021000000008005D0108009F010400AD
:100420005D01F8FFB801F0FF0B020400B801F8FF0E
:100430000B0210009302020070030400B801F8FFE1
:10044000B8011000700304003F03F8FF1003100010
:100450006E0210004B0210006E020800000008003F
:10046000B80108006E0204004B02F8FF2A021000D7
:100470000B021000EE0110000B021000000008003B
:100480005D0108009F0104005D01F8FFB801F0FF65
:10049000B80104005D01F8FF0B021000B801020072
:1004A000000000000000000000000000000000004C
:1004B000000000000000000000000000000000003C
:1004C000000000000000000000000000000000002C
:1004D000000000000000000000000000000000001C
:1004E000000000000000000000000000000000000C
:1004F00000000000000000000000000000000000FC
:1005000000000000000000000000000000000000EB
:1005100000000000000000000000000000000000DB
:1005200000000000000000000000000000000000CB
:1005300000000000000000000000000000000000BB
:1005400000000000000000000000000000000000AB
:10055000000000000000000000000000000000009B
:10056000000000000000000000000000000000008B
:10057000000000000000000000000000000000007B
:10058000000000000000000000000000000000006B
:10059000000000000000000000000000000000005B
:1005A000000000000000000000000000000000004B
:1005B000000000000000000000000000000000003B
:1005C000000000000000000000000000000000002B
:1005D000000000000000000000000000000000001B
:1005E000000000000000000000000000000000000B
:1005F00000000000000000000000000000000000FB
:1006000000000000000000000000000000000000EA
:1006100000000000000000000000000000000000DA
:1006200000000000000000000000000000000000CA
:1006300000000000000000000000000000000000BA
:1006400000000000000000000000000000000000AA
:10065000000000000000000000000000000000009A
:10066000000000000000000000000000000000008A
:10067000000000000000000000000000000000007A
:10068000000000000000000000000000000000006A
:10069000000000000000000000000000000000005A
:1006A00000000000000000008801080006010800AA
:1006B000370110005D0110008801080006010800E4
:1006C000370110005D0110008801080006010800D4
:1006D000370110005D0110008801080006010800C4
:1006E000370110005D0110008801080006010800B4
:1006F0004A0110005D011000880108000601080091
:100700004A0110005D011000880108000601080080
:100710004A0110005D011000880108000601080070
:100720004A0110005D0110008801FCFF0601FCFF7A
:10073000370110005D01100088010400060104006B
:10074000370110005D0110002601FFFF5D01FCFF75
:10075000E900FCFF37011000260110005D010400D4
:10076000E900FCFF37011000260110000601FFFF21
:100770008801FCFF0601FCFF370110005D0110003D
:100780008801040006010400370110005D0110001B
:100790002601FFFF5D01FCFFE900FCFF37011000AF
:1007A000260110005D010400E900FCFF3701100084
:1007B000260110000601FFFF8801FCFF0601FCFF77
:1007C000370110005D0110008801040006010400DB
:1007D000370110005D0110002601FEFF5D01FCFFE6
:1007E000E900FCFF2601F8FF3701F8FF2601F8FFBA
:1007F000E900F8FF0601FFFF0B02FEFFD201FEFF3A
:100800000601FEFF8801FEFF3701FEFF3701FCFFF6
:100810005D01FCFF8801FFFF0B02FEFFD201FEFF1E
:100820000601FEFF8801FEFF3701FEFF3701FCFFD6
:100830002601FCFF0B020800880108009F01100040
:10084000D20110000B020800880108009F0110006F
:10085000D20110000B020800880108009F0110005F
:10086000D20110000B020800880108009F0110004F
:10087000D2011000000004003F031000A403100088
:1008800017040800100308003F031000A403100021
:1008900017040800100310003F031000A403100009
:1008A00017040800100308003F031000A403100001
:1008B0000000000000000000000000000000000038
:1008C0000000000000000000000000000000000028
:1008D0000000000000000000000000000000000018
:1008E0000000000000000000000000000000000008
:1008F00000000000000000000000000000000000F8
:1009000000000000000000000000000000000000E7
:1009100000000000000000000000000000000000D7
:1009200000000000000000000000000000000000C7
:1009300000000000000000000000000000000000B7
:1009400000000000000000000000000000000000A7
:100950000000000000000000000000000000000097
:100960000000000000000000000000000000000087
:100970000000000000000000000000000000000077
:100980000000000000000000000000000000000067
:100990000000000000000000000000000000000057
:1009A0000000000000000000000000000000000047
:1009B0000000000000000000000000000000000037
:1009C00000000000000000004A01FCFF00000800D9
:1009D000720108008801FCFF0000080037010800D0
:1009E0004A01F8FF720108008801F8FF0B020800B5
:1009F000EE01F8FF4A0108008801F8FFEE01080047
:100A0000D2010200B801F0FF8801F0FF4A01F0FFB7
:100A10002601F0FF4A010200000004000000080067
:100A2000370104004A01FCFF0000080072010800C1
:100A30008801FCFF00000800370108004A01F8FFA8
:100A4000720108008801F8FF0B020800EE01F8FFB0
:100A500088010800EE01F8FF930208006E02010011
:100A60004B020200000004000000080037010800EB
:100A70004A01FCFF00000800720108008801FCFF29
:100A800000000800370108004A01F8FF7201080061
:100A90008801F8FF0B020800EE01F8FF4A01080088
:100AA0008801F8FFEE010800D2010200B801F0FF52
:100AB0008801F0FF4A01F0FF2601F0FF4A01FCFF28
:100AC00000000400000004009302F8FF4B0208003D
:100AD000EE01F8FFB80108008801F8FF4A01F8FFAD
:100AE000D2011000B801F8FFD2011000B801F8FFE0
:100AF000D2011000B801F8FFD2011000B801F8FFD0
:100B00008801F0FF4A01F0FF2601F0FF4A011000C2
:100B10004A0110004A01020000000000000000002D
:100B200000000000000000000000000000000000C5
:100B300000000000000000000000000000000000B5
:100B400000000000000000000000000000000000A5
:100B50000000000000000000000000000000000095
:100B60000000000000000000000000000000000085
:100B70000000000000000000000000000000000075
:100B80000000000000000000000000000000000065
:100B90000000000000000000000000000000000055
:100BA0000000000000000000000000000000000045
:100BB0000000000000000000000000000000000035
:100BC0000000000000000000000000000000000025
:100BD0000000000000000000000000000000000015
:100BE0000000000000000000000000000000000005
:100BF00000000000000000000000000000000000F5
:100C000000000000000000000000000000000000E4
:100C100000000000000000000000000000000000D4
:100C200000000000000000000000000000000000C4
:100C300000000000000000000000000000000000B4
:100C400000000000000000000000000000000000A4
:100C50000000000000000000000000000000000094
:100C60000000000000000000000000000000000084
:100C70000000000000000000000000000000000074
:100C80000000000000000000000000000000000064
:100C90000000000000000000000000000000000054
:100CA0000000000000000000000000000000000044
:100CB0000000000000000000000000000000000034
:100CC0000000000000000000000000000000000024
:100CD0000000000000000000000000000000000014
:100CE00000000000000000000000040000000800F8
:100CF00000000800000008004A010800B8010800D0
:100D00000B020800EE010800B80108000B02080001
:100D1000B8010800EE010800B80108005D010800F4
:100D2000880108004A0102004A010800B8010800D1
:100D30000B020800EE010800B80108000B020800D1
:100D4000B80108000B020800B80108004A010800B9
:100D50003701080026010200260108005D01080095
:100D60009F010800EE010200260108005D01080055
:100D70009F010800B80102000601080006010800F2
:100D8000880108005D0108004A0108008801080088
:100D90005D0108005D0108004A0108004A010800E1
:100DA0009F010800B801020000000800B801080017
:100DB000B80108009F01080088010200EE01080048
:100DC000B80108005D0108004A0102004A0108005C
:100DD000880108004A0108002601020026010800D7
:100DE000260108005D010800370108004A010200E1
:100DF000000008004A010800B80108000B020800C2
:100E0000EE010800B80108000B020800B801080054
:100E1000EE010800B80108005D0108008801080023
:100E20004A0102004A010800B80108000B0208004C
:100E3000EE010800B80108000B020800B801080024
:100E40000B020800B80108004A0108003701080039
:100E500026010200260108005D0108009F0108002C
:100E6000EE010200260108005D0108009F01080054
:100E7000B801020006010800060108008801080008
:100E80005D0108004A010800880108005D010800B2
:100E90005D0108004A0108004A0108009F0108009E
:100EA000B801020000000800B8010800B8010800FD
:100EB0009F01080088010200EE010800B801080047
:100EC0005D0108004A0102004A010800880108008B
:100ED0004A01080026010200260108002601080038
:100EE0005D010800370108004A010200000000000F
:100EF00000000000000000000000000000000000F2
:100F000000000000000000000000000000000000E1
:100F100000000000000000000000000000000000D1
:100F200000000000000000000000000000000000C1
:100F300000000000000000000000000000000000B1
:100F400000000000000000000000000000000000A1
:100F50000000000000000000000000000000000091
:100F60000000000000000000000000000000000081
:100F70000000000000000000000000000000000071
:100F80000000000000000000000000000000000061
:100F90000000000000000000000000000000000051
:100FA0000000000000000000000000000000000041
:100FB0000000000000000000000000000000000031
:100FC0000000000000000000000000000000000021
:100FD0000000000000000000000000000000000011
:100FE0000000000000000000000000000000000001
:100FF00000000000000000000000000000000000F1
:10100000000000000000000011241FBECFEFD8E058
:10101000DEBFCDBF12E0A0E0B1E0E4E6F0E302C045
:1010200005900D92AE35B107D9F722E0AEE5B2E0FA
:1010300001C01D92AB3BB207E1F70E94AF150C94C3
:1010400030180C9400009C0181E090E0611571055E
:1010500059F0AC01429FC001439F900D529F900DEB
:10106000112461507109F2CF0895CF93DF93EC0101
:101070000E9401108FE891E00E94EB0FCE010E94C8
:101080007E0EDF91CF910895803629E092078CF48F
:1010900020919D0230919E02F901EE0FFF1FE7574C
:1010A000FD4F918380832F5F3F4F30939E022093AB
:1010B0009D020895E0919D02F0919E02EE0FFF1FA8
:1010C000EB58FD4F91838083089520E030E04091FC
:1010D0009D0250919E022417350714F528173907F1
:1010E000E4F0A9014F5F5F4F440F551FFA01E75726
:1010F000FD4FA081B181B901660F771FFB01E75752
:10110000FD4FB183A083FA01EB58FD4F408151811F
:10111000FB01EB58FD4F518340832F5F3F4FD7CFEB
:101120000895CF92DF92EF92FF920F931F93CF9388
:10113000DF9380919D0290919E02892B09F455C006
:101140000F2EFEE6CF2EF2E0DF2EF02D0F2EFFE663
:10115000EF2EF2E0FF2EF02D00E712E021E732E063
:1011600042E752E063E772E084E792E00E9498145D
:10117000C0E0D0E080919D0290919E028C179D0767
:10118000A4F1FE01EE0FFF1FE757FD4F20813181D3
:10119000C90164E670E00E94D3178091700290E06C
:1011A0006817790701F5C90164E670E00E94D3175A
:1011B00020916F0230E082179307A9F4FE01EE0F31
:1011C000FF1FEB58FD4F808191810E943508CE01B1
:1011D0000E94650880919D0290919E0201979093D4
:1011E0009E0280939D022196C5CFDF91CF911F91E2
:1011F0000F91FF90EF90DF90CF900895CF93DF9302
:10120000EC0121E030E0E0E0F0E0C217D3076CF041
:10121000C90183709927892B19F4E259FE4F02C046
:10122000E359FE4F2F5F3F4FF0CF20E030E0DB016E
:1012300011972A173B073CF591E0DE01A370BB270D
:10124000AB2B09F090E0992391F091E0213031052A
:1012500009F090E0992359F0D901AA0FBB1FAE5FA6
:10126000BE4F8D919C91E80FF91F319609C0D901AD
:10127000AA0FBB1FAE5FBE4F8D919C91E80FF91F67
:101280002F5F3F4FD4CF4E0F5F1FCA01059667E017
:1012900070E00E94D317DF91CF9108956F927F92F3
:1012A0008F929F92AF92BF92CF92DF92EF92FF9276
:1012B0000F931F93CF93DF93EC0188809980AA80CE
:1012C000BB806C807D80A301B501C4010E94FE0833
:1012D0000E811F81E884F984CA84DB849401215043
:1012E0003109C1E02236310508F0C0E021E01A14CE
:1012F0001B040CF020E061E09DE0A916B1040CF0A5
:1013000060E071E0161417040CF070E051E090E218
:10131000691671040CF050E0312F3095331F3327DC
:10132000331F41E0083111050CF040E0AF2DA095CE
:10133000AA1FAA27AA1FB1E09CE3E916F1040CF04A
:10134000B0E09D2D9095E92FEE1FEE27EE1FF1E006
:101350009CE3C916D1040CF0F0E02C236223672330
:101360005623952F932349234A23942F9B239E236F
:1013700041F0FF2331F0282F462D6A2D882D0E9441
:101380005714DF91CF911F910F91FF90EF90DF9055
:10139000CF90BF90AF909F908F907F906F90089567
:1013A000CF93DF93CDB7DEB72A970FB6F894DEBFA1
:1013B0000FBECDBF4AE0BE016F5F7F4F0E94FB179B
:1013C000CE0101960E94EB0F2A960FB6F894DEBF6D
:1013D0000FBECDBFDF91CF9108958A3020F48AE906
:1013E00091E00E94EB0F0895CF92DF92EF92FF926F
:1013F0000F931F930F2EFEE6CF2EF2E0DF2EF02D7F
:101400000F2EFFE6EF2EF2E0FF2EF02D00E712E0A8
:1014100021E732E042E752E063E772E084E792E0DE
:101420000E94981480E090E00E940E1086E991E0FE
:101430000E94EB0F809174020E94ED09809174026A
:1014400090E00E94D0098CE991E00E94EB0F80911E
:1014500073020E94ED098091730290E00E94D0090E
:101460008CE991E00E94EB0F809172020E94ED09DD
:101470008091720290E00E94D00981E090E00E9489
:101480000E108BE292E00E94EB0F809170020E949E
:10149000ED098091700290E00E94D0098EE991E000
:1014A0000E94EB0F80916F020E94ED0980916F0204
:1014B00090E00E94D0098EE991E00E94EB0F8091AC
:1014C0006E020E94ED0980916E0290E00E94D009A8
:1014D0001F910F91FF90EF90DF90CF9008950F93A1
:1014E0001F93CF93DF93C82F8B0180E090E00E9481
:1014F0000E1081E00230110509F080E091E0C83360
:1015000009F090E09923A9F0882399F020916C02CA
:1015100030916D022F5F3F4F30936D0220936C022C
:101520002FE53AEE90E0215030409040E1F700C0C6
:10153000000091E0C23309F090E09923A1F08823E4
:1015400091F080916C0290916D02019790936D02E1
:1015500080936C022FE53AEE80E0215030408040CD
:10156000E1F700C0000081E020919D0230919E02D1
:10157000232B09F480E0882309F461C081E0C5339E
:1015800009F080E0882309F45AC00E940110E0911C
:101590006C02F0916D02EE0FFF1FE757FD4F808147
:1015A0009181C4E6D0E0BE010E94D317CB0163E075
:1015B00070E00E943C108EE991E00E94EB0FE091F8
:1015C0006C02F0916D02EE0FFF1FE757FD4F808117
:1015D0009181BE010E94D31763E070E00E943C102D
:1015E00080EA91E00E94EB0F81E090E00E940E10F3
:1015F00089EA91E00E94EB0F9FEB27E239E09150DE
:1016000020403040E1F700C000000E9401108091AE
:101610006C0290916D020E94650880919D029091EC
:101620009E02019790939E0280939D028FE59AEE11
:1016300020E0815090402040E1F700C00000209160
:101640006C0230916D0280919D0290919E0228174C
:10165000390724F010926D0210926C0220916C02F6
:1016600030916D0233232CF4019790936D02809397
:101670006C020230110509F04CC080E090E00E943D
:101680000E1080919D0290919E02892B69F486EB49
:1016900091E00E94EB0F81E090E00E940E1083EC3D
:1016A00091E00E94EB0F35C08FEC91E00E94EB0FB0
:1016B00081E090E00E940E108EED91E00E94EB0F11
:1016C000E0916C02F0916D02EE0FFF1FE757FD4FA6
:1016D00080819181C4E6D0E0BE010E94D317CB0186
:1016E00063E070E00E943C108EE991E00E94EB0FF5
:1016F000E0916C02F0916D02EE0FFF1FE757FD4F76
:1017000080819181BE010E94D31763E070E00E9446
:101710003C10DF91CF911F910F910895CF92DF92EE
:10172000EF92FF920F931F930F2EFEE6CF2EF2E063
:10173000DF2EF02D0F2EFFE6EF2EF2E0FF2EF02D24
:1017400000E712E021E732E042E752E063E772E0AF
:1017500084E792E00E94981480916E0290E02091BC
:101760000001309101018217930761F0E6E6F2E093
:1017700024813581215031093583248390930101DF
:101780008093000180916A0290916B020196F9F4B6
:101790008091680290916902009781F480916602BD
:1017A00090916702009799F0E6E6F2E02BE330E0D3
:1017B0003383228301979183808309C0E6E6F2E0B8
:1017C0002BE330E0358324830197938382831F9139
:1017D0000F91FF90EF90DF90CF900895FF920F93BD
:1017E0001F93CF93DF93F82E8B0181E090E00E944E
:1017F0000E108CE292E00E94EB0FC0E0D0E0C3300C
:10180000D1059CF581E0C330D10509F480E088233F
:1018100051F081E0209709F480E0882321F08EE9DF
:1018200091E00E94EB0F8091640290916502C817CD
:10183000D90771F4FE01EE0FFF1FEA59FD4F6091C9
:10184000620270916302808191810E943C100BC002
:10185000FE01EE0FFF1FEA59FD4F63E070E080814B
:1018600091810E943C102196CACF80916402909190
:101870006502039709F051C080E090E00E940E10CD
:1018800025E3F21206C081E090E090935F0280931E
:101890005E0280915E0290915F02019731F481EEC9
:1018A00091E00E94EB0F0E948E0B80915E0290915E
:1018B0005F02892B21F482EF91E00E94EB0FE6E6B4
:1018C000F2E0448155812281338191E0452B09F07A
:1018D00090E081E0232B09F080E0892320916602CB
:1018E0003091670291E0232B09F090E08823E9F022
:1018F0009923D9F010925F0210925E021092650255
:10190000109264020E94011083E092E00E94EB0FAB
:1019100081E090E00E947E0E08C080E090E00E948E
:101920000E108FE092E00E94EB0F21E090ED9F0DF2
:101930009A3008F020E081E00230110509F080E0E3
:1019400091E040916402509165024330510509F4E1
:1019500090E0822309F45FC0992309F45CC08F2DC5
:1019600090E0C0972091600230916102820F931F36
:1019700090936102809360028FE59AEE20E081509F
:1019800090402040E1F700C00000809162029091F9
:101990006302892B21F52091600230916102C90117
:1019A000880F991F220F331F220F331F220F331F5F
:1019B000820F931F909361028093600221E030E0D8
:1019C0003093630220936202E0916402F091650219
:1019D000EE0FFF1FEA59FD4F918380831CC0809159
:1019E000640290916502FC01EE0FFF1FEA59FD4F62
:1019F000209160023091610231832083019690939F
:101A0000650280936402109261021092600210924B
:101A1000630210926202DF91CF911F910F91FF90AC
:101A200008958CE390E09093010180930001E6E635
:101A3000F2E01182108213821282158214821092B7
:101A40006502109264021092630210926202109278
:101A500061021092600210925F0210925E0208957D
:101A60008AB184608AB9E9E6F0E080818C60808385
:101A70008DB382608DBB789408954F925F926F9280
:101A80007F928F929F92AF92BF92CF92DF92EF920E
:101A9000FF92CF93DF9300D000D0CDB7DEB76B01BC
:101AA0007C0149015A0120E030E0A9010E940216A0
:101AB000882309F4ADC0A701960160E070E080E8DA
:101AC0009FE30E94071620E030E04AE754E40E94BA
:101AD00066176B017C019B01AC01C501B4010E943A
:101AE00007160E9479162B013C0120E030E040E00F
:101AF0005FE3C701B6010E94661769837A838B830F
:101B00009C83812C912C540184149504A604B70461
:101B10000CF0B8C020E030E04AE753E469817A81F4
:101B20008B819C810E9466176B017C0120E030E074
:101B300040E85FE30E94021688232CF120E03FEF8B
:101B40004FE757E4C701B6010E9461171816B4F4B5
:101B500020E030E040E251E469817A818B819C8110
:101B60000E9466170E9480166115710589F089E14F
:101B700090E00197F1F761507109F6CFC701B60106
:101B80000E94801602C061E070E0CB010197F1F77E
:101B90008BB184608BB920E030E040E85FE3C7019F
:101BA000B6010E94021688232CF120E03FEF4FE798
:101BB00057E4C701B6010E9461171816B4F420E07B
:101BC00030E040E251E469817A818B819C810E94FE
:101BD00066170E9480166115710589F089E190E011
:101BE0000197F1F761507109F6CFC701B6010E9464
:101BF000801602C061E070E0CB010197F1F78BB174
:101C00008B7F8BB98FEF881A980AA80AB80A7CCF05
:101C100020E030E04AE753E4C501B4010E946617B2
:101C20006B017C0120E030E040E85FE30E94021697
:101C300088231CF120E03FEF4FE757E4C701B601CE
:101C40000E9461171816A4F420E030E040E251E44D
:101C5000C501B4010E9466170E94801661157105C6
:101C600089F089E190E00197F1F761507109F6CFB1
:101C7000C701B6010E94801602C061E070E0CB018E
:101C80000197F1F70F900F900F900F90DF91CF9188
:101C9000FF90EF90DF90CF90BF90AF909F908F908C
:101CA0007F906F905F904F9008951F920F920FB6A4
:101CB0000F9211248F939F9310921B0110921A017F
:101CC00088EA91E60197F1F79F918F910F900FBEEF
:101CD0000F901F901895009741F08130910541F0C9
:101CE000029749F485E590E0089581EE90E008952B
:101CF00088E790E0089588E790E008952F923F925A
:101D00004F925F926F927F928F929F92AF92BF920B
:101D1000CF92DF92EF92FF920F931F93CF93DF93B7
:101D200000D000D0CDB7DEB71C010E946B0EBC0105
:101D3000990F880B990B0E94B1169B01AC0160E0D2
:101D40007CE782E198E40E9407160E9479167A8364
:101D500069831C821B82E12CF12C8B819C81803950
:101D600091400CF0ADC080911A0190911B01019738
:101D700009F0A2C080E293E0289E8001299E100D08
:101D8000389E100D112408591F4FCB80DC80F601BE
:101D90003196EE0FFF1FE00FF11F6591749116163B
:101DA000170634F489819A810E94D3177B011CC0E5
:101DB0007723BCF489819A810E94D317072E000CE7
:101DC000880B990B0E94B11620E030E040EC5FE3F5
:101DD0000E9466170E947916EE24FF24E61AF70A7D
:101DE00003C0672B09F46CC0B7010F2C000C880BE3
:101DF000990B0E94B1162B013C0126E636E646E619
:101E00005FE30E9466174B015C01F601EE0FFF1FB6
:101E1000E00FF11F6591749180E090E00E94AF1691
:101E2000A50194010E943D0D20E030E040E05FE319
:101E3000C301B2010E9466172B013C0120E030E093
:101E40004AE753E40E9466174B015C0120E030E052
:101E500040E85FE30E94021688231CF120E03FEF78
:101E60004FE757E4C501B4010E9461171816A4F4A6
:101E700020E030E040E251E4C301B2010E94661765
:101E80000E9480166115710589F089E190E0019743
:101E9000F1F761507109F6CFC501B4010E948016B7
:101EA00002C061E070E0CB010197F1F78B819C816A
:101EB00002969C838B8351CF10921B0110921A01C2
:101EC0000F900F900F900F90DF91CF911F910F9176
:101ED000FF90EF90DF90CF90BF90AF909F908F904A
:101EE0007F906F905F904F903F902F9008959BB19F
:101EF0009F70282F207F922B9BB99BB19E7F9BB90F
:101F00009BB192609BB900009BB19D7F9BB932E46D
:101F10003A95F1F700C02BB130E1839FC001112445
:101F2000922F9F70892B8BB98BB182608BB9000087
:101F30008BB18D7F8BB983EF91E00197F1F700C0F2
:101F4000000008959BB19F70282F207F922B9BB992
:101F50009BB191609BB99BB192609BB900009BB112
:101F60009D7F9BB932E43A95F1F700C02BB130E187
:101F7000839FC0011124922F9F70892B8BB98BB145
:101F800082608BB900008BB18D7F8BB983EF91E0BC
:101F90000197F1F700C0000008958FEF8AB987E834
:101FA00093E10197F1F700C0000082E00E94770FF3
:101FB00088E20E94770F8CE00E94770F86E00E94F3
:101FC000770F81E00E94770F83EF91E00197F1F79F
:101FD00000C0000008950F931F93CF93DF938C01EF
:101FE000C0E0D0E0F801EC0FFD1F8081882321F0D4
:101FF0000E94A20F2196F6CFDF91CF911F910F91F2
:10200000089581E00E94770F83EF91E00197F1F747
:1020100000C0000080E80E94770F0895892B21F40A
:1020200080E80E94770F089580EC0E94770F089552
:102030002091B9023091BA02232B79F40E94EB0F60
:1020400081E090E09093BA028093B90287EA91E62A
:102050000197F1F700C0000008958EE292E00E941F
:10206000EB0F1092BA021092B90287EA91E601973B
:10207000F1F700C000000895EF92FF920F931F93B5
:10208000CF93DF9300D000D0CDB7DEB78B016AE0ED
:1020900070E00E94D3179B017C014AE0BE016F5F94
:1020A0007F4FC9010E94FB174AE0BE016D5F7F4F61
:1020B000C7010E94FB170115110549F4CE010196D5
:1020C0000E941810CE0103960E94EB0F14C001303D
:1020D000110549F4CE0101960E94EB0FCE01039643
:1020E0000E94181008C0CE0101960E94EB0FCE018D
:1020F00003960E94EB0F0F900F900F900F90DF91BF
:10210000CF911F910F91FF90EF900895EF92FF9262
:102110000F931F93CF93DF938C017B0180E090E0BE
:102120000E940E1086E991E00E94EB0FC0E0D0E023
:10213000C630D105F4F5C330D10541F481E090E01B
:102140000E940E108BE292E00E94EB0F81E0C33000
:10215000D10509F480E0882351F081E0209709F44B
:1021600080E0882321F08EE991E00E94EB0F8091BE
:10217000A7029091A802C817D90771F4FE01EE0FCB
:10218000FF1FE755FD4F6091A5027091A602808167
:1021900091810E943C100BC0FE01EE0FFF1FE7551E
:1021A000FD4F63E070E0808191810E943C10219698
:1021B000BFCF21E0C801C0970A9708F020E081E076
:1021C00092E0E916F10409F080E0222309F45EC0F0
:1021D000882309F45BC0005311098091A3029091F8
:1021E000A402080F191F1093A4020093A3022FE565
:1021F0008AEE90E0215080409040E1F700C000005E
:102200008091A5029091A602892B21F52091A3022D
:102210003091A402C901880F991F220F331F220F8A
:10222000331F220F331F820F931F9093A4028093BA
:10223000A30221E030E03093A6022093A502E091B2
:10224000A702F091A802EE0FFF1FE755FD4F918303
:1022500080831CC08091A7029091A802FC01EE0F20
:10226000FF1FE755FD4F2091A3023091A402318357
:10227000208301969093A8028093A7021092A40253
:102280001092A3021092A6021092A50281E0209162
:10229000A7023091A8022630310509F080E088239A
:1022A00029F181E023E0E216F10409F080E08823BF
:1022B000E9F089EA92E00E944E091092A802109279
:1022C000A70280E090E00E940E100E9401108EE1B3
:1022D00092E00E94EB0F8FE79AE126E08150904058
:1022E0002040E1F700C000000E940110DF91CF9173
:1022F0001F910F91FF90EF9008951F93CF93DF935D
:10230000182FEB0180E090E00E940E1081E0C230B7
:10231000D10509F080E091E0183309F090E09923AD
:10232000A9F0882399F02091A1023091A2022F5F99
:102330003F4F3093A2022093A1022FE53AEE90E0A6
:10234000215030409040E1F700C0000091E012338E
:1023500009F090E09923A1F0882391F08091A102E7
:102360009091A20201979093A2028093A1022FE57F
:102370003AEE80E0215030408040E1F700C000009C
:102380008091A1029091A202059724F01092A202DE
:102390001092A1028091A1029091A202992334F49B
:1023A00084E090E09093A2028093A102C230D10514
:1023B000F9F480E090E00E940E108EED91E00E9412
:1023C000EB0F8091A1029091A20265E070E00E9463
:1023D000D3179C01220F331F880F991F880F991F55
:1023E000880F991F820F931F885B9E4F0E94EB0FEF
:1023F000239731F48091A1029091A2020E945A0881
:10240000DF91CF911F910895EF92FF921F93CF9389
:10241000DF93182FEB0180917A0190917B01019657
:10242000B1F180E090E00E940E108AE292E00E94FA
:10243000EB0F80917A0190917B0123E030E0281B23
:10244000390B8091B7029091B8020F2EF4E6EF2E6F
:10245000F12CF02DB7010E94D317CB01B9010E94D6
:102460003C108EE991E00E94EB0F80917A019091EF
:102470007B0121E030E0281B390B8091B70290915D
:10248000B802B7010E94D317B9010E943C1021E0A5
:1024900090ED910F9A3008F020E081E0C230D10534
:1024A00009F080E060917A0170917B0191E06F3FCB
:1024B0003FEF730709F490E0822309F47BC099236E
:1024C00009F478C0E12EF12C80E3E81AF1088AE0E3
:1024D00090E00E9423089C01E29EC001E39E900DC3
:1024E000F29E900D11242091B7023091B802820F14
:1024F000931F9093B8028093B70280917A019091D4
:102500007B01019790937B0180937A013FE58AEEEE
:1025100090E0315080409040E1F700C00000809191
:102520007A0190917B01019609F044C080E090E02F
:102530000E940E108AE292E00E94EB0F8091B70297
:102540009091B8020F2EF4E6EF2EF12CF02DB7018A
:102550000E94D317CB0163E070E00E943C108EE92B
:1025600091E00E94EB0F8091B7029091B802B70101
:102570000E94D31763E070E00E943C103FE38DE0BF
:1025800093E0315080409040E1F700C0000080E0CF
:1025900090E00E940E1080E392E00E94EB0F2FE784
:1025A0003AE186E0215030408040E1F700C0000071
:1025B0000E94011080917A0190917B01019621F493
:1025C000BE01812F0E947D11239709F048C08091A0
:1025D000B7029091B8020E94440880E090E00E9407
:1025E0000E1080E492E00E94EB0F81E090E00E94E8
:1025F0000E108091B7029091B802C4E6D0E0BE01FF
:102600000E94D317CB0163E070E00E943C108EE97A
:1026100091E00E94EB0F8091B7029091B802BE0149
:102620000E94D31763E070E00E943C101092B80241
:102630001092B7021092B6021092B50283E090E0B9
:1026400090937B0180937A013FE78AE196E03150D5
:1026500080409040E1F700C000000E940110DF912F
:10266000CF911F91FF90EF9008950E94110D10924D
:10267000A2021092A102E9EAF2E011821082138212
:102680001282158214821782168211861086138692
:1026900012861092A8021092A7021092A60210921F
:1026A000A5021092A4021092A3021092B8021092F6
:1026B000B7021092B6021092B50283E090E09093B8
:1026C0007B0180937A0108950F931F93CF93DF933B
:1026D000182FEB0180E090E00E940E1081E0C130E5
:1026E000D10509F080E091E0183309F090E09923DA
:1026F000A9F0882399F020919F023091A0022F5FCA
:102700003F4F3093A00220939F022FE53AEE90E0D6
:10271000215030409040E1F700C0000091E01233BA
:1027200009F090E09923A1F0882391F080919F0215
:102730009091A00201979093A00280939F022FE5B1
:102740003AEE80E0215030408040E1F700C00000C8
:1027500080919F029091A002049724F01092A00211
:1027600010929F0280919F029091A002992334F4CD
:1027700083E090E09093A00280939F02C130D10546
:1027800011F580E090E00E940E108EED91E00E9425
:10279000EB0F20919F023091A002237030783323F9
:1027A00034F4215031092C6F3F6F2F5F3F4F4BE0C6
:1027B000429FC001439F900D1124845E9E4F0E9452
:1027C000EB0F0E94351301E0C230D1050CF400E09C
:1027D00081E020919F023091A002232B09F080E03C
:1027E000882331F0002321F0BE01812F0E940412C2
:1027F00081E020919F023091A0022130310509F043
:1028000080E0882339F0002329F0BE01812F90E079
:102810000E94861081E020919F023091A002223018
:10282000310509F080E0882331F0002321F0BE015A
:10283000812F0E946F0A81E020919F023091A002B7
:102840002330310509F080E0882331F0002321F0A6
:10285000BE01812F0E94EE0BDF91CF911F910F914E
:1028600008959DEC899F912D1124969596959695A6
:10287000292F220F920F292F220F820F0895282F20
:1028800030E03595279535952795359527953595DC
:102890002795922F990F290F922F990F891B089531
:1028A0000E94F01483E08A95F1F700000895CF921A
:1028B000EF92FF920F931F93CF93DF93C82FD62FE2
:1028C000142FF22E80ED0E941C1580E00E944E1500
:1028D0008C2D0E9431140E944E158E2D0E943114B1
:1028E0000E944E15802F0E9431140E944E158F2D8C
:1028F0000E9431140E944E15812F0E9431140E94B3
:102900004E158D2F0E9431140E944E158C2F0E945F
:1029100031140E944E1580E00E944E150E9446150B
:10292000DF91CF911F910F91FF90EF90CF9008957D
:102930006F927F928F929F92AF92BF92CF92DF92CF
:10294000EF92FF920F931F93CF93DF93EC013B0124
:102950005A01490180ED0E941C1580E00E944E152D
:102960000E94461581ED0E9443150E9460158F77E5
:102970000E943F14F60180830E9460150E943F145C
:10298000F70180830E9460150E943F14F801808344
:102990000E9460150E943F14F40180830E9460151C
:1029A0000E943F14F50180830E9460150E943F142D
:1029B000F30180830E946A150E943F1488830E945D
:1029C0004615DF91CF911F910F91FF90EF90DF900F
:1029D000CF90BF90AF909F908F907F906F90089511
:1029E0001092B9008DEF8093B800089594EA909307
:1029F000BC009091BC009923E4F79091B900987FB6
:102A0000983011F0903191F48093BB0084E880936A
:102A1000BC008091BC008823E4F78091B900887FD6
:102A2000883131F0803431F480E0089581E00895F8
:102A300080E0089581E0089594EA9093BC0090911D
:102A4000BC009923E4F79091B900987F983011F079
:102A5000903191F78093BB0094E89093BC009091E3
:102A6000BC009923E4F79091B900987F903211F05F
:102A7000983541F494E99093BC009091BC0094FD8A
:102A8000FCCFDACF08950E94F614089584E980936C
:102A9000BC008091BC0084FDFCCF08958093BB00F6
:102AA00084E88093BC008091BC008823E4F7809187
:102AB000B900887F883211F081E0089580E00895A0
:102AC00084EC8093BC008091BC008823E4F7809163
:102AD000BB00089584E88093BC008091BC008823EB
:102AE000E4F78091BB0008958FE087B960E070E063
:102AF0006430710594F581E090E0FB01E158FE4FF0
:102B0000008002C0880F991F0A94E2F788B980E01C
:102B100090E083309105F4F443B150E021E030E0DF
:102B2000FC01E458FE4F008002C0220F331F0A94BC
:102B3000E2F74217530761F49B01220F331F620F24
:102B4000731F6D577E4FFB01E80FF91F80810895B9
:102B50000196DFCF6F5F7F4FCBCF86E208950E9453
:102B6000300D0E94CD0F80E592E00E94EB0F2FEB1D
:102B700087E299E0215080409040E1F700C00000DA
:102B80000E945014C0E0D0E00E9491080E94741589
:102B9000182F209711F40E94F4091A3261F42FE5DE
:102BA0008AEE90E0215080409040E1F700C00000A4
:102BB00021960E9401101C161D0624F4BE01812FCF
:102BC0000E94641381E0C330D10509F080E08111D7
:102BD00008C081E0CF3F2FEFD20709F080E08823C3
:102BE00011F0C0E0D0E0133279F68FE59AEE20E0E4
:102BF000815090402040E1F700C0000021970E94E2
:102C00000110C2CF0E94EC1608F481E008950E94E2
:102C10001B160C9427170E94201758F00E941917B2
:102C200040F029F45F3F29F00C94101751110C94D7
:102C30005B170C9416170E94381768F39923B1F3A9
:102C4000552391F3951B550BBB27AA2762177307D2
:102C5000840738F09F5F5F4F220F331F441FAA1F66
:102C6000A9F335D00E2E3AF0E0E832D09150504022
:102C7000E695001CCAF72BD0FE2F29D0660F771FD0
:102C8000881FBB1F261737074807AB07B0E809F0B6
:102C9000BB0B802DBF01FF2793585F4F3AF09E3F3B
:102CA000510578F00C9410170C945B175F3FE4F318
:102CB000983ED4F3869577956795B795F7959F5F7E
:102CC000C9F7880F911D9695879597F90895E1E0CA
:102CD000660F771F881FBB1F621773078407BA0729
:102CE00020F0621B730B840BBA0BEE1F88F7E09584
:102CF00008950E9480166894B1110C945B17089592
:102D00000E94401788F09F5798F0B92F9927B75124
:102D1000B0F0E1F0660F771F881F991F1AF0BA957F
:102D2000C9F714C0B13091F00E945A17B1E008956C
:102D30000C945A17672F782F8827B85F39F0B93F5E
:102D4000CCF3869577956795B395D9F73EF4909532
:102D50008095709561957F4F8F4F9F4F0895E894B0
:102D600009C097FB3EF490958095709561957F4FD3
:102D70008F4F9F4F9923A9F0F92F96E9BB27939581
:102D8000F695879577956795B795F111F8CFFAF491
:102D9000BB0F11F460FF1BC06F5F7F4F8F4F9F4FC2
:102DA00016C0882311F096E911C0772321F09EE820
:102DB000872F762F05C0662371F096E8862F70E086
:102DC00060E02AF09A95660F771F881FDAF7880F60
:102DD0009695879597F90895990F0008550FAA0BB6
:102DE000E0E8FEEF16161706E807F907C0F012161E
:102DF0001306E407F50798F0621B730B840B950B21
:102E000039F40A2661F0232B242B252B21F4089575
:102E10000A2609F4A140A6958FEF811D811D089512
:102E200097F99F6780E870E060E008959FEF80EC7D
:102E3000089500240A941616170618060906089520
:102E400000240A9412161306140605060895092E86
:102E50000394000C11F4882352F0BB0F40F4BF2BF5
:102E600011F460FF04C06F5F7F4F8F4F9F4F089535
:102E700057FD9058440F551F59F05F3F71F047952B
:102E8000880F97FB991F61F09F3F79F08795089510
:102E9000121613061406551FF2CF4695F1DF08C02F
:102EA000161617061806991FF1CF8695710561054C
:102EB00008940895E894BB2766277727CB0197F9F4
:102EC00008950E94EC1608F48FEF08950E94791778
:102ED0000C9427170E94191738F00E94201720F031
:102EE000952311F00C9410170C94161711240C94C0
:102EF0005B170E94381770F3959FC1F3950F50E050
:102F0000551F629FF001729FBB27F00DB11D639F9B
:102F1000AA27F00DB11DAA1F649F6627B00DA11D41
:102F2000661F829F2227B00DA11D621F739FB00DE7
:102F3000A11D621F839FA00D611D221F749F332757
:102F4000A00D611D231F849F600D211D822F762FF0
:102F50006A2F11249F5750409AF0F1F088234AF0CD
:102F6000EE0FFF1FBB1F661F771F881F9150504039
:102F7000A9F79E3F510580F00C9410170C945B1735
:102F80005F3FE4F3983ED4F3869577956795B795C0
:102F9000F795E7959F5FC1F7FE2B880F911D9695DA
:102FA000879597F9089597FB072E16F4009407D09C
:102FB00077FD09D00E94E71707FC05D03EF49095F5
:102FC00081959F4F0895709561957F4F0895AA1B35
:102FD000BB1B51E107C0AA1FBB1FA617B70710F004
:102FE000A61BB70B881F991F5A95A9F78095909536
:102FF000BC01CD010895BB274A3031F4992322F456
:10300000BDE2909581959F4F0C940718BB27FB015B
:103010005527AA27880F991FAA1FA41710F0A41BD1
:1030200083955051B9F7A05DAA3308F0A95DA1932B
:10303000009779F7B111B1931192CB010C9420183C
:10304000DC01FC01672F71917723E1F7329704C00F
:103050007C916D9370836291AE17BF07C8F308959A
:04306000F894FFCF12
:103064003C001F001C001F001E001F001E001F004C
:103074001F001E001F001E001F00010053455420A6
:10308400414C41524D20005345542054494D452054
:10309400200053454520414C41524D530054494D65
:1030A4004552202020202000444F4F4D2020202036
:1030B400200053544152205741525300474F54204B
:1030C40020202020200050414E544845522020000A
:1030D400474F444641544845520003000001020052
:1030E4000102033132333435363738392A3023522A
:1030F400494E472121002020203230002D003A0083
:103104002044454C4554454400535543434553538B
:1031140046554C4C59002020204E4F20414C4152E2
:103124004D53002020202041524520534554005047
:1031340052455353203520544F2044454C003E3EC5
:10314400005052455353202320544F2053544F5082
:1031540020005052455353203520544F205354419E
:1031640052540054494D45532055502121210045C6
:103174004E544552205448452054494D4500202082
:1031840020202020444F4E452100202020202000D4
:1031940053454C4543542054484520544F4E450014
:1031A400414C41524D2049532053455420544F0023
:0E31B40020202057454C434F4D45212121003E
:040000050080025E17
:00000001FF
