:100000000C9404080C9421080C94B90B0C9421084E
:100010000C9421080C9421080C9421080C942108BC
:100020000C9421080C9421080C9421080C942108AC
:100030000C9421080C9421080C9421080C9421089C
:100040000C9421080C9421080C9421080C9421088C
:100050000C9421080C9421080C9421080C9421087C
:100060000C9421080C94210852000800520008004A
:10007000A500080052000800520008009300080084
:1000800052000800520008008300080052000800D7
:1000900052000800750008005200080052000800D5
:1000A0007B0008008300080052000800520008008E
:1000B000A500080052000800520008009300080044
:1000C0005200080052000800830008005200080097
:1000D000520008007500FEFF5200080052000800A0
:1000E000A500080052000800520008009300080014
:1000F0005200080052000800830008005200080067
:100100005200080075000800520008005200080064
:100110007B0008008300080052000800520008001D
:10012000A5000800520008005200080093000800D3
:100130005200080052000800830008005200080026
:10014000520008007500FEFF52000800520008002F
:10015000A5000800520008005200080093000800A3
:1001600052000800520008008300080052000800F6
:1001700052000800750008005200080052000800F4
:100180007B000800830008005200080052000800AD
:10019000A500080052000800520008009300080063
:1001A00052000800520008008300080052000800B6
:1001B000520008007500FEFF5200080052000800BF
:1001C000A500080052000800520008009300080033
:1001D0005200080052000800830008005200080086
:1001E0005200080075000800520008005200080084
:1001F0007B0008008300080052000800520008003D
:10020000A5000800520008005200080093000800F2
:100210005200080052000800B900F0FF9300F0FF00
:100220007B00F0FFDC00F0FFB900F0FF7B00F0FF87
:100230009300F0FFB900F0FFDC00F0FFB900F0FF21
:100240009300F0FF7B00F0FF0000000000000000C2
:10025000000000000000000000000000000000009E
:10026000000000000000000000000000000000008E
:10027000000000000000000000000000000000007E
:10028000000000000000000000000000000000006E
:10029000000000000000000000000000000000005E
:1002A000000000000000000000000000000000004E
:1002B000000000000000000000000000000000003E
:1002C000000000000000000000000000000000002E
:1002D000000000000000000000000000000000001E
:1002E000000000000000000000000000000000000E
:1002F00000000000000000000000000000000000FE
:1003000000000000000000000000000000000000ED
:1003100000000000000000000000000000000000DD
:1003200000000000000000000000000000000000CD
:1003300000000000000000000000000000000000BD
:1003400000000000000000000000000000000000AD
:10035000000000000000000000000000000000009D
:10036000000000000000000000000000000000008D
:10037000000000000000000000000000000000007D
:100380000000000000000000B8010400B8010400F3
:10039000B80104005D01F8FF0B021000B801040071
:1003A0005D01F8FF0B021000B80102009302040087
:1003B0009302040093020400BA02F8FF0B0210003B
:1003C000B80104005D01F8FF0B021000B801020043
:1003D00070030400B801F8FFB801100070030400B6
:1003E0003F03F8FF100310006E0210004B021000D4
:1003F0006E02080000000800B80108006E02040048
:100400004B02F8FF2A0210000B021000EE01100050
:100410000B021000000008005D0108009F010400AD
:100420005D01F8FFB801F0FF0B020400B801F8FF0E
:100430000B0210009302020070030400B801F8FFE1
:10044000B8011000700304003F03F8FF1003100010
:100450006E0210004B0210006E020800000008003F
:10046000B80108006E0204004B02F8FF2A021000D7
:100470000B021000EE0110000B021000000008003B
:100480005D0108009F0104005D01F8FFB801F0FF65
:10049000B80104005D01F8FF0B021000B801020072
:1004A000000000000000000000000000000000004C
:1004B000000000000000000000000000000000003C
:1004C000000000000000000000000000000000002C
:1004D000000000000000000000000000000000001C
:1004E000000000000000000000000000000000000C
:1004F00000000000000000000000000000000000FC
:1005000000000000000000000000000000000000EB
:1005100000000000000000000000000000000000DB
:1005200000000000000000000000000000000000CB
:1005300000000000000000000000000000000000BB
:1005400000000000000000000000000000000000AB
:10055000000000000000000000000000000000009B
:10056000000000000000000000000000000000008B
:10057000000000000000000000000000000000007B
:10058000000000000000000000000000000000006B
:10059000000000000000000000000000000000005B
:1005A000000000000000000000000000000000004B
:1005B000000000000000000000000000000000003B
:1005C000000000000000000000000000000000002B
:1005D000000000000000000000000000000000001B
:1005E000000000000000000000000000000000000B
:1005F00000000000000000000000000000000000FB
:1006000000000000000000000000000000000000EA
:1006100000000000000000000000000000000000DA
:1006200000000000000000000000000000000000CA
:1006300000000000000000000000000000000000BA
:1006400000000000000000000000000000000000AA
:10065000000000000000000000000000000000009A
:10066000000000000000000000000000000000008A
:10067000000000000000000000000000000000007A
:10068000000000000000000000000000000000006A
:10069000000000000000000000000000000000005A
:1006A00000000000000000008801080006010800AA
:1006B000370110005D0110008801080006010800E4
:1006C000370110005D0110008801080006010800D4
:1006D000370110005D0110008801080006010800C4
:1006E000370110005D0110008801080006010800B4
:1006F0004A0110005D011000880108000601080091
:100700004A0110005D011000880108000601080080
:100710004A0110005D011000880108000601080070
:100720004A0110005D0110008801FCFF0601FCFF7A
:10073000370110005D01100088010400060104006B
:10074000370110005D0110002601FFFF5D01FCFF75
:10075000E900FCFF37011000260110005D010400D4
:10076000E900FCFF37011000260110000601FFFF21
:100770008801FCFF0601FCFF370110005D0110003D
:100780008801040006010400370110005D0110001B
:100790002601FFFF5D01FCFFE900FCFF37011000AF
:1007A000260110005D010400E900FCFF3701100084
:1007B000260110000601FFFF8801FCFF0601FCFF77
:1007C000370110005D0110008801040006010400DB
:1007D000370110005D0110002601FEFF5D01FCFFE6
:1007E000E900FCFF2601F8FF3701F8FF2601F8FFBA
:1007F000E900F8FF0601FFFF0B02FEFFD201FEFF3A
:100800000601FEFF8801FEFF3701FEFF3701FCFFF6
:100810005D01FCFF8801FFFF0B02FEFFD201FEFF1E
:100820000601FEFF8801FEFF3701FEFF3701FCFFD6
:100830002601FCFF0B020800880108009F01100040
:10084000D20110000B020800880108009F0110006F
:10085000D20110000B020800880108009F0110005F
:10086000D20110000B020800880108009F0110004F
:10087000D2011000000004003F031000A403100088
:1008800017040800100308003F031000A403100021
:1008900017040800100310003F031000A403100009
:1008A00017040800100308003F031000A403100001
:1008B0000000000000000000000000000000000038
:1008C0000000000000000000000000000000000028
:1008D0000000000000000000000000000000000018
:1008E0000000000000000000000000000000000008
:1008F00000000000000000000000000000000000F8
:1009000000000000000000000000000000000000E7
:1009100000000000000000000000000000000000D7
:1009200000000000000000000000000000000000C7
:1009300000000000000000000000000000000000B7
:1009400000000000000000000000000000000000A7
:100950000000000000000000000000000000000097
:100960000000000000000000000000000000000087
:100970000000000000000000000000000000000077
:100980000000000000000000000000000000000067
:100990000000000000000000000000000000000057
:1009A0000000000000000000000000000000000047
:1009B0000000000000000000000000000000000037
:1009C00000000000000000004A01FCFF00000800D9
:1009D000720108008801FCFF0000080037010800D0
:1009E0004A01F8FF720108008801F8FF0B020800B5
:1009F000EE01F8FF4A0108008801F8FFEE01080047
:100A0000D2010200B801F0FF8801F0FF4A01F0FFB7
:100A10002601F0FF4A010200000004000000080067
:100A2000370104004A01FCFF0000080072010800C1
:100A30008801FCFF00000800370108004A01F8FFA8
:100A4000720108008801F8FF0B020800EE01F8FFB0
:100A500088010800EE01F8FF930208006E02010011
:100A60004B020200000004000000080037010800EB
:100A70004A01FCFF00000800720108008801FCFF29
:100A800000000800370108004A01F8FF7201080061
:100A90008801F8FF0B020800EE01F8FF4A01080088
:100AA0008801F8FFEE010800D2010200B801F0FF52
:100AB0008801F0FF4A01F0FF2601F0FF4A01FCFF28
:100AC00000000400000004009302F8FF4B0208003D
:100AD000EE01F8FFB80108008801F8FF4A01F8FFAD
:100AE000D2011000B801F8FFD2011000B801F8FFE0
:100AF000D2011000B801F8FFD2011000B801F8FFD0
:100B00008801F0FF4A01F0FF2601F0FF4A011000C2
:100B10004A0110004A01020000000000000000002D
:100B200000000000000000000000000000000000C5
:100B300000000000000000000000000000000000B5
:100B400000000000000000000000000000000000A5
:100B50000000000000000000000000000000000095
:100B60000000000000000000000000000000000085
:100B70000000000000000000000000000000000075
:100B80000000000000000000000000000000000065
:100B90000000000000000000000000000000000055
:100BA0000000000000000000000000000000000045
:100BB0000000000000000000000000000000000035
:100BC0000000000000000000000000000000000025
:100BD0000000000000000000000000000000000015
:100BE0000000000000000000000000000000000005
:100BF00000000000000000000000000000000000F5
:100C000000000000000000000000000000000000E4
:100C100000000000000000000000000000000000D4
:100C200000000000000000000000000000000000C4
:100C300000000000000000000000000000000000B4
:100C400000000000000000000000000000000000A4
:100C50000000000000000000000000000000000094
:100C60000000000000000000000000000000000084
:100C70000000000000000000000000000000000074
:100C80000000000000000000000000000000000064
:100C90000000000000000000000000000000000054
:100CA0000000000000000000000000000000000044
:100CB0000000000000000000000000000000000034
:100CC0000000000000000000000000000000000024
:100CD0000000000000000000000000000000000014
:100CE00000000000000000000000040000000800F8
:100CF00000000800000008004A010800B8010800D0
:100D00000B020800EE010800B80108000B02080001
:100D1000B8010800EE010800B80108005D010800F4
:100D2000880108004A0102004A010800B8010800D1
:100D30000B020800EE010800B80108000B020800D1
:100D4000B80108000B020800B80108004A010800B9
:100D50003701080026010200260108005D01080095
:100D60009F010800EE010200260108005D01080055
:100D70009F010800B80102000601080006010800F2
:100D8000880108005D0108004A0108008801080088
:100D90005D0108005D0108004A0108004A010800E1
:100DA0009F010800B801020000000800B801080017
:100DB000B80108009F01080088010200EE01080048
:100DC000B80108005D0108004A0102004A0108005C
:100DD000880108004A0108002601020026010800D7
:100DE000260108005D010800370108004A010200E1
:100DF000000008004A010800B80108000B020800C2
:100E0000EE010800B80108000B020800B801080054
:100E1000EE010800B80108005D0108008801080023
:100E20004A0102004A010800B80108000B0208004C
:100E3000EE010800B80108000B020800B801080024
:100E40000B020800B80108004A0108003701080039
:100E500026010200260108005D0108009F0108002C
:100E6000EE010200260108005D0108009F01080054
:100E7000B801020006010800060108008801080008
:100E80005D0108004A010800880108005D010800B2
:100E90005D0108004A0108004A0108009F0108009E
:100EA000B801020000000800B8010800B8010800FD
:100EB0009F01080088010200EE010800B801080047
:100EC0005D0108004A0102004A010800880108008B
:100ED0004A01080026010200260108002601080038
:100EE0005D010800370108004A010200000000000F
:100EF00000000000000000000000000000000000F2
:100F000000000000000000000000000000000000E1
:100F100000000000000000000000000000000000D1
:100F200000000000000000000000000000000000C1
:100F300000000000000000000000000000000000B1
:100F400000000000000000000000000000000000A1
:100F50000000000000000000000000000000000091
:100F60000000000000000000000000000000000081
:100F70000000000000000000000000000000000071
:100F80000000000000000000000000000000000061
:100F90000000000000000000000000000000000051
:100FA0000000000000000000000000000000000041
:100FB0000000000000000000000000000000000031
:100FC0000000000000000000000000000000000021
:100FD0000000000000000000000000000000000011
:100FE0000000000000000000000000000000000001
:100FF00000000000000000000000000000000000F1
:10100000000000000000000011241FBECFEFD8E058
:10101000DEBFCDBF11E0A0E0B1E0E2EDFAE202C038
:1010200005900D92AE3DB107D9F722E0AEEDB1E0EB
:1010300001C01D92AB32B207E1F70E94C8120C94B6
:1010400067150C9400009C0181E090E0611571052A
:1010500059F0AC01429FC001439F900D529F900DEB
:10106000112461507109F2CF0895CF93DF93EC0101
:101070000E94650D8BE891E00E944F0DCE010E9409
:10108000E20BDF91CF910895803629E092078CF42E
:1010900020910D0230910E02F901EE0FFF1FE75073
:1010A000FE4F918380832F5F3F4F30930E0220933A
:1010B0000D020895E0910D02F0910E02EE0FFF1F58
:1010C000EB51FE4F91838083089520E030E0409102
:1010D0000D0250910E022417350714F52817390711
:1010E000E4F0A9014F5F5F4F440F551FFA01E7502D
:1010F000FE4FA081B181B901660F771FFB01E75058
:10110000FE4FB183A083FA01EB51FE4F4081518124
:10111000FB01EB51FE4F518340832F5F3F4FD7CFF1
:101120000895CF92DF92EF92FF920F931F93CF9388
:10113000DF9380910D0290910E02892B09F455C026
:101140000F2EFEEDCF2EF1E0DF2EF02D0F2EFFED56
:10115000EF2EF1E0FF2EF02D00EE11E021EE31E058
:1011600042EE51E063EE71E084EE91E00E94B11135
:10117000C0E0D0E080910D0290910E028C179D0787
:10118000A4F1FE01EE0FFF1FE750FE4F20813181D9
:10119000C90164E670E00E940A158091E00190E0C8
:1011A0006817790701F5C90164E670E00E940A1525
:1011B0002091DF0130E082179307A9F4FE01EE0FC2
:1011C000FF1FEB51FE4F808191810E943508CE01B7
:1011D0000E94650880910D0290910E0201979093F4
:1011E0000E0280930D022196C5CFDF91CF911F9102
:1011F0000F91FF90EF90DF90CF900895CF93DF9302
:10120000EC0121E030E0E0E0F0E0C217D3076CF041
:10121000C90183709927892B19F4E259FE4F02C046
:10122000E359FE4F2F5F3F4FF0CF20E030E0DB016E
:1012300011972A173B073CF591E0DE01A370BB270D
:10124000AB2B09F090E0992391F091E0213031052A
:1012500009F090E0992359F0D901AA0FBB1FA050C3
:10126000BF4F8D919C91E80FF91F319609C0D901AC
:10127000AA0FBB1FA050BF4F8D919C91E80FF91F83
:101280002F5F3F4FD4CF4E0F5F1FCA01059667E017
:1012900070E00E940A15DF91CF9108956F927F92BE
:1012A0008F929F92AF92BF92CF92DF92EF92FF9276
:1012B0000F931F93CF93DF93EC0188809980AA80CE
:1012C000BB806C807D80A301B501C4010E94FE0833
:1012D0000E811F81E884F984CA84DB849401215043
:1012E0003109C1E02236310508F0C0E021E01A14CE
:1012F0001B040CF020E061E09DE0A916B1040CF0A5
:1013000060E071E0161417040CF070E051E090E218
:10131000691671040CF050E0312F3095331F3327DC
:10132000331F41E0083111050CF040E0AF2DA095CE
:10133000AA1FAA27AA1FB1E09CE3E916F1040CF04A
:10134000B0E09D2D9095E92FEE1FEE27EE1FF1E006
:101350009CE3C916D1040CF0F0E02C236223672330
:101360005623952F932349234A23942F9B239E236F
:1013700041F0FF2331F0282F462D6A2D882D0E9441
:101380007011DF91CF911F910F91FF90EF90DF903F
:10139000CF90BF90AF909F908F907F906F90089567
:1013A0008A3020F486E991E00E944F0D0895CF9293
:1013B000DF92EF92FF920F931F93CF93DF93CDB7FE
:1013C000DEB7EC970FB6F894DEBF0FBECDBF0F2E81
:1013D000FEEDCF2EF1E0DF2EF02D0F2EFFEDEF2EE4
:1013E000F1E0FF2EF02D00EE11E021EE31E042EEB3
:1013F00051E063EE71E084EE91E00E94B1118091C2
:10140000DE014AE0BE016F5F7F4F90E00E9432151F
:101410008091DF014AE0BE01655F7F4F90E00E944E
:1014200032158091E0014AE0BE016B5E7F4F90E093
:101430000E9432158091E4014AE0BE01615E7F4F57
:1014400090E00E9432158091E3014AE0BE01675DA1
:101450007F4F90E00E9432158091E2014AE0BE0188
:101460006D5C7F4F90E00E94321580E090E00E941A
:10147000720D82E991E00E944F0D8091E4010E947B
:10148000D009CE014F960E944F0D88E991E00E944D
:101490004F0D8091E3010E94D009CE0189960E94F0
:1014A0004F0D88E991E00E944F0D8091E2010E946A
:1014B000D009CE01C3960E944F0D81E090E00E94BA
:1014C000720D8AE991E00E944F0D8091E0010E9427
:1014D000D009CE0145960E944F0D8FE991E00E9400
:1014E0004F0D8091DF010E94D009CE010B960E9422
:1014F0004F0D8FE991E00E944F0D8091DE010E9417
:10150000D009CE0101960E944F0DEC960FB6F894CB
:10151000DEBF0FBECDBFDF91CF911F910F91FF9026
:10152000EF90DF90CF9008958AB184608AB9E9E6A0
:10153000F0E080818C6080838DB382608DBB789475
:1015400008954F925F926F927F928F929F92AF9287
:10155000BF92CF92DF92EF92FF92CF93DF9300D0B2
:1015600000D0CDB7DEB76B017C0149015A0120E004
:1015700030E0A9010E943913882309F4ADC0A70106
:10158000960160E070E080E89FE30E943E1320E057
:1015900030E04AE754E40E949D146B017C019B01FA
:1015A000AC01C501B4010E943E130E94B0132B018F
:1015B0003C0120E030E040E05FE3C701B6010E945B
:1015C0009D1469837A838B839C83812C912C540195
:1015D00084149504A604B7040CF0B8C020E030E0F1
:1015E0004AE753E469817A818B819C810E949D1432
:1015F0006B017C0120E030E040E85FE30E9439139A
:1016000088232CF120E03FEF4FE757E4C701B601F4
:101610000E9498141816B4F420E030E040E251E43F
:1016200069817A818B819C810E949D140E94B713ED
:101630006115710589F089E190E00197F1F761503A
:101640007109F6CFC701B6010E94B71302C061E06D
:1016500070E0CB010197F1F78BB184608BB920E08A
:1016600030E040E85FE3C701B6010E9439138823E8
:101670002CF120E03FEF4FE757E4C701B6010E948D
:1016800098141816B4F420E030E040E251E4698187
:101690007A818B819C810E949D140E94B7136115F1
:1016A000710589F089E190E00197F1F761507109C6
:1016B000F6CFC701B6010E94B71302C061E070E027
:1016C000CB010197F1F78BB18B7F8BB98FEF881A24
:1016D000980AA80AB80A7CCF20E030E04AE753E431
:1016E000C501B4010E949D146B017C0120E030E033
:1016F00040E85FE30E94391388231CF120E03FEFAC
:101700004FE757E4C701B6010E9498141816A4F4D5
:1017100020E030E040E251E4C501B4010E949D1494
:101720000E94B7136115710589F089E190E0019776
:10173000F1F761507109F6CFC701B6010E94B713E6
:1017400002C061E070E0CB010197F1F70F900F90BC
:101750000F900F90DF91CF91FF90EF90DF90CF909F
:10176000BF90AF909F908F907F906F905F904F90C1
:1017700008951F920F920FB60F9211248F939F938B
:10178000109219011092180188EA91E60197F1F779
:101790009F918F910F900FBE0F901F9018950097FB
:1017A00041F08130910541F0029749F485E590E0E0
:1017B000089581EE90E0089588E790E0089588E725
:1017C00090E008952F923F924F925F926F927F9296
:1017D0008F929F92AF92BF92CF92DF92EF92FF9241
:1017E0000F931F93CF93DF9300D000D0CDB7DEB718
:1017F0001C010E94CF0BBC01990F880B990B0E9412
:10180000E8139B01AC0160E07CE782E198E40E9470
:101810003E130E94B0137A8369831C821B82E12CE1
:10182000F12C8B819C81803991400CF0ADC080916E
:10183000180190911901019709F0A2C080E293E08C
:10184000289E8001299E100D389E100D11240859E4
:101850001F4FCB80DC80F6013196EE0FFF1FE00FAB
:10186000F11F659174911616170634F489819A81D7
:101870000E940A157B011CC07723BCF489819A81E0
:101880000E940A15072E000C880B990B0E94E81382
:1018900020E030E040EC5FE30E949D140E94B01312
:1018A000EE24FF24E61AF70A03C0672B09F46CC084
:1018B000B7010F2C000C880B990B0E94E8132B0129
:1018C0003C0126E636E646E65FE30E949D144B01A6
:1018D0005C01F601EE0FFF1FE00FF11F659174919F
:1018E00080E090E00E94E613A50194010E94A10A05
:1018F00020E030E040E05FE3C301B2010E949D14AC
:101900002B013C0120E030E04AE753E40E949D14A3
:101910004B015C0120E030E040E85FE30E943913B6
:1019200088231CF120E03FEF4FE757E4C501B401E5
:101930000E9498141816A4F420E030E040E251E42C
:10194000C301B2010E949D140E94B7136115710575
:1019500089F089E190E00197F1F761507109F6CFC4
:10196000C501B4010E94B71302C061E070E0CB0171
:101970000197F1F78B819C8102969C838B8351CFD9
:1019800010921901109218010F900F900F900F9064
:10199000DF91CF911F910F91FF90EF90DF90CF904B
:1019A000BF90AF909F908F907F906F905F904F907F
:1019B0003F902F9008959BB19F70282F207F922BEE
:1019C0009BB99BB19E7F9BB99BB192609BB9000074
:1019D0009BB19D7F9BB932E43A95F1F700C02BB1E2
:1019E00030E1839FC0011124922F9F70892B8BB906
:1019F0008BB182608BB900008BB18D7F8BB983EF87
:101A000091E00197F1F700C0000008959BB19F702D
:101A1000282F207F922B9BB99BB191609BB99BB1E2
:101A200092609BB900009BB19D7F9BB932E43A95CF
:101A3000F1F700C02BB130E1839FC0011124922F38
:101A40009F70892B8BB98BB182608BB900008BB1F1
:101A50008D7F8BB983EF91E00197F1F700C0000013
:101A600008958FEF8AB987E893E10197F1F700C0F5
:101A7000000082E00E94DB0C88E20E94DB0C8CE01C
:101A80000E94DB0C86E00E94DB0C81E00E94DB0CF4
:101A900083EF91E00197F1F700C0000008950F93E4
:101AA0001F93CF93DF938C01C0E0D0E0F801EC0FDF
:101AB000FD1F8081882321F00E94060D2196F6CF1C
:101AC000DF91CF911F910F91089581E00E94DB0C6F
:101AD00083EF91E00197F1F700C0000080E80E94D9
:101AE000DB0C0895892B21F480E80E94DB0C08951B
:101AF00080EC0E94DB0C08952091290230912A028B
:101B0000232B79F40E944F0D81E090E090932A02FC
:101B10008093290287EA91E60197F1F700C000005F
:101B200008958DE991E00E944F0D10922A021092C3
:101B3000290287EA91E60197F1F700C000000895B5
:101B4000EF92FF920F931F93CF93DF9300D000D0BB
:101B5000CDB7DEB78B016AE070E00E940A159B01E9
:101B60007C014AE0BE016F5F7F4FC9010E943215C0
:101B70004AE0BE016D5F7F4FC7010E94321501151B
:101B8000110549F4CE0101960E947C0DCE01039609
:101B90000E944F0D14C00130110549F4CE01019689
:101BA0000E944F0DCE0103960E947C0D08C0CE010D
:101BB00001960E944F0DCE0103960E944F0D0F908B
:101BC0000F900F900F90DF91CF911F910F91FF9089
:101BD000EF900895EF92FF920F931F93CF93DF93AF
:101BE0008C017B0180E090E00E94720D82E991E01F
:101BF0000E944F0DC0E0D0E0C630D105F4F5C330EF
:101C0000D10541F481E090E00E94720D8AE991E0F3
:101C10000E944F0D81E0C330D10509F480E0882394
:101C200051F081E0209709F480E0882321F08FE9CA
:101C300091E00E944F0D8091170290911802C817F1
:101C4000D90771F4FE01EE0FFF1FE75EFD4F6091B3
:101C5000150270911602808191810E94A00D0BC027
:101C6000FE01EE0FFF1FE75EFD4F63E070E0808135
:101C700091810E94A00D2196BFCF21E0C801C0979D
:101C80000A9708F020E081E092E0E916F10409F0FB
:101C900080E0222309F45EC0882309F45BC000536E
:101CA00011098091130290911402080F191F1093CB
:101CB0001402009313022FEF80E792E0215080403E
:101CC0009040E1F700C0000080911502909116024B
:101CD000892B21F52091130230911402C901880F3C
:101CE000991F220F331F220F331F220F331F820F22
:101CF000931F909314028093130221E030E03093FD
:101D0000160220931502E0911702F0911802EE0FCF
:101D1000FF1FE75EFD4F918380831CC080911702F7
:101D200090911802FC01EE0FFF1FE75EFD4F20911E
:101D3000130230911402318320830196909318028C
:101D4000809317021092140210921302109216023E
:101D50001092150281E0209117023091180226306E
:101D6000310509F080E0882329F181E023E0E216C3
:101D7000F10409F080E08823E9F089E192E00E9413
:101D80004E09109218021092170280E090E00E9413
:101D9000720D0E94650D81EA91E00E944F0D8FE760
:101DA0009AE126E0815090402040E1F700C0000019
:101DB0000E94650DDF91CF911F910F91FF90EF90E1
:101DC00008951F93CF93DF93182FEB0180E090E0ED
:101DD0000E94720D81E0C230D10509F080E091E0EF
:101DE000183309F090E09923A9F0882399F0209105
:101DF0001102309112022F5F3F4F30931202209355
:101E000011022FEF30E792E0215030409040E1F78F
:101E100000C0000091E0123309F090E09923A1F096
:101E2000882391F080911102909112020197909372
:101E30001202809311022FEF30E782E021503040F0
:101E40008040E1F700C000008091110290911202E1
:101E5000059724F010921202109211028091110243
:101E600090911202992334F484E090E0909312024E
:101E700080931102C230D105F9F480E090E00E9415
:101E8000720D8DEA91E00E944F0D809111029091A8
:101E9000120265E070E00E940A159C01220F331FB8
:101EA000880F991F880F991F880F991F820F931F02
:101EB000885C9E4F0E944F0D239731F48091110250
:101EC000909112020E945A08DF91CF911F910895BC
:101ED000EF92FF921F93CF93DF93182FEB01809126
:101EE0006A0190916B01019691F180E090E00E946F
:101EF000720D80916A0190916B0123E030E0281B04
:101F0000390B80912702909128020F2EF4E6EF2ED4
:101F1000F12CF02DB7010E940A15CB01B9010E94E6
:101F2000A00D8FE991E00E944F0D80916A01909180
:101F30006B0121E030E0281B390B80912702909142
:101F40002802B7010E940A15B9010E94A00D21E0E4
:101F500090ED910F9A3008F020E081E0C230D10579
:101F600009F080E060916A0170916B0191E06F3F30
:101F70003FEF730709F490E0822309F477C09923B7
:101F800009F474C0E12EF12C80E3E81AF1088AE02C
:101F900090E00E9423089C01E29EC001E39E900D08
:101FA000F29E900D11242091270230912802820F79
:101FB000931F909328028093270280916A01909149
:101FC0006B01019790936B0180936A013FEB84ED65
:101FD00091E0315080409040E1F700C000008091D6
:101FE0006A0190916B01019609F040C080E090E099
:101FF0000E94720D80912702909128020F2EF4E624
:10200000EF2EF12CF02DB7010E940A15CB0163E0F1
:1020100070E00E94A00D8FE991E00E944F0D809129
:10202000270290912802B7010E940A1563E070E030
:102030000E94A00D3FE38DE093E03150804090403E
:10204000E1F700C0000080E090E00E94720D80EB9C
:1020500091E00E944F0D2FE73AE186E02150304099
:102060008040E1F700C000000E94650D80916A0188
:1020700090916B01019621F4BE01812F0E94E10E27
:10208000239709F048C080912702909128020E946E
:10209000440880E090E00E94720D80EC91E00E9484
:1020A0004F0D81E090E00E94720D80912702909187
:1020B0002802C4E6D0E0BE010E940A15CB0163E00D
:1020C00070E00E94A00D8FE991E00E944F0D809179
:1020D000270290912802BE010E940A1563E070E079
:1020E0000E94A00D10922802109227021092260240
:1020F0001092250283E090E090936B0180936A0137
:102100003FE78AE196E0315080409040E1F700C01F
:1021100000000E94650DDF91CF911F91FF90EF901D
:1021200008950F931F93CF93DF93182FEB0180E057
:1021300090E00E94720D81E0C130D10509F080E08D
:1021400091E0183309F090E09923A9F0882399F0E1
:1021500020910F02309110022F5F3F4F30931002F9
:1021600020930F022FEF30E792E021503040904053
:10217000E1F700C0000091E0123309F090E09923EC
:10218000A1F0882391F080910F02909110020197A5
:102190009093100280930F022FEF30E782E02150DE
:1021A00030408040E1F700C0000080910F02909124
:1021B0001002039724F01092100210920F028091E7
:1021C0000F0290911002992334F482E090E09093F2
:1021D000100280930F02C130D105F9F480E090E045
:1021E0000E94720D8DEA91E00E944F0D80910F02C6
:1021F0009091100263E070E00E940A159C01220F8A
:10220000331F880F991F880F991F880F991F820FFE
:10221000931F865E9E4F0E944F0D01E0C230D10594
:102220000CF400E081E020910F0230911002232B8A
:1022300009F080E0882331F0002321F0BE01812FD6
:102240000E94680F81E020910F023091100221302E
:10225000310509F080E0882339F0002329F0BE0120
:10226000812F90E00E94EA0D81E020910F023091D1
:1022700010022230310509F080E0882331F000237C
:1022800021F0BE01812F0E94E10EDF91CF911F91BD
:102290000F9108959DEC899F912D11249695969507
:1022A0009695292F220F920F292F220F820F089522
:1022B000282F30E035952795359527953595279525
:1022C00035952795922F990F290F922F990F891BDA
:1022D00008950E94091283E08A95F1F7000008959D
:1022E000CF92EF92FF920F931F93CF93DF93C82F5C
:1022F000D62F142FF22E80ED0E94351280E00E941E
:1023000067128C2D0E944A110E9467128E2D0E9426
:102310004A110E946712802F0E944A110E94671280
:102320008F2D0E944A110E946712812F0E944A112C
:102330000E9467128D2F0E944A110E9467128C2FF3
:102340000E944A110E94671280E00E9467120E9458
:102350005F12DF91CF911F910F91FF90EF90CF907F
:1023600008956F927F928F929F92AF92BF92CF9279
:10237000DF92EF92FF920F931F93CF93DF93EC01C5
:102380003B015A01490180ED0E94351280E00E9414
:1023900067120E945F1281ED0E945C120E94791206
:1023A0008F770E945811F60180830E9479120E9453
:1023B0005811F70180830E9479120E945811F80188
:1023C00080830E9479120E945811F40180830E9438
:1023D00079120E945811F50180830E9479120E949F
:1023E0005811F30180830E9483120E945811888340
:1023F0000E945F12DF91CF911F910F91FF90EF909C
:10240000DF90CF90BF90AF909F908F907F906F9014
:1024100008951092B9008DEF8093B800089594EA62
:102420009093BC009091BC009923E4F79091B9007F
:10243000987F983011F0903191F48093BB0084E83C
:102440008093BC008091BC008823E4F78091B900A0
:10245000887F883131F0803431F480E0089581E064
:10246000089580E0089581E0089594EA9093BC0077
:102470009091BC009923E4F79091B900987F98302F
:1024800011F0903191F78093BB0094E89093BC00D9
:102490009091BC009923E4F79091B900987F903215
:1024A00011F0983541F494E99093BC009091BC00F0
:1024B00094FDFCCFDACF08950E940F12089584E9AD
:1024C0008093BC008091BC0084FDFCCF0895809374
:1024D000BB0084E88093BC008091BC008823E4F7B3
:1024E0008091B900887F883211F081E0089580E002
:1024F000089584EC8093BC008091BC008823E4F7AD
:102500008091BB00089584E88093BC008091BC005A
:102510008823E4F78091BB0008958FE087B960E0DD
:1025200070E06430710594F581E090E0FB01E159C1
:10253000FE4F008002C0880F991F0A94E2F788B905
:1025400080E090E083309105F4F443B150E021E065
:1025500030E0FC01E459FE4F008002C0220F331F1F
:102560000A94E2F74217530761F49B01220F331FCD
:10257000620F731F6D587E4FFB01E80FF91F8081BA
:1025800008950196DFCF6F5F7F4FCBCF86E208952E
:10259000CF93DF93CDB7DEB72C970FB6F894DEBF9D
:1025A0000FBECDBF0E94940A0E94310D80ED91E0D4
:1025B0000E944F0D2FE38DE093E02150804090402A
:1025C000E1F700C000000E94650D0E9469118CE0D7
:1025D000EFE7F1E0DE01119601900D928A95E1F7A7
:1025E000CE0101960E944E0900E010E00E94910881
:1025F0000E948D12F82E0115110511F40E94D709C1
:102600002AE2F2120DC08FE798E321E0815090405A
:102610002040E1F700C000000F5F1F4F0E94650DD2
:102620001016110624F4B8018F2D0E94911081E03C
:102630000330110509F080E0811108C081E00F3FEF
:102640009FEF190709F080E0882311F000E010E007
:1026500023E2F212CBCF8FE798E321E08150904044
:102660002040E1F700C00000015011090E94650DF3
:10267000BDCF0E94231408F481E008950E945213F4
:102680000C945E140E94571458F00E94501440F0AD
:1026900029F45F3F29F00C94471451110C949214C3
:1026A0000C944D140E946F1468F39923B1F35523D1
:1026B00091F3951B550BBB27AA2762177307840755
:1026C00038F09F5F5F4F220F331F441FAA1FA9F3EB
:1026D00035D00E2E3AF0E0E832D091505040E695D9
:1026E000001CCAF72BD0FE2F29D0660F771F881F3A
:1026F000BB1F261737074807AB07B0E809F0BB0B2D
:10270000802DBF01FF2793585F4F3AF09E3F510540
:1027100078F00C9447140C9492145F3FE4F3983EC5
:10272000D4F3869577956795B795F7959F5FC9F729
:10273000880F911D9695879597F90895E1E0660FAA
:10274000771F881FBB1F621773078407BA0720F023
:10275000621B730B840BBA0BEE1F88F7E09508958C
:102760000E94B7136894B1110C94921408950E94BA
:10277000771488F09F5798F0B92F9927B751B0F088
:10278000E1F0660F771F881F991F1AF0BA95C9F7F5
:1027900014C0B13091F00E949114B1E008950C94EE
:1027A0009114672F782F8827B85F39F0B93FCCF3A1
:1027B000869577956795B395D9F73EF49095809572
:1027C000709561957F4F8F4F9F4F0895E89409C092
:1027D00097FB3EF490958095709561957F4F8F4F54
:1027E0009F4F9923A9F0F92F96E9BB279395F6956A
:1027F000879577956795B795F111F8CFFAF4BB0FE8
:1028000011F460FF1BC06F5F7F4F8F4F9F4F16C04B
:10281000882311F096E911C0772321F09EE8872FD5
:10282000762F05C0662371F096E8862F70E060E091
:102830002AF09A95660F771F881FDAF7880F96950A
:10284000879597F90895990F0008550FAA0BE0E8AE
:10285000FEEF16161706E807F907C0F01216130662
:10286000E407F50798F0621B730B840B950B39F4A2
:102870000A2661F0232B242B252B21F408950A2608
:1028800009F4A140A6958FEF811D811D089597F948
:102890009F6780E870E060E008959FEF80EC089506
:1028A00000240A941616170618060906089500242F
:1028B0000A9412161306140605060895092E0394A9
:1028C000000C11F4882352F0BB0F40F4BF2B11F41D
:1028D00060FF04C06F5F7F4F8F4F9F4F089557FD7C
:1028E0009058440F551F59F05F3F71F04795880F7E
:1028F00097FB991F61F09F3F79F087950895121615
:1029000013061406551FF2CF4695F1DF08C01616C0
:1029100017061806991FF1CF869571056105089471
:102920000895E894BB2766277727CB0197F9089588
:102930000E94231408F48FEF08950E94B0140C94A1
:102940005E140E94501438F00E94571420F0952312
:1029500011F00C9447140C944D1411240C949214FF
:102960000E946F1470F3959FC1F3950F50E0551FAF
:10297000629FF001729FBB27F00DB11D639FAA27D4
:10298000F00DB11DAA1F649F6627B00DA11D661F23
:10299000829F2227B00DA11D621F739FB00DA11D44
:1029A000621F839FA00D611D221F749F3327A00DFE
:1029B000611D231F849F600D211D822F762F6A2F9A
:1029C00011249F5750409AF0F1F088234AF0EE0FFF
:1029D000FF1FBB1F661F771F881F91505040A9F72C
:1029E0009E3F510580F00C9447140C9492145F3F65
:1029F000E4F3983ED4F3869577956795B795F79568
:102A0000E7959F5FC1F7FE2B880F911D96958795DF
:102A100097F9089597FB072E16F4009407D077FDD9
:102A200009D00E941E1507FC05D03EF490958195B3
:102A30009F4F0895709561957F4F0895AA1BBB1B0A
:102A400051E107C0AA1FBB1FA617B70710F0A61BAE
:102A5000B70B881F991F5A95A9F780959095BC01CF
:102A6000CD010895BB274A3031F4992322F4BDE209
:102A7000909581959F4F0C943E15BB27FB015527E0
:102A8000AA27880F991FAA1FA41710F0A41B8395CB
:102A90005051B9F7A05DAA3308F0A95DA193009742
:102AA00079F7B111B1931192CB010C945715DC0158
:102AB000FC01672F71917723E1F7329704C07C9175
:102AC0006D9370836291AE17BF07C8F30895F894B1
:022AD000FFCF36
:102AD2001F001C001F001E001F001E001F001F0001
:102AE2001E001F001E001F00010053455420414CD0
:102AF20041524D005345542054494D452000534501
:102B02005420544F4E452000444F4F4D202020204A
:102B1200200053544152205741525300474F5420F2
:102B220020202020200050414E54484552202000B1
:102B3200474F4446415448455200030000010200F9
:102B42000102033132333435363738392A3023150E
:102B520000050004000C000800230052494E4721E2
:102B620021002020203230002D0020202020003A99
:102B720000202020202020444F4E4521003E3E00D0
:102B820053454C4543542054484520544F4E45002C
:102B9200414C41524D2049532053455420544F003B
:0E2BA20020202057454C434F4D452121210056
:00000001FF
