:020000040000FA
:100000000C9462000C948A000C948A000C948A0070
:100010000C948A000C948A000C948A000C948A0038
:100020000C948A000C948A000C948A000C948A0028
:100030000C948A000C948A000C948A000C948A0018
:100040000C9420050C948A000C948A000C948A006D
:100050000C948A000C948A000C948A000C948A00F8
:100060000C948A000C948A000000000024002700F1
:100070002A0000000000250028002B0000000000DE
:1000800023002600290004040404040404040202DA
:100090000202020203030303030301020408102007
:1000A0004080010204081020010204081020000012
:1000B0000008000201000003040700000000000027
:1000C0000000C80611241FBECFEFD8E0DEBFCDBFB1
:1000D00012E0A0E0B1E0EEEDFDE002C005900D926F
:1000E000AC34B107D9F723E0ACE4B2E001C01D9213
:1000F000AB3DB207E1F710E0C2E6D0E004C02197C3
:10010000FE010E94E706C136D107C9F70E946A05C1
:100110000C94ED060C940000AF92BF92CF92DF9248
:10012000EF92FF920F931F93CF93DF936C017B01AC
:100130008B01040F151FEB015E01AE18BF08C0173D
:10014000D10759F06991D601ED91FC910190F081B0
:10015000E02DC6010995892B79F7C501DF91CF9173
:100160001F910F91FF90EF90DF90CF90BF90AF90D5
:100170000895833081F028F4813099F08230A9F01D
:1001800008958730A9F08830C9F08430B1F48091A7
:1001900080008F7D03C0809180008F7780938000E6
:1001A000089584B58F7784BD089584B58F7DFBCF86
:1001B0008091B0008F778093B00008958091B00057
:1001C0008F7DF9CFCF93DF93282F30E0F901E255EF
:1001D000FF4F8491F901E656FF4FD491F901EA5798
:1001E000FF4FC491CC23A1F081110E94B900EC2FE4
:1001F000F0E0EE0FFF1FE458FF4FA591B491EC9192
:10020000ED2381E090E009F480E0DF91CF91089543
:1002100080E090E0FACF1F93CF93DF93282F30E058
:10022000F901E255FF4F8491F901E656FF4FD49151
:10023000F901EA57FF4FC491CC23A9F0162F811181
:100240000E94B900EC2FF0E0EE0FFF1FEE58FF4FB9
:10025000A591B4918FB7F894EC91111108C0D09585
:10026000DE23DC938FBFDF91CF911F910895DE2BAA
:10027000F8CFCF93DF9390E0FC01E656FF4F249137
:100280008A579F4FFC0184918823D1F090E0880F1A
:10029000991FFC01E859FF4FA591B491FC01EE585C
:1002A000FF4FC591D49161110EC09FB7F8948C9106
:1002B000E22FE0958E238C932881E223E8839FBF71
:1002C000DF91CF9108958FB7F894EC91E22BEC93E6
:1002D0008FBFF6CF3FB7F89480915D0290915E0298
:1002E000A0915F02B091600226B5A89B05C02F3F88
:1002F00019F00196A11DB11D3FBFBA2FA92F982F4C
:100300008827BC01CD01620F711D811D911D42E046
:10031000660F771F881F991F4A95D1F708958F920E
:100320009F92AF92BF92CF92DF92EF92FF920E9484
:100330006A014B015C0182E3C82ED12CE12CF12C27
:100340000E946A01681979098A099B09683E73400D
:1003500081059105A8F321E0C21AD108E108F1084E
:1003600088EE880E83E0981EA11CB11CC114D10434
:10037000E104F10429F7FF90EF90DF90CF90BF9058
:10038000AF909F908F900895089590E080E0089539
:1003900008950895089540915602509157024431AE
:1003A000510574F5209154023091550224303105E5
:1003B0003CF594E1929FF001939FF00D1124ED58CC
:1003C000FC4FE40FF51F80834F5F5F4F44315105B1
:1003D00029F0509357024093560208951092570205
:1003E000109256022F5F3F4F2430310529F0309391
:1003F000550220935402089510925502109254020F
:100400000895CF93DF93EC0160E08E810E940B0191
:1004100061E08E810E940B0160E08E810E940B01E1
:100420008BE891E00197F1F7DF91CF910895CF929A
:10043000DF92EF92FF920F931F93CF93DF936C01A4
:100440007C0187E0E80EF11CD0E0C0E0062F10E050
:10045000B8010C2E02C0759567950A94E2F7617099
:10046000F70181917F010E940B012196C430D105D3
:1004700079F7C601DF91CF911F910F91FF90EF9017
:10048000DF90CF900C940102CF92DF92EF92FF9217
:100490000F931F93CF93DF93EC01F62E642F8C8183
:1004A0000E940B018D818F3F19F060E00E940B01CB
:1004B0000F2D10E08F8584FF25C06E0187E0C80EE8
:1004C000D11CF12CE12CB8010E2C02C0759567955A
:1004D0000A94E2F76170F60181916F010E940B01AD
:1004E000FFEFEF1AFF0A88E0E816F10461F7CE018A
:1004F000DF91CF911F910F91FF90EF90DF90CF9000
:100500000C940102B80184E0759567958A95E1F72E
:10051000CE010E9417026F2DCE01DF91CF911F9166
:100520000F91FF90EF90DF90CF900C94170240E076
:10053000682F83EC93E00C944402CF93DF936130F7
:1005400029F09091D20398609093D2036093D603E0
:100550001092D70390E49093D8038093D903805CE2
:100560008093DA0361E08091C7030E943901809192
:10057000C8038F3F19F061E00E94390161E080916A
:10058000C9030E943901C3ECD3E09E01235C3340D0
:100590008091D20384FD0BC084E090E0219628175F
:1005A000390744F461E08E810E943901EECF88E082
:1005B00090E0F4CF8BE39DE00197F1F760E080914C
:1005C000C7030E940B0160E08091C9030E940B01E8
:1005D0008091C8038F3F19F060E00E940B01809169
:1005E000D20384FD39C063E083EC93E00E941702DC
:1005F000CBE4D6E4CE010197F1F763E083EC93E01E
:100600000E9417022197F1F763E083EC93E00E94C8
:10061000170283E592E00197F1F762E083EC93E043
:100620000E9417028091D20380620E94970284E0A8
:100630008093D3038CE00E94970281E00E9497028E
:100640008BE39FE10197F1F782E08093D40386E08A
:10065000DF91CF910C94970280620E9497028BE405
:1006600096E40197F1F78091D20380620E9497028D
:1006700083E592E00197F1F78091D20380620E94B6
:100680009702D0CF9091D603691710F06FEF690FE2
:10069000E62FF0E0ED53FC4F9489890F80680C94AD
:1006A000970241E00E94440281E090E00895AF92F9
:1006B000BF92CF92DF92EF92FF920F931F93CF934F
:1006C000DF93E3E7F3E08DE2819323E0E738F2077D
:1006D000D9F70091000110910101D8011896ED9110
:1006E000FC91309709F43FC0C681D781E885F98530
:1006F0000190F081E02DDF010D900020E9F7EA1B69
:10070000FB0B7596F695E7953197F0935702E093BA
:100710005602109255021092540280E20E94CB01C0
:10072000E885F985E080F180F70181917F018823D8
:1007300019F00E94CB01F8CF80E20E94CB012091FA
:100740004C0230914D028091500290915102281B31
:10075000390B90E080E028173907D1F00A80DB815F
:10076000C02D0196F8CF87E090E0909357028093D8
:1007700056021092550210925402CEECD1E08991AB
:10078000882319F00E94CB01FACFC5E1D3E0D7CF7F
:1007900087E893E040E230E020E0FC01E20FF31F45
:1007A00040832F5F3F4F24313105B9F74496F3E082
:1007B000833C9F0781F7EE24E394F12C92E0A92E6D
:1007C000B12C1092570210925602F0925502E0920C
:1007D00054028EE30C171D0709F080E20E94CB0142
:1007E000B0925702A0925602F0925502E092540243
:1007F000C880D980D6018D916D01882319F00E949F
:10080000CB01F8CF0A80DB81C02D209739F0BFEFF4
:10081000EB1AFB0AE4E0EE16F10499F6DF91CF91B2
:100820001F910F91FF90EF90DF90CF90BF90AF900E
:100830000895E0910001F0910101A085B185109724
:10084000E1F190E080E00084F185E02D309711F037
:100850000196F9CF81309105C9F0029701F1B0936B
:100860000101A09300011896ED91FC911997309722
:10087000D9F00680F781E02D90E080E0AE17BF0749
:10088000B1F00280F381E02D0196F8CF8091520201
:10089000909153029093510280935002E0CF809147
:1008A0004E0290914F02F6CFE5E1F3E0E5CF909351
:1008B0004D0280934C020C9457030895E09100017F
:1008C000F09101010284F385E02D309709F009953C
:1008D000E0910001F0910101268137812115310558
:1008E00089F180859185892BD9F090E080E00084A2
:1008F000F185E02D309711F00196F9CF009781F046
:100900000197B9F010924D0210924C0210925102D0
:100910001092500230930101209300010C94570370
:100920008091500290915102909353028093520211
:10093000E9CF809150029091510290934F028093A1
:100940004E02E0CF0895E0910001F0910101A481F1
:10095000B581B0930101A093000180914C02909168
:100960004D02009799F0019790934D0280934C02AD
:100970008091500290915102181619062CF401979B
:1009800090935102809350020C9457031896ED9166
:10099000FC911997309759F00680F781E02DAE173A
:1009A000BF0741F00280F381E02D0196F8CFE5E129
:1009B000F3E0F5CF90934D0280934C028230910585
:1009C000FCF282E090E0DCCFE0910001F0910101C7
:1009D000828193810097F1F090930101809300014F
:1009E00080914C0290914D02019690934D0280931C
:1009F0004C028091500290915102019683309105F2
:100A000034F490935102809350020C94570382E087
:100A100090E0F7CF10924D0210924C0210925102CA
:100A2000109250020084F185E02D85E193E030972B
:100A300011F0868197819093010180930001E5CFA9
:100A40001F920F920FB60F9211242F933F938F9303
:100A50009F93AF93BF938091590290915A02A091B6
:100A60005B02B0915C023091580223E0230F2D37D6
:100A700058F50196A11DB11D20935802809359028B
:100A800090935A02A0935B02B0935C0280915D0246
:100A900090915E02A0915F02B09160020196A11D4B
:100AA000B11D80935D0290935E02A0935F02B093AC
:100AB0006002BF91AF919F918F913F912F910F90C5
:100AC0000FBE0F901F90189526E8230F0296A11DC8
:100AD000B11DD2CF789484B5826084BD84B5816025
:100AE00084BD85B5826085BD85B5816085BD8091F9
:100AF0006E00816080936E00109281008091810071
:100B00008260809381008091810081608093810068
:100B1000809180008160809380008091B10084602A
:100B20008093B1008091B00081608093B00080918B
:100B30007A00846080937A0080917A00826080934A
:100B40007A0080917A00816080937A0080917A00A7
:100B5000806880937A001092C1008CE0E2E0F1E0BE
:100B6000A5E1B3E001900D928A95E1F78CE0EEE00B
:100B7000F1E0A9E0B3E001900D928A95E1F78CE0F5
:100B8000EAE1F1E0ADEFB2E001900D928A95E1F774
:100B90008CE0E6E2F1E0A1EFB2E001900D928A95DF
:100BA000E1F78CE0E2E3F1E0A5EEB2E001900D9216
:100BB0008A95E1F78CE0EEE3F1E0A9EDB2E0019077
:100BC0000D928A95E1F78CE0EAE4F1E0ADECB2E059
:100BD00001900D928A95E1F78CE0E6E5F1E0A1EC59
:100BE000B2E001900D928A95E1F78CE0E2E6F1E047
:100BF000A5EBB2E001900D928A95E1F78CE0EEE66C
:100C0000F1E0A9EAB2E001900D928A95E1F78CE05B
:100C1000EAE7F1E0ADE9B2E001900D928A95E1F7E3
:100C20008CE0E6E8F1E0A1E9B2E001900D928A954E
:100C3000E1F78CE0E2E9F1E0A5E8B2E001900D9285
:100C40008A95E1F78CE0EEE9F1E0A9E7B2E00190E6
:100C50000D928A95E1F78CE0EAEAF1E0ADE6B2E0C8
:100C600001900D928A95E1F78CE0E6EBF1E0A1E6C8
:100C7000B2E001900D928A95E1F764E084E10E9470
:100C80009D0260E080E00E94420360E081E00E94FB
:100C9000390160E082E00E94390160E083E00E9457
:100CA000390160E084E00E9439010E94570380E02E
:100CB000C82E80E0D82EAA24A394B12C82E00E94F2
:100CC000E200892B11F00E94E4040E948F0183E06E
:100CD0000E94E200892B11F00E94A3040E948F0160
:100CE00081E00E94E200892B11F00E945E040E94C4
:100CF0008F0184E00E94E200892B11F00E94190408
:100D00000E948F0103E213E0C3E7D3E0712C672D4B
:100D100080E00E944203912C812CFE01E80DF91D18
:100D200060807801E80CF91CF7018081681659F1A0
:100D30008091210390912203892B21F4672D882D26
:100D40000E94420341E0662D83EC93E00E9444023E
:100D5000F7016082B0922203A0922103FFEF8F1A65
:100D60009F0A84E188169104C1F673940C5E1F4FAC
:100D70006496E4E07E12CBCFC114D10409F49ECF77
:100D80000E9400009BCF1092220310922103E6CF15
:100D9000E3ECF3E01382128286EC91E0918380838E
:100DA0008AE084838FEF858389E0868388E0878368
:100DB00087E0808786E0818785E0828713861486B6
:100DC00015861686178661E080E10C949D02EE0F71
:100DD000FF1F0590F491E02D0994F894FFCF1503BF
:100DE000D501F1026102090300000000DA01FD02F1
:100DF000FD0200001503CA01E10100000903000023
:100E00001503C801E601CD021503E502000000004C
:100E1000DA01D902D9020000F102CA01E1010000A1
:100E2000E5020000F102C801EB01B502F102C102C6
:100E300000000000DA010000C1020000CD02000045
:100E4000F1016102CD02A90200000000DA016D0289
:100E50006D029D02B5020000FE01910279020000C0
:100E6000A90200000E0285029D020000A9020000F6
:100E70002602790291020000A90200003602000059
:100E80009D020000A90200003B020000A902000030
:100E9000B502000042020000B50200000000C901D6
:100EA0000000000051038C00C501C401204D454ED7
:100EB00055200054494D45004368616E67650053F5
:100EC000686F77004441544500434F4C4F520052E5
:100ED000494E47494E475F544F4E450047616D6547
:100EE0005F6F665F7468726F6E65730050697261E0
:100EF0007465735F6F665F7468655F636172696272
:100F000065616E0065617574795F616E645F6265CD
:100F1000617374004461726B004C697374656E0098
:0A0F200053455454494E4753000056
:107E0000112484B714BE81FFF0D085E080938100F7
:107E100082E08093C00088E18093C10086E0809377
:107E2000C20080E18093C4008EE0C9D0259A86E02C
:107E300020E33CEF91E0309385002093840096BBD3
:107E4000B09BFECF1D9AA8958150A9F7CC24DD24C4
:107E500088248394B5E0AB2EA1E19A2EF3E0BF2EE7
:107E6000A2D0813461F49FD0082FAFD0023811F036
:107E7000013811F484E001C083E08DD089C08234E0
:107E800011F484E103C0853419F485E0A6D080C0E4
:107E9000853579F488D0E82EFF2485D0082F10E0AE
:107EA000102F00270E291F29000F111F8ED06801E7
:107EB0006FC0863521F484E090D080E0DECF843638
:107EC00009F040C070D06FD0082F6DD080E0C81688
:107ED00080E7D80618F4F601B7BEE895C0E0D1E017
:107EE00062D089930C17E1F7F0E0CF16F0E7DF06D8
:107EF00018F0F601B7BEE89568D007B600FCFDCFD4
:107F0000A601A0E0B1E02C9130E011968C91119780
:107F100090E0982F8827822B932B1296FA010C0160
:107F200087BEE89511244E5F5F4FF1E0A038BF0790
:107F300051F7F601A7BEE89507B600FCFDCF97BE46
:107F4000E89526C08437B1F42ED02DD0F82E2BD052
:107F50003CD0F601EF2C8F010F5F1F4F84911BD097
:107F6000EA94F801C1F70894C11CD11CFA94CF0C13
:107F7000D11C0EC0853739F428D08EE10CD085E9AC
:107F80000AD08FE07ACF813511F488E018D01DD067
:107F900080E101D065CF982F8091C00085FFFCCF94
:107FA0009093C60008958091C00087FFFCCF809118
:107FB000C00084FD01C0A8958091C6000895E0E648
:107FC000F0E098E1908380830895EDDF803219F02E
:107FD00088E0F5DFFFCF84E1DECF1F93182FE3DFCA
:107FE0001150E9F7F2DF1F91089580E0E8DFEE27F6
:047FF000FF270994CA
:027FFE00040479
:00000001FF
