:100000000C9435000C945D000C945D000C945D0024
:100010000C945D000C945D000C945D000C945D00EC
:100020000C945D000C945D000C945D000C948000B9
:100030000C945D000C945D000C945D000C945D00CC
:100040000C945D000C945D000C945D000C945D00BC
:100050000C945D000C945D000C945D000C945D00AC
:100060000C945D000C945D00920011241FBECFEF34
:10007000D8E0DEBFCDBF11E0A0E0B1E0E2E4F1E006
:1000800002C005900D92A030B107D9F721E0A0E0A1
:10009000B1E001C01D92A630B207E1F710E0C5E360
:1000A000D0E004C02197FE010E949900C433D1071B
:1000B000C9F70E946F000C949F000C9400000197F8
:1000C00069F46F3F7F4F51F484B1E0E0F1E090E0DC
:1000D0009183808385B190E0938382830895E0E0EB
:1000E000F1E081E090E0048002C0880F991F0A943B
:1000F000E2F720813181822B932B91838083FFCF84
:100100001F920F920FB60F9211248F939F9395B168
:1001100081E0892785B99F918F910F900FBE0F9035
:100120001F9018956FEF7FEF81E090E00E945F00D5
:100130000895EE0FFF1F0590F491E02D0994F894B7
:02014000FFCFEF
:00000001FF
