:100000000C9474060C94A5060C9491060C9491061D
:100010000C9491060C9491060C9491060C94910604
:100020000C9491060C9491060C9491060C949306F2
:100030000C9491060C9491060C9491060C949106E4
:100040000C9491060C9491060C9491060C949106D4
:100050000C9491060C9491060C9491060C949106C4
:100060000C9491060C94910652000800520008006E
:10007000A500080052000800520008009300080084
:1000800052000800520008008300080052000800D7
:1000900052000800750008005200080052000800D5
:1000A0007B0008008300080052000800520008008E
:1000B000A500080052000800520008009300080044
:1000C0005200080052000800830008005200080097
:1000D000520008007500FEFF5200080052000800A0
:1000E000A500080052000800520008009300080014
:1000F0005200080052000800830008005200080067
:100100005200080075000800520008005200080064
:100110007B0008008300080052000800520008001D
:10012000A5000800520008005200080093000800D3
:100130005200080052000800830008005200080026
:10014000520008007500FEFF52000800520008002F
:10015000A5000800520008005200080093000800A3
:1001600052000800520008008300080052000800F6
:1001700052000800750008005200080052000800F4
:100180007B000800830008005200080052000800AD
:10019000A500080052000800520008009300080063
:1001A00052000800520008008300080052000800B6
:1001B000520008007500FEFF5200080052000800BF
:1001C000A500080052000800520008009300080033
:1001D0005200080052000800830008005200080086
:1001E0005200080075000800520008005200080084
:1001F0007B0008008300080052000800520008003D
:10020000A5000800520008005200080093000800F2
:100210005200080052000800B900F0FF9300F0FF00
:100220007B00F0FFDC00F0FFB900F0FF7B00F0FF87
:100230009300F0FFB900F0FFDC00F0FFB900F0FF21
:100240009300F0FF7B00F0FF0000000000000000C2
:10025000000000000000000000000000000000009E
:10026000000000000000000000000000000000008E
:10027000000000000000000000000000000000007E
:10028000000000000000000000000000000000006E
:10029000000000000000000000000000000000005E
:1002A000000000000000000000000000000000004E
:1002B000000000000000000000000000000000003E
:1002C000000000000000000000000000000000002E
:1002D000000000000000000000000000000000001E
:1002E000000000000000000000000000000000000E
:1002F00000000000000000000000000000000000FE
:1003000000000000000000000000000000000000ED
:1003100000000000000000000000000000000000DD
:1003200000000000000000000000000000000000CD
:1003300000000000000000000000000000000000BD
:1003400000000000000000000000000000000000AD
:10035000000000000000000000000000000000009D
:10036000000000000000000000000000000000008D
:10037000000000000000000000000000000000007D
:100380000000000000000000B8010400B8010400F3
:10039000B80104005D01F8FF0B021000B801040071
:1003A0005D01F8FF0B021000B80102009302040087
:1003B0009302040093020400BA02F8FF0B0210003B
:1003C000B80104005D01F8FF0B021000B801020043
:1003D00070030400B801F8FFB801100070030400B6
:1003E0003F03F8FF100310006E0210004B021000D4
:1003F0006E02080000000800B80108006E02040048
:100400004B02F8FF2A0210000B021000EE01100050
:100410000B021000000008005D0108009F010400AD
:100420005D01F8FFB801F0FF0B020400B801F8FF0E
:100430000B0210009302020070030400B801F8FFE1
:10044000B8011000700304003F03F8FF1003100010
:100450006E0210004B0210006E020800000008003F
:10046000B80108006E0204004B02F8FF2A021000D7
:100470000B021000EE0110000B021000000008003B
:100480005D0108009F0104005D01F8FFB801F0FF65
:10049000B80104005D01F8FF0B021000B801020072
:1004A000000000000000000000000000000000004C
:1004B000000000000000000000000000000000003C
:1004C000000000000000000000000000000000002C
:1004D000000000000000000000000000000000001C
:1004E000000000000000000000000000000000000C
:1004F00000000000000000000000000000000000FC
:1005000000000000000000000000000000000000EB
:1005100000000000000000000000000000000000DB
:1005200000000000000000000000000000000000CB
:1005300000000000000000000000000000000000BB
:1005400000000000000000000000000000000000AB
:10055000000000000000000000000000000000009B
:10056000000000000000000000000000000000008B
:10057000000000000000000000000000000000007B
:10058000000000000000000000000000000000006B
:10059000000000000000000000000000000000005B
:1005A000000000000000000000000000000000004B
:1005B000000000000000000000000000000000003B
:1005C000000000000000000000000000000000002B
:1005D000000000000000000000000000000000001B
:1005E000000000000000000000000000000000000B
:1005F00000000000000000000000000000000000FB
:1006000000000000000000000000000000000000EA
:1006100000000000000000000000000000000000DA
:1006200000000000000000000000000000000000CA
:1006300000000000000000000000000000000000BA
:1006400000000000000000000000000000000000AA
:10065000000000000000000000000000000000009A
:10066000000000000000000000000000000000008A
:10067000000000000000000000000000000000007A
:10068000000000000000000000000000000000006A
:10069000000000000000000000000000000000005A
:1006A00000000000000000008801080006010800AA
:1006B000370110005D0110008801080006010800E4
:1006C000370110005D0110008801080006010800D4
:1006D000370110005D0110008801080006010800C4
:1006E000370110005D0110008801080006010800B4
:1006F0004A0110005D011000880108000601080091
:100700004A0110005D011000880108000601080080
:100710004A0110005D011000880108000601080070
:100720004A0110005D0110008801FCFF0601FCFF7A
:10073000370110005D01100088010400060104006B
:10074000370110005D0110002601FFFF5D01FCFF75
:10075000E900FCFF37011000260110005D010400D4
:10076000E900FCFF37011000260110000601FFFF21
:100770008801FCFF0601FCFF370110005D0110003D
:100780008801040006010400370110005D0110001B
:100790002601FFFF5D01FCFFE900FCFF37011000AF
:1007A000260110005D010400E900FCFF3701100084
:1007B000260110000601FFFF8801FCFF0601FCFF77
:1007C000370110005D0110008801040006010400DB
:1007D000370110005D0110002601FEFF5D01FCFFE6
:1007E000E900FCFF2601F8FF3701F8FF2601F8FFBA
:1007F000E900F8FF0601FFFF0B02FEFFD201FEFF3A
:100800000601FEFF8801FEFF3701FEFF3701FCFFF6
:100810005D01FCFF8801FFFF0B02FEFFD201FEFF1E
:100820000601FEFF8801FEFF3701FEFF3701FCFFD6
:100830002601FCFF0B020800880108009F01100040
:10084000D20110000B020800880108009F0110006F
:10085000D20110000B020800880108009F0110005F
:10086000D20110000B020800880108009F0110004F
:10087000D2011000000004003F031000A403100088
:1008800017040800100308003F031000A403100021
:1008900017040800100310003F031000A403100009
:1008A00017040800100308003F031000A403100001
:1008B0000000000000000000000000000000000038
:1008C0000000000000000000000000000000000028
:1008D0000000000000000000000000000000000018
:1008E0000000000000000000000000000000000008
:1008F00000000000000000000000000000000000F8
:1009000000000000000000000000000000000000E7
:1009100000000000000000000000000000000000D7
:1009200000000000000000000000000000000000C7
:1009300000000000000000000000000000000000B7
:1009400000000000000000000000000000000000A7
:100950000000000000000000000000000000000097
:100960000000000000000000000000000000000087
:100970000000000000000000000000000000000077
:100980000000000000000000000000000000000067
:100990000000000000000000000000000000000057
:1009A0000000000000000000000000000000000047
:1009B0000000000000000000000000000000000037
:1009C00000000000000000004A01FCFF00000800D9
:1009D000720108008801FCFF0000080037010800D0
:1009E0004A01F8FF720108008801F8FF0B020800B5
:1009F000EE01F8FF4A0108008801F8FFEE01080047
:100A0000D2010200B801F0FF8801F0FF4A01F0FFB7
:100A10002601F0FF4A010200000004000000080067
:100A2000370104004A01FCFF0000080072010800C1
:100A30008801FCFF00000800370108004A01F8FFA8
:100A4000720108008801F8FF0B020800EE01F8FFB0
:100A500088010800EE01F8FF930208006E02010011
:100A60004B020200000004000000080037010800EB
:100A70004A01FCFF00000800720108008801FCFF29
:100A800000000800370108004A01F8FF7201080061
:100A90008801F8FF0B020800EE01F8FF4A01080088
:100AA0008801F8FFEE010800D2010200B801F0FF52
:100AB0008801F0FF4A01F0FF2601F0FF4A01FCFF28
:100AC00000000400000004009302F8FF4B0208003D
:100AD000EE01F8FFB80108008801F8FF4A01F8FFAD
:100AE000D2011000B801F8FFD2011000B801F8FFE0
:100AF000D2011000B801F8FFD2011000B801F8FFD0
:100B00008801F0FF4A01F0FF2601F0FF4A011000C2
:100B10004A0110004A01020000000000000000002D
:100B200000000000000000000000000000000000C5
:100B300000000000000000000000000000000000B5
:100B400000000000000000000000000000000000A5
:100B50000000000000000000000000000000000095
:100B60000000000000000000000000000000000085
:100B70000000000000000000000000000000000075
:100B80000000000000000000000000000000000065
:100B90000000000000000000000000000000000055
:100BA0000000000000000000000000000000000045
:100BB0000000000000000000000000000000000035
:100BC0000000000000000000000000000000000025
:100BD0000000000000000000000000000000000015
:100BE0000000000000000000000000000000000005
:100BF00000000000000000000000000000000000F5
:100C000000000000000000000000000000000000E4
:100C100000000000000000000000000000000000D4
:100C200000000000000000000000000000000000C4
:100C300000000000000000000000000000000000B4
:100C400000000000000000000000000000000000A4
:100C50000000000000000000000000000000000094
:100C60000000000000000000000000000000000084
:100C70000000000000000000000000000000000074
:100C80000000000000000000000000000000000064
:100C90000000000000000000000000000000000054
:100CA0000000000000000000000000000000000044
:100CB0000000000000000000000000000000000034
:100CC0000000000000000000000000000000000024
:100CD0000000000000000000000000000000000014
:100CE000000000000000000011241FBECFEFD8E07C
:100CF000DEBFCDBF11E0A0E0B1E0E6E8F6E102C062
:100D000005900D92A430B107D9F721E0A4E0B1E03D
:100D100001C01D92A830B207E1F70E94FB080C94B5
:100D2000410B0C9400001F920F920FB60F921124EA
:100D30008F939F9395B181E0892785B99F918F917A
:100D40000F900FBE0F901F9018951F920F920FB625
:100D50000F9211248F939F9310920501109204011A
:100D600088EA91E60197F1F79F918F910F900FBE5E
:100D70000F901F90189588E893E1009731F0E9E112
:100D8000F0E03197F1F70197F8CF8091060190914B
:100D900007018330910529F4109207011092060192
:100DA0000895019690930701809306010895009796
:100DB00041F08130910541F0029749F485E590E0DA
:100DC000089581EE90E0089588E790E0089588E71F
:100DD00090E008954F925F926F927F928F929F92D0
:100DE000AF92BF92CF92DF92EF92FF92CF93DF93B9
:100DF00000D000D0CDB7DEB76B017C0149015A01AC
:100E000020E030E0A9010E944809882309F4ADC020
:100E1000A701960160E070E080E89FE30E944D0921
:100E200020E030E04AE754E40E94AC0A6B017C0108
:100E30009B01AC01C501B4010E944D090E94BF098C
:100E40002B013C0120E030E040E05FE3C701B60148
:100E50000E94AC0A69837A838B839C83812C912CBA
:100E6000540184149504A604B7040CF0B8C020E023
:100E700030E04AE753E469817A818B819C810E944A
:100E8000AC0A6B017C0120E030E040E85FE30E94A7
:100E9000480988232CF120E03FEF4FE757E4C701D2
:100EA000B6010E94A70A1816B4F420E030E040E230
:100EB00051E469817A818B819C810E94AC0A0E94F5
:100EC000C6096115710589F089E190E00197F1F794
:100ED00061507109F6CFC701B6010E94C60902C070
:100EE00061E070E0CB010197F1F785B1816085B9D0
:100EF00020E030E040E85FE3C701B6010E94480906
:100F000088232CF120E03FEF4FE757E4C701B601FB
:100F10000E94A70A1816B4F420E030E040E251E441
:100F200069817A818B819C810E94AC0A0E94C609EA
:100F30006115710589F089E190E00197F1F7615041
:100F40007109F6CFC701B6010E94C60902C061E06F
:100F500070E0CB010197F1F785B18E7F85B98FEFF6
:100F6000881A980AA80AB80A7CCF20E030E04AE73D
:100F700053E4C501B4010E94AC0A6B017C0120E07E
:100F800030E040E85FE30E94480988231CF120E03C
:100F90003FEF4FE757E4C701B6010E94A70A1816B2
:100FA000A4F420E030E040E251E4C501B4010E9425
:100FB000AC0A0E94C6096115710589F089E190E0CB
:100FC0000197F1F761507109F6CFC701B6010E9490
:100FD000C60902C061E070E0CB010197F1F70F9004
:100FE0000F900F900F90DF91CF91FF90EF90DF90D7
:100FF000CF90BF90AF909F908F907F906F905F90B9
:101000004F9008952F923F924F925F926F927F92EE
:101010008F929F92AF92BF92CF92DF92EF92FF9208
:101020000F931F93CF93DF9300D000D0CDB7DEB7DF
:101030001C010E94D706BC01990F880B990B0E94D6
:10104000F7099B01AC0160E07CE782E198E40E9433
:101050004D090E94BF097A8369831C821B82E12C9F
:10106000F12C8B819C81803991400CF0ADC0809136
:10107000040190910501019709F0A2C080E293E07C
:10108000289E8001299E100D389E100D11240859AC
:101090001F4FCB80DC80F6013196EE0FFF1FE00F73
:1010A000F11F659174911616170634F489819A819F
:1010B0000E94190B7B011CC07723BCF489819A81A3
:1010C0000E94190B072E000C880B990B0E94F70940
:1010D00020E030E040EC5FE30E94AC0A0E94BF09D0
:1010E000EE24FF24E61AF70A03C0672B09F46CC04C
:1010F000B7010F2C000C880B990B0E94F7092B01EC
:101100003C0126E636E646E65FE30E94AC0A4B0168
:101110005C01F601EE0FFF1FE00FF11F6591749166
:1011200080E090E00E94F509A50194010E94EA0682
:1011300020E030E040E05FE3C301B2010E94AC0A6E
:101140002B013C0120E030E04AE753E40E94AC0A66
:101150004B015C0120E030E040E85FE30E94480979
:1011600088231CF120E03FEF4FE757E4C501B401AD
:101170000E94A70A1816A4F420E030E040E251E4EF
:10118000C301B2010E94AC0A0E94C6096115710533
:1011900089F089E190E00197F1F761507109F6CF8C
:1011A000C501B4010E94C60902C061E070E0CB0134
:1011B0000197F1F78B819C8102969C838B8351CFA1
:1011C00010920501109204010F900F900F900F9054
:1011D000DF91CF911F910F91FF90EF90DF90CF9013
:1011E000BF90AF909F908F907F906F905F904F9047
:1011F0003F902F90089584B1816084B924B181E03B
:1012000090E0AC010090020102C0440F551F0A9407
:10121000E2F74095242324B924B10090000102C0D4
:10122000880F991F0A94E2F78095822384B9E9E632
:10123000F0E08081836080838DB381608DBB789482
:1012400083B190E00090020102C0959587950A94C1
:10125000E2F780FF0CC081E090E09093050180935D
:10126000040180910601909107010E94020883B158
:1012700090E00090000102C0959587950A94E2F7EE
:1012800080FD0E94BB0688EA91E60197F1F7D8CF6E
:101290000E94320A08F481E008950E9461090C94CA
:1012A0006D0A0E94660A58F00E945F0A40F029F415
:1012B0005F3F29F00C94560A51110C94A10A0C942A
:1012C0005C0A0E947E0A68F39923B1F3552391F3D7
:1012D000951B550BBB27AA2762177307840738F0A5
:1012E0009F5F5F4F220F331F441FAA1FA9F335D002
:1012F0000E2E3AF0E0E832D091505040E695001CB6
:10130000CAF72BD0FE2F29D0660F771F881FBB1F6F
:10131000261737074807AB07B0E809F0BB0B802D4D
:10132000BF01FF2793585F4F3AF09E3F510578F079
:101330000C94560A0C94A10A5F3FE4F3983ED4F350
:10134000869577956795B795F7959F5FC9F7880F4D
:10135000911D9695879597F90895E1E0660F771F9F
:10136000881FBB1F621773078407BA0720F0621B30
:10137000730B840BBA0BEE1F88F7E09508950E945B
:10138000C6096894B1110C94A10A08950E94860AB6
:1013900088F09F5798F0B92F9927B751B0F0E1F036
:1013A000660F771F881F991F1AF0BA95C9F714C0E6
:1013B000B13091F00E94A00AB1E008950C94A00A07
:1013C000672F782F8827B85F39F0B93FCCF386951F
:1013D00077956795B395D9F73EF49095809570957C
:1013E00061957F4F8F4F9F4F0895E89409C097FBF9
:1013F0003EF490958095709561957F4F8F4F9F4FEC
:101400009923A9F0F92F96E9BB279395F69587952F
:1014100077956795B795F111F8CFFAF4BB0F11F4F2
:1014200060FF1BC06F5F7F4F8F4F9F4F16C0882399
:1014300011F096E911C0772321F09EE8872F762FCF
:1014400005C0662371F096E8862F70E060E02AF010
:101450009A95660F771F881FDAF7880F96958795FC
:1014600097F90895990F0008550FAA0BE0E8FEEFD1
:1014700016161706E807F907C0F012161306E40758
:10148000F50798F0621B730B840B950B39F40A2651
:1014900061F0232B242B252B21F408950A2609F42F
:1014A000A140A6958FEF811D811D089597F99F6733
:1014B00080E870E060E008959FEF80EC08950024DC
:1014C0000A941616170618060906089500240A94A9
:1014D00012161306140605060895092E0394000C2F
:1014E00011F4882352F0BB0F40F4BF2B11F460FFBE
:1014F00004C06F5F7F4F8F4F9F4F089557FD9058E7
:10150000440F551F59F05F3F71F04795880F97FBC7
:10151000991F61F09F3F79F0879508951216130681
:101520001406551FF2CF4695F1DF08C016161706B0
:101530001806991FF1CF86957105610508940895E5
:10154000E894BB2766277727CB0197F908950E9477
:10155000320A08F48FEF08950E94BF0A0C946D0AB6
:101560000E945F0A38F00E94660A20F0952311F06D
:101570000C94560A0C945C0A11240C94A10A0E9443
:101580007E0A70F3959FC1F3950F50E0551F629F3F
:10159000F001729FBB27F00DB11D639FAA27F00DCC
:1015A000B11DAA1F649F6627B00DA11D661F829FF3
:1015B0002227B00DA11D621F739FB00DA11D621FD8
:1015C000839FA00D611D221F749F3327A00D611DF5
:1015D000231F849F600D211D822F762F6A2F1124D7
:1015E0009F5750409AF0F1F088234AF0EE0FFF1F0A
:1015F000BB1F661F771F881F91505040A9F79E3F61
:10160000510580F00C94560A0C94A10A5F3FE4F354
:10161000983ED4F3869577956795B795F795E795B6
:101620009F5FC1F7FE2B880F911D9695879597F9BF
:10163000089597FB072E16F4009407D077FD09D084
:101640000E942D0B07FC05D03EF4909581959F4F8D
:101650000895709561957F4F0895AA1BBB1B51E1BA
:1016600007C0AA1FBB1FA617B70710F0A61BB70B12
:10167000881F991F5A95A9F780959095BC01CD01B7
:061680000895F894FFCF6D
:041686000400050057
:00000001FF
