:100000000C9462000C948A000C948A000C948A0070
:100010000C948A000C948A000C948A000C948A0038
:100020000C948A000C948A000C948A000C948A0028
:100030000C948A000C948A000C948A000C948A0018
:100040000C940D020C948A000C948A000C948A0083
:100050000C948A000C948A000C948A000C948A00F8
:100060000C948A000C948A000000000024002700F1
:100070002A0000000000250028002B0000000000DE
:1000800023002600290004040404040404040202DA
:100090000202020203030303030301020408102007
:1000A0004080010204081020010204081020000012
:1000B0000008000201000003040700000000000027
:1000C0000000B50411241FBECFEFD8E0DEBFCDBFC6
:1000D00011E0A0E0B1E0E2E1FAE002C005900D928B
:1000E000AE31B107D9F721E0AEE1B1E001C01D9218
:1000F000A739B207E1F710E0C2E6D0E004C02197CB
:10010000FE010E940105C136D107C9F70E945702BE
:100110000C9407050C94000096E0899FD0011124EF
:10012000A85DBE4F90967C936E935F9791E09196F9
:100130009C93919790919401E0919501F091960193
:10014000992339F0309751F0811108C08091440112
:1001500004C0309719F05C968C9109940895CF9261
:10016000DF92EF92FF920F931F9396E0899FF00129
:100170001124E85DFE4F11A2278D30A121303105F9
:1001800039F158F02230310509F447C023303105E8
:1001900009F04FC060E070E044C0662309F449C034
:1001A00061E070E00E948C002FB7F89480912401E8
:1001B00090912501A0912601B09127012FBF809336
:1001C000800190938101A0938201B093830131C09B
:1001D0009FB7F894C0902401D0902501E0902601AB
:1001E000F09027019FBF0091800110918101209123
:1001F000820130918301C01AD10AE20AF30A009108
:1002000092011091930120E030E00C151D052E05A0
:100210003F0518F462E070E004C061110AC063E0B9
:1002200070E01F910F91FF90EF90DF90CF900C94B2
:100230008C001F910F91FF90EF90DF90CF90089569
:10024000833081F028F4813099F08230A1F0089554
:100250008730A9F08830B9F08430D1F480918000E3
:100260008F7D03C0809180008F77809380000895F8
:1002700084B58F7702C084B58F7D84BD0895809149
:10028000B0008F7703C08091B0008F7D8093B00065
:100290000895CF93DF93282F30E0F901E255FF4F07
:1002A0008491F901E656FF4FD491F901EA57FF4FC7
:1002B000C491CC2391F081110E942001EC2FF0E039
:1002C000EE0FFF1FE458FF4FA591B491EC91ED2381
:1002D00081E090E021F480E002C080E090E0DF91D6
:1002E000CF9108951F93CF93DF93282F30E0F9012A
:1002F000E255FF4F8491F901E656FF4FD491F90181
:10030000EA57FF4FC491CC23C1F0162F81110E94F0
:100310002001EC2FF0E0EE0FFF1FEE58FF4FA591EC
:10032000B4919FB7F894111104C08C91D095D82343
:1003300002C0EC91DE2BDC939FBFDF91CF911F9128
:100340000895CF93DF9390E0FC01E656FF4F249190
:10035000FC01EA57FF4F8491882361F190E0880FF8
:10036000991FFC01E859FF4FC591D491FC01EE584B
:10037000FF4FA591B491611109C09FB7F89488818E
:10038000209582238883EC912E230BC0623061F488
:100390009FB7F8948881322F309583238883EC911E
:1003A0002E2B2C939FBF06C08FB7F894E8812E2B7D
:1003B00028838FBFDF91CF9108953FB7F894809144
:1003C000200190912101A0912201B091230126B535
:1003D000A89B05C02F3F19F00196A11DB11D3FBF7D
:1003E000BA2FA92F982F8827820F911DA11DB11D0B
:1003F000BC01CD0142E0660F771F881F991F4A9507
:10040000D1F70895862F642F0C94A101862F642FB5
:100410000C947201862F0C9449011F920F920FB613
:100420000F9211242F933F938F939F93AF93BF937A
:100430008091240190912501A0912601B09127017E
:1004400030911F0123E0230F2D3720F40196A11DC9
:10045000B11D05C026E8230F0296A11DB11D2093F2
:100460001F018093240190932501A0932601B0934E
:1004700027018091200190912101A0912201B0914A
:1004800023010196A11DB11D8093200190932101AC
:10049000A0932201B0932301BF91AF919F918F91BF
:1004A0003F912F910F900FBE0F901F901895789449
:1004B00084B5826084BD84B5816084BD85B5826069
:1004C00085BD85B5816085BD80916E00816080931A
:1004D0006E00109281008091810082608093810083
:1004E0008091810081608093810080918000816093
:1004F000809380008091B10084608093B1008091EE
:10050000B00081608093B00080917A008460809315
:100510007A0080917A00826080937A0080917A00DC
:10052000816080937A0080917A00806880937A005D
:100530001092C100C7E061E08C2F0E94A101CF5F43
:10054000CE30C9F7812C912C5401839440E0642E65
:1005500040E0742E21E0209394018FB7F8944091ED
:1005600024015091250160912601709127018FBFD0
:100570008091840190918501A0918601B0918701BD
:10058000481B590B6A0B7B0B809190019091910154
:10059000A0E0B0E084179507A607B70708F0E4C00D
:1005A000C0E080918E01C81710F0512C40C0E0913E
:1005B0008A01F0918B01EC0FF11D62E080810E94B5
:1005C000A101CF5FEECFC42DD0E0E0918A01F09180
:1005D0008B01EC0FFD1F80810E9449012496CC0FF6
:1005E000DD1FC85DDE4F892B09F04BC088819981E2
:1005F0008C299D2999838883439480918E01481684
:1006000010F3E0918C01F0918D01E00FF11F61E09A
:1006100080810E94720180918C0190918D01FC017A
:10062000E00FF11F60E080810E94A101539480914E
:100630008F01581658F5052D10E0E0918C01F091CE
:100640008D01E00FF11F61E080810E94A101E09126
:100650008C01F0918D01E00FF11F60E080810E941C
:100660007201D501C401052C04C0880F991FAA1F6F
:10067000BB1F0A94D2F76C017C01E094F094412CEA
:10068000BCCF888199818E219F21B4CFC8E2D1E06F
:10069000FE01878D90A1892B31F4148E8FEF9FEF8F
:1006A000968F858F11A2369691E0E436F90789F787
:1006B000F12C80918E01F81658F5E12C0F2D10E0E9
:1006C000000F111F005D1E4F20918F01E216F0F404
:1006D000F801408151810E2C02C0569547950A942D
:1006E000E2F7642F6170F29E900111242E0D311DEE
:1006F000E8E2F1E080E0A58DB68D2A173B0709F40A
:100700002AC18F5F36968A30B1F708C1F394D1CFF2
:1007100080E099A1911181E02696E4E6F1E0EC17E2
:10072000FD07B9F79FB7F894409124015091250136
:1007300060912601709127019FBF409384015093DF
:1007400085016093860170938701882369F0809109
:100750004901882349F08091470190914801019710
:1007600019F4C091440103C010929401C0E0C093F9
:100770001E01C11107C06114710409F4EBCE0E947F
:100780000000E8CED7E060E08D2F0E947201DF5FAD
:10079000DE30C9F7C13309F456C0C23349F4C7E0AB
:1007A00061E08C2F0E947201CF5FCC30C9F7E3CF9C
:1007B000C33389F4C7E0D0E0CD30D10539F0CA3079
:1007C000D10521F061E08C2F0E9472012196CE307C
:1007D000D10591F7D0CFC43379F461E088E00E946D
:1007E000720161E089E00E94720161E08CE00E9488
:1007F000720161E08DE02DC0C53379F4C7E0D0E02F
:10080000CE018D7F089721F061E08C2F0E9472014C
:100810002196CE30D105A1F7AECFC63371F4C7E033
:10082000D0E0C830D10521F061E08C2F0E94720128
:100830002196CE30D105A9F79ECFC73369F461E088
:1008400087E00E94720161E088E00E94720161E02D
:100850008CE00E9472018FCFC83349F4C7E061E099
:100860008C2F0E947201CF5FCE30C9F784CFC9337D
:1008700079F4C7E0D0E0CE010A97029720F061E05A
:100880008C2F0E9472012196CE30D105A1F773CF33
:10089000C03371F4C7E0D0E0C930D10521F061E088
:1008A0008C2F0E9472012196CE30D105A9F763CF1B
:1008B000CA3211F4C7E024C0C332E1F35CCF0E9416
:1008C000DD01DC01CB018C199D09AE09BF09883E11
:1008D0009340A105B10598F3F1E02F1A31084108C2
:1008E000510828EEC20E23E0D21EE11CF11C211497
:1008F00031044104510419F7CF5FCE3009F43BCFE6
:1009000061E08C2F0E9472010E94DD016B017C016D
:1009100084E6282E312C412C512CD1CF40FF1DC014
:10092000E8E2F1E080E090E0448D411118C0E091F0
:100930008801F0918901E20FF31F408156E0589F32
:10094000F001599FF00D1124E85DFE4F448F368F62
:10095000258F10A2178E0E94AF00E394B5CE0196AA
:1009600036968A30910501F7F8CF10922A0110923D
:100970002E0110922D0110922F0187E191E09093AA
:10098000290180932801E8E2F1E0148E10A2178E6D
:1009900011A2369681E0E436F807B9F783E091E0DA
:1009A00090938B0180938A0180E091E090938D0178
:1009B00080938C0184E080938E0183E080938F018B
:1009C00087E091E090938901809388018AE090E02C
:1009D000909391018093900184EF91E09093930123
:1009E00080939201109296011092950110928401C9
:1009F0001092850110928601109287011092940145
:100A00000895EE0FFF1F0590F491E02D0994F894DE
:020A1000FFCF16
:100A120004050603020100313233343536373839E2
:0E0A22002A302300000000020206020A020031
:00000001FF
