:100000000C9462000C948A000C948A000C948A0070
:100010000C948A000C948A000C948A000C948A0038
:100020000C948A000C948A000C948A000C948A0028
:100030000C948A000C948A000C948A000C948A0018
:100040000C9445020C948A000C948A000C948A004B
:100050000C948A000C948A000C948A000C948A00F8
:100060000C948A000C948A000000000024002700F1
:100070002A0000000000250028002B0000000000DE
:1000800023002600290004040404040404040202DA
:100090000202020203030303030301020408102007
:1000A0004080010204081020010204081020000012
:1000B0000008000201000003040700000000000027
:1000C00000003A0411241FBECFEFD8E0DEBFCDBF41
:1000D00011E0A0E0B1E0ECE1F9E002C005900D9282
:1000E000AE31B107D9F721E0AEE1B1E001C01D9218
:1000F000A639B207E1F710E0C2E6D0E004C02197CC
:10010000FE010E948604C136D107C9F70E948F0202
:100110000C948C040C94000096E0899FD00111246B
:10012000A95DBE4F90967C936E935F9791E09196F8
:100130009C93919790919301E0919401F091950196
:10014000992339F0309751F0811108C08091430113
:1001500004C0309719F05C968C9109940895CF9261
:10016000DF92EF92FF920F931F9396E0899FF00129
:100170001124E95DFE4F11A2278D30A121303105F8
:1001800039F158F02230310509F447C023303105E8
:1001900009F04FC060E070E044C0662309F449C034
:1001A00061E070E00E948C002FB7F89480912301E9
:1001B00090912401A0912501B09126012FBF809339
:1001C0007F0190938001A0938101B093820131C09F
:1001D0009FB7F894C0902301D0902401E0902501AE
:1001E000F09026019FBF00917F0110918001209126
:1001F000810130918201C01AD10AE20AF30A00910A
:1002000091011091920120E030E00C151D052E05A2
:100210003F0518F462E070E004C061110AC063E0B9
:1002200070E01F910F91FF90EF90DF90CF900C94B2
:100230008C001F910F91FF90EF90DF90CF90089569
:10024000833081F028F4813099F08230A1F0089554
:100250008730A9F08830B9F08430D1F480918000E3
:100260008F7D03C0809180008F77809380000895F8
:1002700084B58F7702C084B58F7D84BD0895809149
:10028000B0008F7703C08091B0008F7D8093B00065
:100290000895CF93DF93282F30E0F901E255FF4F07
:1002A0008491F901E656FF4FD491F901EA57FF4FC7
:1002B000C491CC2391F081110E942001EC2FF0E039
:1002C000EE0FFF1FE458FF4FA591B491EC91ED2381
:1002D00081E090E021F480E002C080E090E0DF91D6
:1002E000CF9108951F93CF93DF93282F30E0F9012A
:1002F000E255FF4F8491F901E656FF4FD491F90181
:10030000EA57FF4FC491CC23C1F0162F81110E94F0
:100310002001EC2FF0E0EE0FFF1FEE58FF4FA591EC
:10032000B4919FB7F894111104C08C91D095D82343
:1003300002C0EC91DE2BDC939FBFDF91CF911F9128
:100340000895CF93DF9390E0FC01E656FF4F249190
:10035000FC01EA57FF4F8491882361F190E0880FF8
:10036000991FFC01E859FF4FC591D491FC01EE584B
:10037000FF4FA591B491611109C09FB7F89488818E
:10038000209582238883EC912E230BC0623061F488
:100390009FB7F8948881322F309583238883EC911E
:1003A0002E2B2C939FBF06C08FB7F894E8812E2B7D
:1003B00028838FBFDF91CF9108953FB7F894809144
:1003C0001F0190912001A0912101B091220126B539
:1003D000A89B05C02F3F19F00196A11DB11D3FBF7D
:1003E000BA2FA92F982F8827820F911DA11DB11D0B
:1003F000BC01CD0142E0660F771F881F991F4A9507
:10040000D1F708958F929F92AF92BF92CF92DF92D1
:10041000EF92FF920E94DD014B015C0188EEC82E35
:1004200083E0D82EE12CF12C0E94DD01DC01CB0110
:1004300088199909AA09BB09883E9340A105B1050D
:1004400098F321E0C21AD108E108F10888EE880E7D
:1004500083E0981EA11CB11CC114D104E104F10475
:1004600019F7FF90EF90DF90CF90BF90AF909F90E3
:100470008F900895862F642F0C94A101862F642FEE
:100480000C947201862F0C9449011F920F920FB6A3
:100490000F9211242F933F938F939F93AF93BF930A
:1004A0008091230190912401A0912501B091260112
:1004B00030911E0123E0230F2D3720F40196A11D5A
:1004C000B11D05C026E8230F0296A11DB11D209382
:1004D0001E018093230190932401A0932501B093E2
:1004E000260180911F0190912001A0912101B091DE
:1004F00022010196A11DB11D80931F01909320013F
:10050000A0932101B0932201BF91AF919F918F9150
:100510003F912F910F900FBE0F901F9018957894D8
:1005200084B5826084BD84B5816084BD85B58260F8
:1005300085BD85B5816085BD80916E0081608093A9
:100540006E00109281008091810082608093810012
:100550008091810081608093810080918000816022
:10056000809380008091B10084608093B10080917D
:10057000B00081608093B00080917A0084608093A5
:100580007A0080917A00826080937A0080917A006C
:10059000816080937A0080917A00806880937A00ED
:1005A0001092C10061E08CE00E94A10161E08DE049
:1005B0000E94A101812C912C5401839422242A941D
:1005C000322C60E0662E60E0762E21E020939301CD
:1005D0008FB7F89440912301509124016091250137
:1005E000709126018FBF8091830190918401A09129
:1005F0008501B0918601481B590B6A0B7B0B8091DA
:100600008F0190919001A0E0B0E084179507A607B4
:10061000B70708F0E4C0C0E080918D01C81710F062
:10062000512C40C0E0918901F0918A01EC0FF11D3D
:1006300062E080810E94A101CF5FEECFC42DD0E0A7
:10064000E0918901F0918A01EC0FFD1F80810E94E9
:1006500049012496CC0FDD1FC95DDE4F892B09F0BF
:100660004BC0888199818C299D29998388834394E3
:1006700080918D01481610F3E0918B01F0918C016F
:10068000E00FF11F61E080810E94720180918B0177
:1006900090918C01FC01E00FF11F60E080810E94CD
:1006A000A101539480918E01581658F5052D10E044
:1006B000E0918B01F0918C01E00FF11F61E08081EE
:1006C0000E94A101E0918B01F0918C01E00FF11FDC
:1006D00060E080810E947201D501C401052C04C034
:1006E000880F991FAA1FBB1F0A94D2F76C017C01C7
:1006F000E094F094412CBCCF888199818E219F2178
:10070000B4CFC7E2D1E0FE01878D90A1892B21F4FF
:10071000148E368E258E11A2369631E0E336F3071D
:1007200099F710E080918D01181770F500E0E12E27
:10073000F12CC701880F991FFC01E15DFE4F7F017D
:1007400020918E010217F0F4F70140815181002EB3
:1007500002C0569547950A94E2F7642F6170129F84
:1007600090011124200F311DE7E2F1E080E0A58D1A
:10077000B68D2A173B0709F473C08F5F36968A300F
:10078000B1F750C01F5FCECF80E099A1911181E0F9
:10079000269621E0C336D207C1F79FB7F89440915F
:1007A00023015091240160912501709126019FBF82
:1007B0004093830150938401609385017093860177
:1007C000882369F080914801882349F0809146018F
:1007D00090914701019719F48091430103C0109251
:1007E000930180E0082E000C990B0097A1F061E0C6
:1007F000C79741F48DE00E9472010E94020260E0FE
:100800008DE007C08CE00E9472010E94020260E04D
:100810008CE00E9472016114710409F4D6CE0E942A
:100820000000D3CE40FF1EC0E7E2F1E080E090E0A0
:10083000448D411119C0E0918701F0918801E20FC8
:10084000F31F7081F6E0F89FA001F99F500D11246D
:10085000FA01E95DFE4F748F368F258F10A2178E37
:100860000E94AF000F5F6CCF019636968A309105DB
:10087000F9F6F8CF1092290110922D0110922C0157
:1008800010922E0187E191E0909328018093270137
:10089000E7E2F1E0148E10A2178E11A2369681E0E5
:1008A000E336F807B9F783E091E090938A018093EB
:1008B000890180E091E090938C0180938B0184E02A
:1008C00080938D0183E080938E0187E091E0909387
:1008D0008801809387018AE090E090939001809353
:1008E0008F0184EF91E09093920180939101109297
:1008F000950110929401109283011092840110923C
:10090000850110928601109293010895EE0FFF1F4A
:0C0910000590F491E02D0994F894FFCFBD
:10091C0004050603020100313233343536373839D9
:0E092C002A3023000000003A023E0242020080
:107E0000112484B714BE81FFF0D085E080938100F7
:107E100082E08093C00088E18093C10086E0809377
:107E2000C20080E18093C4008EE0C9D0259A86E02C
:107E300020E33CEF91E0309385002093840096BBD3
:107E4000B09BFECF1D9AA8958150A9F7CC24DD24C4
:107E500088248394B5E0AB2EA1E19A2EF3E0BF2EE7
:107E6000A2D0813461F49FD0082FAFD0023811F036
:107E7000013811F484E001C083E08DD089C08234E0
:107E800011F484E103C0853419F485E0A6D080C0E4
:107E9000853579F488D0E82EFF2485D0082F10E0AE
:107EA000102F00270E291F29000F111F8ED06801E7
:107EB0006FC0863521F484E090D080E0DECF843638
:107EC00009F040C070D06FD0082F6DD080E0C81688
:107ED00080E7D80618F4F601B7BEE895C0E0D1E017
:107EE00062D089930C17E1F7F0E0CF16F0E7DF06D8
:107EF00018F0F601B7BEE89568D007B600FCFDCFD4
:107F0000A601A0E0B1E02C9130E011968C91119780
:107F100090E0982F8827822B932B1296FA010C0160
:107F200087BEE89511244E5F5F4FF1E0A038BF0790
:107F300051F7F601A7BEE89507B600FCFDCF97BE46
:107F4000E89526C08437B1F42ED02DD0F82E2BD052
:107F50003CD0F601EF2C8F010F5F1F4F84911BD097
:107F6000EA94F801C1F70894C11CD11CFA94CF0C13
:107F7000D11C0EC0853739F428D08EE10CD085E9AC
:107F80000AD08FE07ACF813511F488E018D01DD067
:107F900080E101D065CF982F8091C00085FFFCCF94
:107FA0009093C60008958091C00087FFFCCF809118
:107FB000C00084FD01C0A8958091C6000895E0E648
:107FC000F0E098E1908380830895EDDF803219F02E
:107FD00088E0F5DFFFCF84E1DECF1F93182FE3DFCA
:107FE0001150E9F7F2DF1F91089580E0E8DFEE27F6
:047FF000FF270994CA
:027FFE00040479
:0400000300007E007B
:00000001FF
