S01A00004576616C756174696F6E2032202D204156522E737265634A
S11300000C9434000C9451000C9451000C94510045
S11300100C9451000C9451000C9451000C94510018
S11300200C9451000C9451000C9451000C94510008
S11300300C9451000C9451000C9451000C945100F8
S11300400C9451000C9451000C9451000C945100E8
S11300500C9451000C9451000C9451000C945100D8
S11300600C9451000C94510011241FBECFEFD8E022
S1130070DEBFCDBF11E0A0E0B1E0ECEFF8E002C0DC
S113008005900D92AA31B107D9F721E0AAE1B1E0B8
S113009001C01D92AD34B207E1F70E9428040C940C
S11300A07C040C9400009C0181E090E061157105D2
S11300B059F0AC01429FC001439F900D529F900D97
S11300C0112461507109F2CF089549B150E021E043
S11300D030E002C0220F331F8A95E2F7421753071C
S11300E011F481E0089580E0089584B1816084B9B9
S11300F085B1816085B92FEF8AE197EB215080406B
S11301009040E1F700C0000015B80895803629E05A
S113011092078CF42091350130913601F901EE0FEC
S1130120FF1FEF5DFE4F918380832F5F3F4F30931E
S1130130360120933501089520E030E040913501E7
S11301405091360124173507ACF4281739077CF091
S1130150F9013196EE0FFF1FEF5DFE4F4081518193
S1130160F901EE0FFF1FEF5DFE4F518340832F5FB8
S11301703F4FE4CF0895CF92DF92EF92FF920F9317
S11301801F93CF93DF938091350190913601892B92
S113019009F44EC00F2EFAE1CF2EF1E0DF2EF02D40
S11301A00F2EFBE1EF2EF1E0FF2EF02D0CE111E01C
S11301B02DE131E04EE151E06FE171E080E291E048
S11301C00E945A02C0E0D0E080913501909136013E
S11301D08C179D076CF1FE01EE0FFF1FEF5DFE4FC4
S11301E020813181C90164E670E00E945404809149
S11301F01C0190E068177907C9F4C90164E670E04E
S11302000E94540420911B0130E08217930771F47B
S11302100E947500CE010E949C008091350190914E
S11302203601019790933601809335012196CCCF06
S1130230DF91CF911F910F91FF90EF90DF90CF90BE
S11302400895CF93DF93EC0121E030E0E0E0F0E0AB
S1130250C217D3076CF0C90183709927892B19F44D
S1130260E259FE4F02C0E359FE4F2F5F3F4FF0CFDC
S113027020E030E0DB0111972A173B073CF591E0C1
S1130280DE01A370BB27AB2B09F090E0992391F01A
S113029091E02130310509F090E0992359F0D9011A
S11302A0AA0FBB1FA050BF4F8D919C91E80FF91F5F
S11302B0319609C0D901AA0FBB1FA050BF4F8D9121
S11302C09C91E80FF91F2F5F3F4FD4CF4E0F5F1F54
S11302D0CA01059667E070E00E945404DF91CF9153
S11302E008956F927F928F929F92AF92BF92CF9216
S11302F0DF92EF92FF920F931F93CF93DF93EC0162
S113030088809980AA80BB806C807D80A301B50120
S1130310C4010E9421010E811F81E884F984CA84EA
S1130320DB84940121503109C1E02236310508F003
S1130330C0E021E01A141B040CF020E061E09DE011
S1130340A916B1040CF060E071E0161417040CF067
S113035070E051E090E2691671040CF050E0312F26
S11303603095331F3327331F41E0083111050CF05A
S113037040E0AF2DA095AA1FAA27AA1FB1E09CE3D5
S1130380E916F1040CF0B0E09D2D9095E92FEE1FD5
S1130390EE27EE1FF1E09CE3C916D1040CF0F0E067
S11303A02C23622367235623952F932349234A231F
S11303B0942F9B239E2341F0FF2331F0282F462DB9
S11303C06A2D882D0E941902DF91CF911F910F9100
S11303D0FF90EF90DF90CF90BF90AF909F908F9061
S11303E07F906F9008959DEC899F912D112496958F
S11303F096959695292F220F920F292F220F820F5F
S11304000895282F30E0359527953595279535950E
S1130410279535952795922F990F290F922F990F8C
S1130420891B08950E94B20283E08A95F1F70000C7
S11304300895CF92EF92FF920F931F93CF93DF9380
S1130440C82FD62F142FF22E80ED0E94DE0280E0FA
S11304500E9410038C2D0E94F3010E9410038E2D24
S11304600E94F3010E941003802F0E94F3010E9456
S113047010038F2D0E94F3010E941003812F0E940C
S1130480F3010E9410038D2F0E94F3010E941003B8
S11304908C2F0E94F3010E94100380E00E9410033D
S11304A00E940803DF91CF911F910F91FF90EF906D
S11304B0CF9008956F927F928F929F92AF92BF9246
S11304C0CF92DF92EF92FF920F931F93CF93DF931C
S11304D0EC013B015A01490180ED0E94DE0280E0FB
S11304E00E9410030E94080381ED0E9405030E94EC
S11304F022038F770E940102F60180830E94220367
S11305000E940102F70180830E9422030E940102DB
S1130510F80180830E9422030E940102F401808377
S11305200E9422030E940102F50180830E9422039B
S11305300E940102F30180830E942C030E940102A5
S113054088830E940803DF91CF911F910F91FF9040
S1130550EF90DF90CF90BF90AF909F908F907F905F
S11305606F9008951092B90080E28093B8000895C6
S113057094EA9093BC009091BC009923E4F7909185
S1130580B900987F983011F0903191F48093BB00BA
S113059084E88093BC008091BC008823E4F78091B8
S11305A0B900887F883131F0803431F480E00895D7
S11305B081E0089580E0089581E0089594EA90939D
S11305C0BC009091BC009923E4F79091B900987F06
S11305D0983011F0903191F78093BB0094E8909398
S11305E0BC009091BC009923E4F79091B900987FE6
S11305F0903211F0983541F494E99093BC009091B5
S1130600BC0094FDFCCFDACF08950E94B80208958F
S113061084E98093BC008091BC0084FDFCCF0895E4
S11306208093BB0084E88093BC008091BC00882345
S1130630E4F78091B900887F883211F081E0089551
S113064080E0089584EC8093BC008091BC008823F2
S1130650E4F78091BB00089584E88093BC00809106
S1130660BC008823E4F78091BB00089581E00E94D8
S11306706500882391F08091490190914A01019687
S113068090934A01809349012FE946E851E02150B3
S113069040405040E1F700C0000082E00E94650045
S11306A08823A1F160911801709119018AE090E00A
S11306B00E9453002091490130914A01AC01429FAC
S11306C0C001439F900D529F900D1124209143012E
S11306D030914401820F931F90934401809343010E
S11306E080911801909119010197909319018093B9
S11306F0180110924A01109249015FE986E891E0DD
S1130700515080409040E1F700C0000080911801F2
S1130710909119010196E9F480914301909144016B
S11307200E94860083E090E0909319018093180161
S1130730109244011092430110924C0110924B010B
S11307404FE956E881E0415050408040E1F700C055
S11307500000089581E00E946500882391F0809153
S1130760490190914A01019690934A01809349016D
S11307702FE986E891E0215080409040E1F700C0E5
S1130780000082E00E946500882309F445C080913E
S1130790450190914601892BD1F4809149019091B2
S11307A04A019C01220F331F880F991F880F991F3C
S11307B0880F991F820F931F90934A0180934901D8
S11307C081E090E090934601809345011CC08091A4
S11307D0470190914801FC01EE0FFF1FE95CFE4FB9
S11307E02091490130914A013183208301969093ED
S11307F048018093470110924A01109249011092D6
S11308004601109245012FE986E891E0215080408D
S11308109040E1F700C000008091470190914801A9
S11308200697A9F487E391E00E94710110924801B0
S11308301092470110924C0110924B012FE986E867
S113084091E0215080409040E1F700C000000895FD
S11308500E9412020E94BB0080E00E94650088236F
S113086091F080914B0190914C01019690934C0131
S113087080934B012FE986E891E02150804090401D
S1130880E1F700C0000080914B0190914C01019769
S113089011F40E94360380914B0190914C01029710
S11308A0C9F60E94AA03D6CF97FB072E16F400942C
S11308B007D077FD09D00E94680407FC05D03EF4F8
S11308C0909581959F4F0895709561957F4F0895F8
S11308D0AA1BBB1B51E107C0AA1FBB1FA617B70762
S11308E010F0A61BB70B881F991F5A95A9F780957E
S10F08F09095BC01CD010895F894FFCF51
S11308FC1F001C001F001E001F001E001F001F00F5
S10D090C1E001F001E001F00030060
S9030000FC
