:100000000C9434000C9451000C9451000C94510049
:100010000C9451000C9451000C9451000C9451001C
:100020000C9451000C9451000C9451000C9451000C
:100030000C9451000C9451000C9451000C945100FC
:100040000C9451000C9451000C9451000C945100EC
:100050000C9451000C9451000C9451000C945100DC
:100060000C9451000C94510011241FBECFEFD8E026
:10007000DEBFCDBF11E0A0E0B1E0E4E5F2E002C0F8
:1000800005900D92AC30B107D9F721E0ACE0B1E0BA
:1000900001C01D92A531B207E1F70E94B7000C9490
:1000A00028010C9400002FE724B988E785B983B1B3
:1000B000877090E090931401809313018DE08A95EE
:1000C000F1F7000024B987E085B983B1887790E023
:1000D00090931201809311018DE08A95F1F7000051
:1000E00080911301909114018130910539F482E0DF
:1000F00090E090930E0180930D010DC0029739F4AA
:1001000081E090E090930E0180930D0104C0109265
:100110000E0110920D018091110190911201883011
:10012000910541F4E0910D01F0910E01E050FF4F77
:10013000808108958031910541F4E0910D01F091A5
:100140000E01E050FF4F83810895809741F4E091C4
:100150000D01F0910E01E050FF4F86810895E0916E
:100160000D01F0910E01E050FF4F808108958FEF57
:100170008AB90E94530080930C01813311F482E20A
:100180008BB980910C01823311F48FE18BB980918E
:100190000C01833311F487E38BB980910C01843314
:1001A00011F486E68BB980910C01853311F485E753
:1001B0008BB980910C01863311F48DE78BB9809156
:1001C0000C01873311F483E28BB980910C018833E1
:1001D00011F48FE78BB980910C01893311F487E614
:1001E0008BB980910C018A3211F0833249F51BB82A
:1001F0001092100110920F0120910F013091100107
:1002000027303105ECF43BB181E090E002C0880F6B
:10021000991F2A95E2F7832B8BB92FEF80E792E0A5
:10022000215080409040E1F700C0000080910F0114
:100230009091100101969093100180930F01DCCFF3
:1002400080910C01803309F094CF8BE78BB991CF6B
:04025000F894FFCF50
:0C0254003132333435363738392A302344
:00000001FF
